{
	"ERC20Contract.sol": {
		"ERC20": {
			"abi": [
				{
					"inputs": [
						{
							"internalType": "address",
							"name": "_owner",
							"type": "address"
						},
						{
							"internalType": "string",
							"name": "_name",
							"type": "string"
						},
						{
							"internalType": "string",
							"name": "_symbol",
							"type": "string"
						},
						{
							"internalType": "uint8",
							"name": "_decimals",
							"type": "uint8"
						}
					],
					"stateMutability": "nonpayable",
					"type": "constructor"
				},
				{
					"anonymous": false,
					"inputs": [
						{
							"indexed": true,
							"internalType": "address",
							"name": "owner",
							"type": "address"
						},
						{
							"indexed": true,
							"internalType": "address",
							"name": "spender",
							"type": "address"
						},
						{
							"indexed": false,
							"internalType": "uint256",
							"name": "value",
							"type": "uint256"
						}
					],
					"name": "Approval",
					"type": "event"
				},
				{
					"anonymous": false,
					"inputs": [
						{
							"indexed": true,
							"internalType": "address",
							"name": "from",
							"type": "address"
						},
						{
							"indexed": true,
							"internalType": "address",
							"name": "to",
							"type": "address"
						},
						{
							"indexed": false,
							"internalType": "uint256",
							"name": "value",
							"type": "uint256"
						}
					],
					"name": "Transfer",
					"type": "event"
				},
				{
					"inputs": [
						{
							"internalType": "address",
							"name": "",
							"type": "address"
						},
						{
							"internalType": "address",
							"name": "",
							"type": "address"
						}
					],
					"name": "allowance",
					"outputs": [
						{
							"internalType": "uint256",
							"name": "",
							"type": "uint256"
						}
					],
					"stateMutability": "view",
					"type": "function"
				},
				{
					"inputs": [
						{
							"internalType": "address",
							"name": "spender",
							"type": "address"
						},
						{
							"internalType": "uint256",
							"name": "value",
							"type": "uint256"
						}
					],
					"name": "approve",
					"outputs": [
						{
							"internalType": "bool",
							"name": "",
							"type": "bool"
						}
					],
					"stateMutability": "nonpayable",
					"type": "function"
				},
				{
					"inputs": [
						{
							"internalType": "address",
							"name": "",
							"type": "address"
						}
					],
					"name": "balanceOf",
					"outputs": [
						{
							"internalType": "uint256",
							"name": "",
							"type": "uint256"
						}
					],
					"stateMutability": "view",
					"type": "function"
				},
				{
					"inputs": [
						{
							"internalType": "address",
							"name": "from",
							"type": "address"
						},
						{
							"internalType": "uint256",
							"name": "value",
							"type": "uint256"
						}
					],
					"name": "burn",
					"outputs": [],
					"stateMutability": "nonpayable",
					"type": "function"
				},
				{
					"inputs": [],
					"name": "decimals",
					"outputs": [
						{
							"internalType": "uint8",
							"name": "",
							"type": "uint8"
						}
					],
					"stateMutability": "view",
					"type": "function"
				},
				{
					"inputs": [],
					"name": "deposit",
					"outputs": [],
					"stateMutability": "payable",
					"type": "function"
				},
				{
					"inputs": [
						{
							"internalType": "address",
							"name": "to",
							"type": "address"
						},
						{
							"internalType": "uint256",
							"name": "value",
							"type": "uint256"
						}
					],
					"name": "mint",
					"outputs": [],
					"stateMutability": "nonpayable",
					"type": "function"
				},
				{
					"inputs": [],
					"name": "name",
					"outputs": [
						{
							"internalType": "string",
							"name": "",
							"type": "string"
						}
					],
					"stateMutability": "view",
					"type": "function"
				},
				{
					"inputs": [],
					"name": "owner",
					"outputs": [
						{
							"internalType": "address",
							"name": "",
							"type": "address"
						}
					],
					"stateMutability": "view",
					"type": "function"
				},
				{
					"inputs": [
						{
							"internalType": "uint256",
							"name": "amount",
							"type": "uint256"
						}
					],
					"name": "redeem",
					"outputs": [],
					"stateMutability": "nonpayable",
					"type": "function"
				},
				{
					"inputs": [],
					"name": "symbol",
					"outputs": [
						{
							"internalType": "string",
							"name": "",
							"type": "string"
						}
					],
					"stateMutability": "view",
					"type": "function"
				},
				{
					"inputs": [],
					"name": "totalSupply",
					"outputs": [
						{
							"internalType": "uint256",
							"name": "",
							"type": "uint256"
						}
					],
					"stateMutability": "view",
					"type": "function"
				},
				{
					"inputs": [
						{
							"internalType": "address",
							"name": "to",
							"type": "address"
						},
						{
							"internalType": "uint256",
							"name": "value",
							"type": "uint256"
						}
					],
					"name": "transfer",
					"outputs": [
						{
							"internalType": "bool",
							"name": "",
							"type": "bool"
						}
					],
					"stateMutability": "nonpayable",
					"type": "function"
				},
				{
					"inputs": [
						{
							"internalType": "address",
							"name": "from",
							"type": "address"
						},
						{
							"internalType": "address",
							"name": "to",
							"type": "address"
						},
						{
							"internalType": "uint256",
							"name": "value",
							"type": "uint256"
						}
					],
					"name": "transferFrom",
					"outputs": [
						{
							"internalType": "bool",
							"name": "",
							"type": "bool"
						}
					],
					"stateMutability": "nonpayable",
					"type": "function"
				}
			],
			"devdoc": {
				"kind": "dev",
				"methods": {},
				"version": 1
			},
			"evm": {
				"assembly": "    /* \"ERC20Contract.sol\":56:3283  contract ERC20 {... */\n  mstore(0x40, 0xa0)\n    /* \"ERC20Contract.sol\":590:788  constructor(address _owner, string memory _name, string memory _symbol, uint8 _decimals){... */\n  callvalue\n  dup1\n  iszero\n  tag_1\n  jumpi\n  0x00\n  dup1\n  revert\ntag_1:\n  pop\n  mload(0x40)\n  sub(codesize, bytecodeSize)\n  dup1\n  bytecodeSize\n  dup4\n  codecopy\n  dup2\n  dup2\n  add\n  0x40\n  mstore\n  dup2\n  add\n  swap1\n  tag_2\n  swap2\n  swap1\n  tag_3\n  jump\t// in\ntag_2:\n    /* \"ERC20Contract.sol\":695:700  _name */\n  dup3\n    /* \"ERC20Contract.sol\":688:692  name */\n  0x00\n    /* \"ERC20Contract.sol\":688:700  name = _name */\n  swap1\n  dup2\n  tag_6\n  swap2\n  swap1\n  tag_7\n  jump\t// in\ntag_6:\n  pop\n    /* \"ERC20Contract.sol\":719:726  _symbol */\n  dup2\n    /* \"ERC20Contract.sol\":710:716  symbol */\n  0x01\n    /* \"ERC20Contract.sol\":710:726  symbol = _symbol */\n  swap1\n  dup2\n  tag_8\n  swap2\n  swap1\n  tag_7\n  jump\t// in\ntag_8:\n  pop\n    /* \"ERC20Contract.sol\":747:756  _decimals */\n  dup1\n    /* \"ERC20Contract.sol\":736:756  decimals = _decimals */\n  0xff\n  and\n  0x80\n  dup2\n  0xff\n  and\n  dup2\n  mstore\n  pop\n  pop\n    /* \"ERC20Contract.sol\":774:780  _owner */\n  dup4\n    /* \"ERC20Contract.sol\":766:771  owner */\n  0x03\n  0x00\n    /* \"ERC20Contract.sol\":766:780  owner = _owner */\n  0x0100\n  exp\n  dup2\n  sload\n  dup2\n  0xffffffffffffffffffffffffffffffffffffffff\n  mul\n  not\n  and\n  swap1\n  dup4\n  0xffffffffffffffffffffffffffffffffffffffff\n  and\n  mul\n  or\n  swap1\n  sstore\n  pop\n    /* \"ERC20Contract.sol\":590:788  constructor(address _owner, string memory _name, string memory _symbol, uint8 _decimals){... */\n  pop\n  pop\n  pop\n  pop\n    /* \"ERC20Contract.sol\":56:3283  contract ERC20 {... */\n  jump(tag_9)\n    /* \"#utility.yul\":7:82   */\ntag_10:\n    /* \"#utility.yul\":40:46   */\n  0x00\n    /* \"#utility.yul\":73:75   */\n  0x40\n    /* \"#utility.yul\":67:76   */\n  mload\n    /* \"#utility.yul\":57:76   */\n  swap1\n  pop\n    /* \"#utility.yul\":7:82   */\n  swap1\n  jump\t// out\n    /* \"#utility.yul\":88:205   */\ntag_11:\n    /* \"#utility.yul\":197:198   */\n  0x00\n    /* \"#utility.yul\":194:195   */\n  dup1\n    /* \"#utility.yul\":187:199   */\n  revert\n    /* \"#utility.yul\":211:328   */\ntag_12:\n    /* \"#utility.yul\":320:321   */\n  0x00\n    /* \"#utility.yul\":317:318   */\n  dup1\n    /* \"#utility.yul\":310:322   */\n  revert\n    /* \"#utility.yul\":334:460   */\ntag_13:\n    /* \"#utility.yul\":371:378   */\n  0x00\n    /* \"#utility.yul\":411:453   */\n  0xffffffffffffffffffffffffffffffffffffffff\n    /* \"#utility.yul\":404:409   */\n  dup3\n    /* \"#utility.yul\":400:454   */\n  and\n    /* \"#utility.yul\":389:454   */\n  swap1\n  pop\n    /* \"#utility.yul\":334:460   */\n  swap2\n  swap1\n  pop\n  jump\t// out\n    /* \"#utility.yul\":466:562   */\ntag_14:\n    /* \"#utility.yul\":503:510   */\n  0x00\n    /* \"#utility.yul\":532:556   */\n  tag_55\n    /* \"#utility.yul\":550:555   */\n  dup3\n    /* \"#utility.yul\":532:556   */\n  tag_13\n  jump\t// in\ntag_55:\n    /* \"#utility.yul\":521:556   */\n  swap1\n  pop\n    /* \"#utility.yul\":466:562   */\n  swap2\n  swap1\n  pop\n  jump\t// out\n    /* \"#utility.yul\":568:690   */\ntag_15:\n    /* \"#utility.yul\":641:665   */\n  tag_57\n    /* \"#utility.yul\":659:664   */\n  dup2\n    /* \"#utility.yul\":641:665   */\n  tag_14\n  jump\t// in\ntag_57:\n    /* \"#utility.yul\":634:639   */\n  dup2\n    /* \"#utility.yul\":631:666   */\n  eq\n    /* \"#utility.yul\":621:684   */\n  tag_58\n  jumpi\n    /* \"#utility.yul\":680:681   */\n  0x00\n    /* \"#utility.yul\":677:678   */\n  dup1\n    /* \"#utility.yul\":670:682   */\n  revert\n    /* \"#utility.yul\":621:684   */\ntag_58:\n    /* \"#utility.yul\":568:690   */\n  pop\n  jump\t// out\n    /* \"#utility.yul\":696:839   */\ntag_16:\n    /* \"#utility.yul\":753:758   */\n  0x00\n    /* \"#utility.yul\":784:790   */\n  dup2\n    /* \"#utility.yul\":778:791   */\n  mload\n    /* \"#utility.yul\":769:791   */\n  swap1\n  pop\n    /* \"#utility.yul\":800:833   */\n  tag_60\n    /* \"#utility.yul\":827:832   */\n  dup2\n    /* \"#utility.yul\":800:833   */\n  tag_15\n  jump\t// in\ntag_60:\n    /* \"#utility.yul\":696:839   */\n  swap3\n  swap2\n  pop\n  pop\n  jump\t// out\n    /* \"#utility.yul\":845:962   */\ntag_17:\n    /* \"#utility.yul\":954:955   */\n  0x00\n    /* \"#utility.yul\":951:952   */\n  dup1\n    /* \"#utility.yul\":944:956   */\n  revert\n    /* \"#utility.yul\":968:1085   */\ntag_18:\n    /* \"#utility.yul\":1077:1078   */\n  0x00\n    /* \"#utility.yul\":1074:1075   */\n  dup1\n    /* \"#utility.yul\":1067:1079   */\n  revert\n    /* \"#utility.yul\":1091:1193   */\ntag_19:\n    /* \"#utility.yul\":1132:1138   */\n  0x00\n    /* \"#utility.yul\":1183:1185   */\n  0x1f\n    /* \"#utility.yul\":1179:1186   */\n  not\n    /* \"#utility.yul\":1174:1176   */\n  0x1f\n    /* \"#utility.yul\":1167:1172   */\n  dup4\n    /* \"#utility.yul\":1163:1177   */\n  add\n    /* \"#utility.yul\":1159:1187   */\n  and\n    /* \"#utility.yul\":1149:1187   */\n  swap1\n  pop\n    /* \"#utility.yul\":1091:1193   */\n  swap2\n  swap1\n  pop\n  jump\t// out\n    /* \"#utility.yul\":1199:1379   */\ntag_20:\n    /* \"#utility.yul\":1247:1324   */\n  0x4e487b7100000000000000000000000000000000000000000000000000000000\n    /* \"#utility.yul\":1244:1245   */\n  0x00\n    /* \"#utility.yul\":1237:1325   */\n  mstore\n    /* \"#utility.yul\":1344:1348   */\n  0x41\n    /* \"#utility.yul\":1341:1342   */\n  0x04\n    /* \"#utility.yul\":1334:1349   */\n  mstore\n    /* \"#utility.yul\":1368:1372   */\n  0x24\n    /* \"#utility.yul\":1365:1366   */\n  0x00\n    /* \"#utility.yul\":1358:1373   */\n  revert\n    /* \"#utility.yul\":1385:1666   */\ntag_21:\n    /* \"#utility.yul\":1468:1495   */\n  tag_66\n    /* \"#utility.yul\":1490:1494   */\n  dup3\n    /* \"#utility.yul\":1468:1495   */\n  tag_19\n  jump\t// in\ntag_66:\n    /* \"#utility.yul\":1460:1466   */\n  dup2\n    /* \"#utility.yul\":1456:1496   */\n  add\n    /* \"#utility.yul\":1598:1604   */\n  dup2\n    /* \"#utility.yul\":1586:1596   */\n  dup2\n    /* \"#utility.yul\":1583:1605   */\n  lt\n    /* \"#utility.yul\":1562:1580   */\n  0xffffffffffffffff\n    /* \"#utility.yul\":1550:1560   */\n  dup3\n    /* \"#utility.yul\":1547:1581   */\n  gt\n    /* \"#utility.yul\":1544:1606   */\n  or\n    /* \"#utility.yul\":1541:1629   */\n  iszero\n  tag_67\n  jumpi\n    /* \"#utility.yul\":1609:1627   */\n  tag_68\n  tag_20\n  jump\t// in\ntag_68:\n    /* \"#utility.yul\":1541:1629   */\ntag_67:\n    /* \"#utility.yul\":1649:1659   */\n  dup1\n    /* \"#utility.yul\":1645:1647   */\n  0x40\n    /* \"#utility.yul\":1638:1660   */\n  mstore\n    /* \"#utility.yul\":1428:1666   */\n  pop\n    /* \"#utility.yul\":1385:1666   */\n  pop\n  pop\n  jump\t// out\n    /* \"#utility.yul\":1672:1801   */\ntag_22:\n    /* \"#utility.yul\":1706:1712   */\n  0x00\n    /* \"#utility.yul\":1733:1753   */\n  tag_70\n  tag_10\n  jump\t// in\ntag_70:\n    /* \"#utility.yul\":1723:1753   */\n  swap1\n  pop\n    /* \"#utility.yul\":1762:1795   */\n  tag_71\n    /* \"#utility.yul\":1790:1794   */\n  dup3\n    /* \"#utility.yul\":1782:1788   */\n  dup3\n    /* \"#utility.yul\":1762:1795   */\n  tag_21\n  jump\t// in\ntag_71:\n    /* \"#utility.yul\":1672:1801   */\n  swap2\n  swap1\n  pop\n  jump\t// out\n    /* \"#utility.yul\":1807:2115   */\ntag_23:\n    /* \"#utility.yul\":1869:1873   */\n  0x00\n    /* \"#utility.yul\":1959:1977   */\n  0xffffffffffffffff\n    /* \"#utility.yul\":1951:1957   */\n  dup3\n    /* \"#utility.yul\":1948:1978   */\n  gt\n    /* \"#utility.yul\":1945:2001   */\n  iszero\n  tag_73\n  jumpi\n    /* \"#utility.yul\":1981:1999   */\n  tag_74\n  tag_20\n  jump\t// in\ntag_74:\n    /* \"#utility.yul\":1945:2001   */\ntag_73:\n    /* \"#utility.yul\":2019:2048   */\n  tag_75\n    /* \"#utility.yul\":2041:2047   */\n  dup3\n    /* \"#utility.yul\":2019:2048   */\n  tag_19\n  jump\t// in\ntag_75:\n    /* \"#utility.yul\":2011:2048   */\n  swap1\n  pop\n    /* \"#utility.yul\":2103:2107   */\n  0x20\n    /* \"#utility.yul\":2097:2101   */\n  dup2\n    /* \"#utility.yul\":2093:2108   */\n  add\n    /* \"#utility.yul\":2085:2108   */\n  swap1\n  pop\n    /* \"#utility.yul\":1807:2115   */\n  swap2\n  swap1\n  pop\n  jump\t// out\n    /* \"#utility.yul\":2121:2260   */\ntag_24:\n    /* \"#utility.yul\":2210:2216   */\n  dup3\n    /* \"#utility.yul\":2205:2208   */\n  dup2\n    /* \"#utility.yul\":2200:2203   */\n  dup4\n    /* \"#utility.yul\":2194:2217   */\n  mcopy\n    /* \"#utility.yul\":2251:2252   */\n  0x00\n    /* \"#utility.yul\":2242:2248   */\n  dup4\n    /* \"#utility.yul\":2237:2240   */\n  dup4\n    /* \"#utility.yul\":2233:2249   */\n  add\n    /* \"#utility.yul\":2226:2253   */\n  mstore\n    /* \"#utility.yul\":2121:2260   */\n  pop\n  pop\n  pop\n  jump\t// out\n    /* \"#utility.yul\":2266:2700   */\ntag_25:\n    /* \"#utility.yul\":2355:2360   */\n  0x00\n    /* \"#utility.yul\":2380:2446   */\n  tag_78\n    /* \"#utility.yul\":2396:2445   */\n  tag_79\n    /* \"#utility.yul\":2438:2444   */\n  dup5\n    /* \"#utility.yul\":2396:2445   */\n  tag_23\n  jump\t// in\ntag_79:\n    /* \"#utility.yul\":2380:2446   */\n  tag_22\n  jump\t// in\ntag_78:\n    /* \"#utility.yul\":2371:2446   */\n  swap1\n  pop\n    /* \"#utility.yul\":2469:2475   */\n  dup3\n    /* \"#utility.yul\":2462:2467   */\n  dup2\n    /* \"#utility.yul\":2455:2476   */\n  mstore\n    /* \"#utility.yul\":2507:2511   */\n  0x20\n    /* \"#utility.yul\":2500:2505   */\n  dup2\n    /* \"#utility.yul\":2496:2512   */\n  add\n    /* \"#utility.yul\":2545:2548   */\n  dup5\n    /* \"#utility.yul\":2536:2542   */\n  dup5\n    /* \"#utility.yul\":2531:2534   */\n  dup5\n    /* \"#utility.yul\":2527:2543   */\n  add\n    /* \"#utility.yul\":2524:2549   */\n  gt\n    /* \"#utility.yul\":2521:2633   */\n  iszero\n  tag_80\n  jumpi\n    /* \"#utility.yul\":2552:2631   */\n  tag_81\n  tag_18\n  jump\t// in\ntag_81:\n    /* \"#utility.yul\":2521:2633   */\ntag_80:\n    /* \"#utility.yul\":2642:2694   */\n  tag_82\n    /* \"#utility.yul\":2687:2693   */\n  dup5\n    /* \"#utility.yul\":2682:2685   */\n  dup3\n    /* \"#utility.yul\":2677:2680   */\n  dup6\n    /* \"#utility.yul\":2642:2694   */\n  tag_24\n  jump\t// in\ntag_82:\n    /* \"#utility.yul\":2361:2700   */\n  pop\n    /* \"#utility.yul\":2266:2700   */\n  swap4\n  swap3\n  pop\n  pop\n  pop\n  jump\t// out\n    /* \"#utility.yul\":2720:3075   */\ntag_26:\n    /* \"#utility.yul\":2787:2792   */\n  0x00\n    /* \"#utility.yul\":2836:2839   */\n  dup3\n    /* \"#utility.yul\":2829:2833   */\n  0x1f\n    /* \"#utility.yul\":2821:2827   */\n  dup4\n    /* \"#utility.yul\":2817:2834   */\n  add\n    /* \"#utility.yul\":2813:2840   */\n  slt\n    /* \"#utility.yul\":2803:2925   */\n  tag_84\n  jumpi\n    /* \"#utility.yul\":2844:2923   */\n  tag_85\n  tag_17\n  jump\t// in\ntag_85:\n    /* \"#utility.yul\":2803:2925   */\ntag_84:\n    /* \"#utility.yul\":2954:2960   */\n  dup2\n    /* \"#utility.yul\":2948:2961   */\n  mload\n    /* \"#utility.yul\":2979:3069   */\n  tag_86\n    /* \"#utility.yul\":3065:3068   */\n  dup5\n    /* \"#utility.yul\":3057:3063   */\n  dup3\n    /* \"#utility.yul\":3050:3054   */\n  0x20\n    /* \"#utility.yul\":3042:3048   */\n  dup7\n    /* \"#utility.yul\":3038:3055   */\n  add\n    /* \"#utility.yul\":2979:3069   */\n  tag_25\n  jump\t// in\ntag_86:\n    /* \"#utility.yul\":2970:3069   */\n  swap2\n  pop\n    /* \"#utility.yul\":2793:3075   */\n  pop\n    /* \"#utility.yul\":2720:3075   */\n  swap3\n  swap2\n  pop\n  pop\n  jump\t// out\n    /* \"#utility.yul\":3081:3167   */\ntag_27:\n    /* \"#utility.yul\":3116:3123   */\n  0x00\n    /* \"#utility.yul\":3156:3160   */\n  0xff\n    /* \"#utility.yul\":3149:3154   */\n  dup3\n    /* \"#utility.yul\":3145:3161   */\n  and\n    /* \"#utility.yul\":3134:3161   */\n  swap1\n  pop\n    /* \"#utility.yul\":3081:3167   */\n  swap2\n  swap1\n  pop\n  jump\t// out\n    /* \"#utility.yul\":3173:3291   */\ntag_28:\n    /* \"#utility.yul\":3244:3266   */\n  tag_89\n    /* \"#utility.yul\":3260:3265   */\n  dup2\n    /* \"#utility.yul\":3244:3266   */\n  tag_27\n  jump\t// in\ntag_89:\n    /* \"#utility.yul\":3237:3242   */\n  dup2\n    /* \"#utility.yul\":3234:3267   */\n  eq\n    /* \"#utility.yul\":3224:3285   */\n  tag_90\n  jumpi\n    /* \"#utility.yul\":3281:3282   */\n  0x00\n    /* \"#utility.yul\":3278:3279   */\n  dup1\n    /* \"#utility.yul\":3271:3283   */\n  revert\n    /* \"#utility.yul\":3224:3285   */\ntag_90:\n    /* \"#utility.yul\":3173:3291   */\n  pop\n  jump\t// out\n    /* \"#utility.yul\":3297:3436   */\ntag_29:\n    /* \"#utility.yul\":3352:3357   */\n  0x00\n    /* \"#utility.yul\":3383:3389   */\n  dup2\n    /* \"#utility.yul\":3377:3390   */\n  mload\n    /* \"#utility.yul\":3368:3390   */\n  swap1\n  pop\n    /* \"#utility.yul\":3399:3430   */\n  tag_92\n    /* \"#utility.yul\":3424:3429   */\n  dup2\n    /* \"#utility.yul\":3399:3430   */\n  tag_28\n  jump\t// in\ntag_92:\n    /* \"#utility.yul\":3297:3436   */\n  swap3\n  swap2\n  pop\n  pop\n  jump\t// out\n    /* \"#utility.yul\":3442:4604   */\ntag_3:\n    /* \"#utility.yul\":3557:3563   */\n  0x00\n    /* \"#utility.yul\":3565:3571   */\n  dup1\n    /* \"#utility.yul\":3573:3579   */\n  0x00\n    /* \"#utility.yul\":3581:3587   */\n  dup1\n    /* \"#utility.yul\":3630:3633   */\n  0x80\n    /* \"#utility.yul\":3618:3627   */\n  dup6\n    /* \"#utility.yul\":3609:3616   */\n  dup8\n    /* \"#utility.yul\":3605:3628   */\n  sub\n    /* \"#utility.yul\":3601:3634   */\n  slt\n    /* \"#utility.yul\":3598:3718   */\n  iszero\n  tag_94\n  jumpi\n    /* \"#utility.yul\":3637:3716   */\n  tag_95\n  tag_11\n  jump\t// in\ntag_95:\n    /* \"#utility.yul\":3598:3718   */\ntag_94:\n    /* \"#utility.yul\":3757:3758   */\n  0x00\n    /* \"#utility.yul\":3782:3846   */\n  tag_96\n    /* \"#utility.yul\":3838:3845   */\n  dup8\n    /* \"#utility.yul\":3829:3835   */\n  dup3\n    /* \"#utility.yul\":3818:3827   */\n  dup9\n    /* \"#utility.yul\":3814:3836   */\n  add\n    /* \"#utility.yul\":3782:3846   */\n  tag_16\n  jump\t// in\ntag_96:\n    /* \"#utility.yul\":3772:3846   */\n  swap5\n  pop\n    /* \"#utility.yul\":3728:3856   */\n  pop\n    /* \"#utility.yul\":3916:3918   */\n  0x20\n    /* \"#utility.yul\":3905:3914   */\n  dup6\n    /* \"#utility.yul\":3901:3919   */\n  add\n    /* \"#utility.yul\":3895:3920   */\n  mload\n    /* \"#utility.yul\":3947:3965   */\n  0xffffffffffffffff\n    /* \"#utility.yul\":3939:3945   */\n  dup2\n    /* \"#utility.yul\":3936:3966   */\n  gt\n    /* \"#utility.yul\":3933:4050   */\n  iszero\n  tag_97\n  jumpi\n    /* \"#utility.yul\":3969:4048   */\n  tag_98\n  tag_12\n  jump\t// in\ntag_98:\n    /* \"#utility.yul\":3933:4050   */\ntag_97:\n    /* \"#utility.yul\":4074:4148   */\n  tag_99\n    /* \"#utility.yul\":4140:4147   */\n  dup8\n    /* \"#utility.yul\":4131:4137   */\n  dup3\n    /* \"#utility.yul\":4120:4129   */\n  dup9\n    /* \"#utility.yul\":4116:4138   */\n  add\n    /* \"#utility.yul\":4074:4148   */\n  tag_26\n  jump\t// in\ntag_99:\n    /* \"#utility.yul\":4064:4148   */\n  swap4\n  pop\n    /* \"#utility.yul\":3866:4158   */\n  pop\n    /* \"#utility.yul\":4218:4220   */\n  0x40\n    /* \"#utility.yul\":4207:4216   */\n  dup6\n    /* \"#utility.yul\":4203:4221   */\n  add\n    /* \"#utility.yul\":4197:4222   */\n  mload\n    /* \"#utility.yul\":4249:4267   */\n  0xffffffffffffffff\n    /* \"#utility.yul\":4241:4247   */\n  dup2\n    /* \"#utility.yul\":4238:4268   */\n  gt\n    /* \"#utility.yul\":4235:4352   */\n  iszero\n  tag_100\n  jumpi\n    /* \"#utility.yul\":4271:4350   */\n  tag_101\n  tag_12\n  jump\t// in\ntag_101:\n    /* \"#utility.yul\":4235:4352   */\ntag_100:\n    /* \"#utility.yul\":4376:4450   */\n  tag_102\n    /* \"#utility.yul\":4442:4449   */\n  dup8\n    /* \"#utility.yul\":4433:4439   */\n  dup3\n    /* \"#utility.yul\":4422:4431   */\n  dup9\n    /* \"#utility.yul\":4418:4440   */\n  add\n    /* \"#utility.yul\":4376:4450   */\n  tag_26\n  jump\t// in\ntag_102:\n    /* \"#utility.yul\":4366:4450   */\n  swap3\n  pop\n    /* \"#utility.yul\":4168:4460   */\n  pop\n    /* \"#utility.yul\":4499:4501   */\n  0x60\n    /* \"#utility.yul\":4525:4587   */\n  tag_103\n    /* \"#utility.yul\":4579:4586   */\n  dup8\n    /* \"#utility.yul\":4570:4576   */\n  dup3\n    /* \"#utility.yul\":4559:4568   */\n  dup9\n    /* \"#utility.yul\":4555:4577   */\n  add\n    /* \"#utility.yul\":4525:4587   */\n  tag_29\n  jump\t// in\ntag_103:\n    /* \"#utility.yul\":4515:4587   */\n  swap2\n  pop\n    /* \"#utility.yul\":4470:4597   */\n  pop\n    /* \"#utility.yul\":3442:4604   */\n  swap3\n  swap6\n  swap2\n  swap5\n  pop\n  swap3\n  pop\n  jump\t// out\n    /* \"#utility.yul\":4610:4709   */\ntag_30:\n    /* \"#utility.yul\":4662:4668   */\n  0x00\n    /* \"#utility.yul\":4696:4701   */\n  dup2\n    /* \"#utility.yul\":4690:4702   */\n  mload\n    /* \"#utility.yul\":4680:4702   */\n  swap1\n  pop\n    /* \"#utility.yul\":4610:4709   */\n  swap2\n  swap1\n  pop\n  jump\t// out\n    /* \"#utility.yul\":4715:4895   */\ntag_31:\n    /* \"#utility.yul\":4763:4840   */\n  0x4e487b7100000000000000000000000000000000000000000000000000000000\n    /* \"#utility.yul\":4760:4761   */\n  0x00\n    /* \"#utility.yul\":4753:4841   */\n  mstore\n    /* \"#utility.yul\":4860:4864   */\n  0x22\n    /* \"#utility.yul\":4857:4858   */\n  0x04\n    /* \"#utility.yul\":4850:4865   */\n  mstore\n    /* \"#utility.yul\":4884:4888   */\n  0x24\n    /* \"#utility.yul\":4881:4882   */\n  0x00\n    /* \"#utility.yul\":4874:4889   */\n  revert\n    /* \"#utility.yul\":4901:5221   */\ntag_32:\n    /* \"#utility.yul\":4945:4951   */\n  0x00\n    /* \"#utility.yul\":4982:4983   */\n  0x02\n    /* \"#utility.yul\":4976:4980   */\n  dup3\n    /* \"#utility.yul\":4972:4984   */\n  div\n    /* \"#utility.yul\":4962:4984   */\n  swap1\n  pop\n    /* \"#utility.yul\":5029:5030   */\n  0x01\n    /* \"#utility.yul\":5023:5027   */\n  dup3\n    /* \"#utility.yul\":5019:5031   */\n  and\n    /* \"#utility.yul\":5050:5068   */\n  dup1\n    /* \"#utility.yul\":5040:5121   */\n  tag_107\n  jumpi\n    /* \"#utility.yul\":5106:5110   */\n  0x7f\n    /* \"#utility.yul\":5098:5104   */\n  dup3\n    /* \"#utility.yul\":5094:5111   */\n  and\n    /* \"#utility.yul\":5084:5111   */\n  swap2\n  pop\n    /* \"#utility.yul\":5040:5121   */\ntag_107:\n    /* \"#utility.yul\":5168:5170   */\n  0x20\n    /* \"#utility.yul\":5160:5166   */\n  dup3\n    /* \"#utility.yul\":5157:5171   */\n  lt\n    /* \"#utility.yul\":5137:5155   */\n  dup2\n    /* \"#utility.yul\":5134:5172   */\n  sub\n    /* \"#utility.yul\":5131:5215   */\n  tag_108\n  jumpi\n    /* \"#utility.yul\":5187:5205   */\n  tag_109\n  tag_31\n  jump\t// in\ntag_109:\n    /* \"#utility.yul\":5131:5215   */\ntag_108:\n    /* \"#utility.yul\":4952:5221   */\n  pop\n    /* \"#utility.yul\":4901:5221   */\n  swap2\n  swap1\n  pop\n  jump\t// out\n    /* \"#utility.yul\":5227:5368   */\ntag_33:\n    /* \"#utility.yul\":5276:5280   */\n  0x00\n    /* \"#utility.yul\":5299:5302   */\n  dup2\n    /* \"#utility.yul\":5291:5302   */\n  swap1\n  pop\n    /* \"#utility.yul\":5322:5325   */\n  dup2\n    /* \"#utility.yul\":5319:5320   */\n  0x00\n    /* \"#utility.yul\":5312:5326   */\n  mstore\n    /* \"#utility.yul\":5356:5360   */\n  0x20\n    /* \"#utility.yul\":5353:5354   */\n  0x00\n    /* \"#utility.yul\":5343:5361   */\n  keccak256\n    /* \"#utility.yul\":5335:5361   */\n  swap1\n  pop\n    /* \"#utility.yul\":5227:5368   */\n  swap2\n  swap1\n  pop\n  jump\t// out\n    /* \"#utility.yul\":5374:5467   */\ntag_34:\n    /* \"#utility.yul\":5411:5417   */\n  0x00\n    /* \"#utility.yul\":5458:5460   */\n  0x20\n    /* \"#utility.yul\":5453:5455   */\n  0x1f\n    /* \"#utility.yul\":5446:5451   */\n  dup4\n    /* \"#utility.yul\":5442:5456   */\n  add\n    /* \"#utility.yul\":5438:5461   */\n  div\n    /* \"#utility.yul\":5428:5461   */\n  swap1\n  pop\n    /* \"#utility.yul\":5374:5467   */\n  swap2\n  swap1\n  pop\n  jump\t// out\n    /* \"#utility.yul\":5473:5580   */\ntag_35:\n    /* \"#utility.yul\":5517:5525   */\n  0x00\n    /* \"#utility.yul\":5567:5572   */\n  dup3\n    /* \"#utility.yul\":5561:5565   */\n  dup3\n    /* \"#utility.yul\":5557:5573   */\n  shl\n    /* \"#utility.yul\":5536:5573   */\n  swap1\n  pop\n    /* \"#utility.yul\":5473:5580   */\n  swap3\n  swap2\n  pop\n  pop\n  jump\t// out\n    /* \"#utility.yul\":5586:5979   */\ntag_36:\n    /* \"#utility.yul\":5655:5661   */\n  0x00\n    /* \"#utility.yul\":5705:5706   */\n  0x08\n    /* \"#utility.yul\":5693:5703   */\n  dup4\n    /* \"#utility.yul\":5689:5707   */\n  mul\n    /* \"#utility.yul\":5728:5825   */\n  tag_114\n    /* \"#utility.yul\":5758:5824   */\n  0xffffffffffffffffffffffffffffffffffffffffffffffffffffffffffffffff\n    /* \"#utility.yul\":5747:5756   */\n  dup3\n    /* \"#utility.yul\":5728:5825   */\n  tag_35\n  jump\t// in\ntag_114:\n    /* \"#utility.yul\":5846:5885   */\n  tag_115\n    /* \"#utility.yul\":5876:5884   */\n  dup7\n    /* \"#utility.yul\":5865:5874   */\n  dup4\n    /* \"#utility.yul\":5846:5885   */\n  tag_35\n  jump\t// in\ntag_115:\n    /* \"#utility.yul\":5834:5885   */\n  swap6\n  pop\n    /* \"#utility.yul\":5918:5922   */\n  dup1\n    /* \"#utility.yul\":5914:5923   */\n  not\n    /* \"#utility.yul\":5907:5912   */\n  dup5\n    /* \"#utility.yul\":5903:5924   */\n  and\n    /* \"#utility.yul\":5894:5924   */\n  swap4\n  pop\n    /* \"#utility.yul\":5967:5971   */\n  dup1\n    /* \"#utility.yul\":5957:5965   */\n  dup7\n    /* \"#utility.yul\":5953:5972   */\n  and\n    /* \"#utility.yul\":5946:5951   */\n  dup5\n    /* \"#utility.yul\":5943:5973   */\n  or\n    /* \"#utility.yul\":5933:5973   */\n  swap3\n  pop\n    /* \"#utility.yul\":5662:5979   */\n  pop\n  pop\n    /* \"#utility.yul\":5586:5979   */\n  swap4\n  swap3\n  pop\n  pop\n  pop\n  jump\t// out\n    /* \"#utility.yul\":5985:6062   */\ntag_37:\n    /* \"#utility.yul\":6022:6029   */\n  0x00\n    /* \"#utility.yul\":6051:6056   */\n  dup2\n    /* \"#utility.yul\":6040:6056   */\n  swap1\n  pop\n    /* \"#utility.yul\":5985:6062   */\n  swap2\n  swap1\n  pop\n  jump\t// out\n    /* \"#utility.yul\":6068:6128   */\ntag_38:\n    /* \"#utility.yul\":6096:6099   */\n  0x00\n    /* \"#utility.yul\":6117:6122   */\n  dup2\n    /* \"#utility.yul\":6110:6122   */\n  swap1\n  pop\n    /* \"#utility.yul\":6068:6128   */\n  swap2\n  swap1\n  pop\n  jump\t// out\n    /* \"#utility.yul\":6134:6276   */\ntag_39:\n    /* \"#utility.yul\":6184:6193   */\n  0x00\n    /* \"#utility.yul\":6217:6270   */\n  tag_119\n    /* \"#utility.yul\":6235:6269   */\n  tag_120\n    /* \"#utility.yul\":6244:6268   */\n  tag_121\n    /* \"#utility.yul\":6262:6267   */\n  dup5\n    /* \"#utility.yul\":6244:6268   */\n  tag_37\n  jump\t// in\ntag_121:\n    /* \"#utility.yul\":6235:6269   */\n  tag_38\n  jump\t// in\ntag_120:\n    /* \"#utility.yul\":6217:6270   */\n  tag_37\n  jump\t// in\ntag_119:\n    /* \"#utility.yul\":6204:6270   */\n  swap1\n  pop\n    /* \"#utility.yul\":6134:6276   */\n  swap2\n  swap1\n  pop\n  jump\t// out\n    /* \"#utility.yul\":6282:6357   */\ntag_40:\n    /* \"#utility.yul\":6325:6328   */\n  0x00\n    /* \"#utility.yul\":6346:6351   */\n  dup2\n    /* \"#utility.yul\":6339:6351   */\n  swap1\n  pop\n    /* \"#utility.yul\":6282:6357   */\n  swap2\n  swap1\n  pop\n  jump\t// out\n    /* \"#utility.yul\":6363:6632   */\ntag_41:\n    /* \"#utility.yul\":6473:6512   */\n  tag_124\n    /* \"#utility.yul\":6504:6511   */\n  dup4\n    /* \"#utility.yul\":6473:6512   */\n  tag_39\n  jump\t// in\ntag_124:\n    /* \"#utility.yul\":6534:6625   */\n  tag_125\n    /* \"#utility.yul\":6583:6624   */\n  tag_126\n    /* \"#utility.yul\":6607:6623   */\n  dup3\n    /* \"#utility.yul\":6583:6624   */\n  tag_40\n  jump\t// in\ntag_126:\n    /* \"#utility.yul\":6575:6581   */\n  dup5\n    /* \"#utility.yul\":6568:6572   */\n  dup5\n    /* \"#utility.yul\":6562:6573   */\n  sload\n    /* \"#utility.yul\":6534:6625   */\n  tag_36\n  jump\t// in\ntag_125:\n    /* \"#utility.yul\":6528:6532   */\n  dup3\n    /* \"#utility.yul\":6521:6626   */\n  sstore\n    /* \"#utility.yul\":6439:6632   */\n  pop\n    /* \"#utility.yul\":6363:6632   */\n  pop\n  pop\n  pop\n  jump\t// out\n    /* \"#utility.yul\":6638:6711   */\ntag_42:\n    /* \"#utility.yul\":6683:6686   */\n  0x00\n    /* \"#utility.yul\":6638:6711   */\n  swap1\n  jump\t// out\n    /* \"#utility.yul\":6717:6906   */\ntag_43:\n    /* \"#utility.yul\":6794:6826   */\n  tag_129\n  tag_42\n  jump\t// in\ntag_129:\n    /* \"#utility.yul\":6835:6900   */\n  tag_130\n    /* \"#utility.yul\":6893:6899   */\n  dup2\n    /* \"#utility.yul\":6885:6891   */\n  dup5\n    /* \"#utility.yul\":6879:6883   */\n  dup5\n    /* \"#utility.yul\":6835:6900   */\n  tag_41\n  jump\t// in\ntag_130:\n    /* \"#utility.yul\":6770:6906   */\n  pop\n    /* \"#utility.yul\":6717:6906   */\n  pop\n  pop\n  jump\t// out\n    /* \"#utility.yul\":6912:7098   */\ntag_44:\n    /* \"#utility.yul\":6972:7092   */\ntag_132:\n    /* \"#utility.yul\":6989:6992   */\n  dup2\n    /* \"#utility.yul\":6982:6987   */\n  dup2\n    /* \"#utility.yul\":6979:6993   */\n  lt\n    /* \"#utility.yul\":6972:7092   */\n  iszero\n  tag_134\n  jumpi\n    /* \"#utility.yul\":7043:7082   */\n  tag_135\n    /* \"#utility.yul\":7080:7081   */\n  0x00\n    /* \"#utility.yul\":7073:7078   */\n  dup3\n    /* \"#utility.yul\":7043:7082   */\n  tag_43\n  jump\t// in\ntag_135:\n    /* \"#utility.yul\":7016:7017   */\n  0x01\n    /* \"#utility.yul\":7009:7014   */\n  dup2\n    /* \"#utility.yul\":7005:7018   */\n  add\n    /* \"#utility.yul\":6996:7018   */\n  swap1\n  pop\n    /* \"#utility.yul\":6972:7092   */\n  jump(tag_132)\ntag_134:\n    /* \"#utility.yul\":6912:7098   */\n  pop\n  pop\n  jump\t// out\n    /* \"#utility.yul\":7104:7647   */\ntag_45:\n    /* \"#utility.yul\":7205:7207   */\n  0x1f\n    /* \"#utility.yul\":7200:7203   */\n  dup3\n    /* \"#utility.yul\":7197:7208   */\n  gt\n    /* \"#utility.yul\":7194:7640   */\n  iszero\n  tag_137\n  jumpi\n    /* \"#utility.yul\":7239:7277   */\n  tag_138\n    /* \"#utility.yul\":7271:7276   */\n  dup2\n    /* \"#utility.yul\":7239:7277   */\n  tag_33\n  jump\t// in\ntag_138:\n    /* \"#utility.yul\":7323:7352   */\n  tag_139\n    /* \"#utility.yul\":7341:7351   */\n  dup5\n    /* \"#utility.yul\":7323:7352   */\n  tag_34\n  jump\t// in\ntag_139:\n    /* \"#utility.yul\":7313:7321   */\n  dup2\n    /* \"#utility.yul\":7309:7353   */\n  add\n    /* \"#utility.yul\":7506:7508   */\n  0x20\n    /* \"#utility.yul\":7494:7504   */\n  dup6\n    /* \"#utility.yul\":7491:7509   */\n  lt\n    /* \"#utility.yul\":7488:7537   */\n  iszero\n  tag_140\n  jumpi\n    /* \"#utility.yul\":7527:7535   */\n  dup2\n    /* \"#utility.yul\":7512:7535   */\n  swap1\n  pop\n    /* \"#utility.yul\":7488:7537   */\ntag_140:\n    /* \"#utility.yul\":7550:7630   */\n  tag_141\n    /* \"#utility.yul\":7606:7628   */\n  tag_142\n    /* \"#utility.yul\":7624:7627   */\n  dup6\n    /* \"#utility.yul\":7606:7628   */\n  tag_34\n  jump\t// in\ntag_142:\n    /* \"#utility.yul\":7596:7604   */\n  dup4\n    /* \"#utility.yul\":7592:7629   */\n  add\n    /* \"#utility.yul\":7579:7590   */\n  dup3\n    /* \"#utility.yul\":7550:7630   */\n  tag_44\n  jump\t// in\ntag_141:\n    /* \"#utility.yul\":7209:7640   */\n  pop\n  pop\n    /* \"#utility.yul\":7194:7640   */\ntag_137:\n    /* \"#utility.yul\":7104:7647   */\n  pop\n  pop\n  pop\n  jump\t// out\n    /* \"#utility.yul\":7653:7770   */\ntag_46:\n    /* \"#utility.yul\":7707:7715   */\n  0x00\n    /* \"#utility.yul\":7757:7762   */\n  dup3\n    /* \"#utility.yul\":7751:7755   */\n  dup3\n    /* \"#utility.yul\":7747:7763   */\n  shr\n    /* \"#utility.yul\":7726:7763   */\n  swap1\n  pop\n    /* \"#utility.yul\":7653:7770   */\n  swap3\n  swap2\n  pop\n  pop\n  jump\t// out\n    /* \"#utility.yul\":7776:7945   */\ntag_47:\n    /* \"#utility.yul\":7820:7826   */\n  0x00\n    /* \"#utility.yul\":7853:7904   */\n  tag_145\n    /* \"#utility.yul\":7901:7902   */\n  0x00\n    /* \"#utility.yul\":7897:7903   */\n  not\n    /* \"#utility.yul\":7889:7894   */\n  dup5\n    /* \"#utility.yul\":7886:7887   */\n  0x08\n    /* \"#utility.yul\":7882:7895   */\n  mul\n    /* \"#utility.yul\":7853:7904   */\n  tag_46\n  jump\t// in\ntag_145:\n    /* \"#utility.yul\":7849:7905   */\n  not\n    /* \"#utility.yul\":7934:7938   */\n  dup1\n    /* \"#utility.yul\":7928:7932   */\n  dup4\n    /* \"#utility.yul\":7924:7939   */\n  and\n    /* \"#utility.yul\":7914:7939   */\n  swap2\n  pop\n    /* \"#utility.yul\":7827:7945   */\n  pop\n    /* \"#utility.yul\":7776:7945   */\n  swap3\n  swap2\n  pop\n  pop\n  jump\t// out\n    /* \"#utility.yul\":7950:8245   */\ntag_48:\n    /* \"#utility.yul\":8026:8030   */\n  0x00\n    /* \"#utility.yul\":8172:8201   */\n  tag_147\n    /* \"#utility.yul\":8197:8200   */\n  dup4\n    /* \"#utility.yul\":8191:8195   */\n  dup4\n    /* \"#utility.yul\":8172:8201   */\n  tag_47\n  jump\t// in\ntag_147:\n    /* \"#utility.yul\":8164:8201   */\n  swap2\n  pop\n    /* \"#utility.yul\":8234:8237   */\n  dup3\n    /* \"#utility.yul\":8231:8232   */\n  0x02\n    /* \"#utility.yul\":8227:8238   */\n  mul\n    /* \"#utility.yul\":8221:8225   */\n  dup3\n    /* \"#utility.yul\":8218:8239   */\n  or\n    /* \"#utility.yul\":8210:8239   */\n  swap1\n  pop\n    /* \"#utility.yul\":7950:8245   */\n  swap3\n  swap2\n  pop\n  pop\n  jump\t// out\n    /* \"#utility.yul\":8250:9645   */\ntag_7:\n    /* \"#utility.yul\":8367:8404   */\n  tag_149\n    /* \"#utility.yul\":8400:8403   */\n  dup3\n    /* \"#utility.yul\":8367:8404   */\n  tag_30\n  jump\t// in\ntag_149:\n    /* \"#utility.yul\":8469:8487   */\n  0xffffffffffffffff\n    /* \"#utility.yul\":8461:8467   */\n  dup2\n    /* \"#utility.yul\":8458:8488   */\n  gt\n    /* \"#utility.yul\":8455:8511   */\n  iszero\n  tag_150\n  jumpi\n    /* \"#utility.yul\":8491:8509   */\n  tag_151\n  tag_20\n  jump\t// in\ntag_151:\n    /* \"#utility.yul\":8455:8511   */\ntag_150:\n    /* \"#utility.yul\":8535:8573   */\n  tag_152\n    /* \"#utility.yul\":8567:8571   */\n  dup3\n    /* \"#utility.yul\":8561:8572   */\n  sload\n    /* \"#utility.yul\":8535:8573   */\n  tag_32\n  jump\t// in\ntag_152:\n    /* \"#utility.yul\":8620:8687   */\n  tag_153\n    /* \"#utility.yul\":8680:8686   */\n  dup3\n    /* \"#utility.yul\":8672:8678   */\n  dup3\n    /* \"#utility.yul\":8666:8670   */\n  dup6\n    /* \"#utility.yul\":8620:8687   */\n  tag_45\n  jump\t// in\ntag_153:\n    /* \"#utility.yul\":8714:8715   */\n  0x00\n    /* \"#utility.yul\":8738:8742   */\n  0x20\n    /* \"#utility.yul\":8725:8742   */\n  swap1\n  pop\n    /* \"#utility.yul\":8770:8772   */\n  0x1f\n    /* \"#utility.yul\":8762:8768   */\n  dup4\n    /* \"#utility.yul\":8759:8773   */\n  gt\n    /* \"#utility.yul\":8787:8788   */\n  0x01\n    /* \"#utility.yul\":8782:9400   */\n  dup2\n  eq\n  tag_155\n  jumpi\n    /* \"#utility.yul\":9444:9445   */\n  0x00\n    /* \"#utility.yul\":9461:9467   */\n  dup5\n    /* \"#utility.yul\":9458:9535   */\n  iszero\n  tag_156\n  jumpi\n    /* \"#utility.yul\":9510:9519   */\n  dup3\n    /* \"#utility.yul\":9505:9508   */\n  dup8\n    /* \"#utility.yul\":9501:9520   */\n  add\n    /* \"#utility.yul\":9495:9521   */\n  mload\n    /* \"#utility.yul\":9486:9521   */\n  swap1\n  pop\n    /* \"#utility.yul\":9458:9535   */\ntag_156:\n    /* \"#utility.yul\":9561:9628   */\n  tag_157\n    /* \"#utility.yul\":9621:9627   */\n  dup6\n    /* \"#utility.yul\":9614:9619   */\n  dup3\n    /* \"#utility.yul\":9561:9628   */\n  tag_48\n  jump\t// in\ntag_157:\n    /* \"#utility.yul\":9555:9559   */\n  dup7\n    /* \"#utility.yul\":9548:9629   */\n  sstore\n    /* \"#utility.yul\":9417:9639   */\n  pop\n    /* \"#utility.yul\":8752:9639   */\n  jump(tag_154)\n    /* \"#utility.yul\":8782:9400   */\ntag_155:\n    /* \"#utility.yul\":8834:8838   */\n  0x1f\n    /* \"#utility.yul\":8830:8839   */\n  not\n    /* \"#utility.yul\":8822:8828   */\n  dup5\n    /* \"#utility.yul\":8818:8840   */\n  and\n    /* \"#utility.yul\":8868:8905   */\n  tag_158\n    /* \"#utility.yul\":8900:8904   */\n  dup7\n    /* \"#utility.yul\":8868:8905   */\n  tag_33\n  jump\t// in\ntag_158:\n    /* \"#utility.yul\":8927:8928   */\n  0x00\n    /* \"#utility.yul\":8941:9149   */\ntag_159:\n    /* \"#utility.yul\":8955:8962   */\n  dup3\n    /* \"#utility.yul\":8952:8953   */\n  dup2\n    /* \"#utility.yul\":8949:8963   */\n  lt\n    /* \"#utility.yul\":8941:9149   */\n  iszero\n  tag_161\n  jumpi\n    /* \"#utility.yul\":9034:9043   */\n  dup5\n    /* \"#utility.yul\":9029:9032   */\n  dup10\n    /* \"#utility.yul\":9025:9044   */\n  add\n    /* \"#utility.yul\":9019:9045   */\n  mload\n    /* \"#utility.yul\":9011:9017   */\n  dup3\n    /* \"#utility.yul\":9004:9046   */\n  sstore\n    /* \"#utility.yul\":9085:9086   */\n  0x01\n    /* \"#utility.yul\":9077:9083   */\n  dup3\n    /* \"#utility.yul\":9073:9087   */\n  add\n    /* \"#utility.yul\":9063:9087   */\n  swap2\n  pop\n    /* \"#utility.yul\":9132:9134   */\n  0x20\n    /* \"#utility.yul\":9121:9130   */\n  dup6\n    /* \"#utility.yul\":9117:9135   */\n  add\n    /* \"#utility.yul\":9104:9135   */\n  swap5\n  pop\n    /* \"#utility.yul\":8978:8982   */\n  0x20\n    /* \"#utility.yul\":8975:8976   */\n  dup2\n    /* \"#utility.yul\":8971:8983   */\n  add\n    /* \"#utility.yul\":8966:8983   */\n  swap1\n  pop\n    /* \"#utility.yul\":8941:9149   */\n  jump(tag_159)\ntag_161:\n    /* \"#utility.yul\":9177:9183   */\n  dup7\n    /* \"#utility.yul\":9168:9175   */\n  dup4\n    /* \"#utility.yul\":9165:9184   */\n  lt\n    /* \"#utility.yul\":9162:9341   */\n  iszero\n  tag_162\n  jumpi\n    /* \"#utility.yul\":9235:9244   */\n  dup5\n    /* \"#utility.yul\":9230:9233   */\n  dup10\n    /* \"#utility.yul\":9226:9245   */\n  add\n    /* \"#utility.yul\":9220:9246   */\n  mload\n    /* \"#utility.yul\":9278:9326   */\n  tag_163\n    /* \"#utility.yul\":9320:9324   */\n  0x1f\n    /* \"#utility.yul\":9312:9318   */\n  dup10\n    /* \"#utility.yul\":9308:9325   */\n  and\n    /* \"#utility.yul\":9297:9306   */\n  dup3\n    /* \"#utility.yul\":9278:9326   */\n  tag_47\n  jump\t// in\ntag_163:\n    /* \"#utility.yul\":9270:9276   */\n  dup4\n    /* \"#utility.yul\":9263:9327   */\n  sstore\n    /* \"#utility.yul\":9185:9341   */\n  pop\n    /* \"#utility.yul\":9162:9341   */\ntag_162:\n    /* \"#utility.yul\":9387:9388   */\n  0x01\n    /* \"#utility.yul\":9383:9384   */\n  0x02\n    /* \"#utility.yul\":9375:9381   */\n  dup9\n    /* \"#utility.yul\":9371:9385   */\n  mul\n    /* \"#utility.yul\":9367:9389   */\n  add\n    /* \"#utility.yul\":9361:9365   */\n  dup9\n    /* \"#utility.yul\":9354:9390   */\n  sstore\n    /* \"#utility.yul\":8789:9400   */\n  pop\n  pop\n  pop\n    /* \"#utility.yul\":8752:9639   */\ntag_154:\n  pop\n    /* \"#utility.yul\":8342:9645   */\n  pop\n  pop\n  pop\n    /* \"#utility.yul\":8250:9645   */\n  pop\n  pop\n  jump\t// out\n    /* \"ERC20Contract.sol\":56:3283  contract ERC20 {... */\ntag_9:\n  mload(0x80)\n  codecopy(0x00, dataOffset(sub_0), dataSize(sub_0))\n  0x00\n  assignImmutable(\"0x77c32b454bb61eb9df9e3848d0ded3e59753acda90ae58befe564733aec82e4c\")\n  return(0x00, dataSize(sub_0))\nstop\n\nsub_0: assembly {\n        /* \"ERC20Contract.sol\":56:3283  contract ERC20 {... */\n      mstore(0x40, 0x80)\n      jumpi(tag_1, lt(calldatasize, 0x04))\n      shr(0xe0, calldataload(0x00))\n      dup1\n      0x8da5cb5b\n      gt\n      tag_16\n      jumpi\n      dup1\n      0xa9059cbb\n      gt\n      tag_17\n      jumpi\n      dup1\n      0xa9059cbb\n      eq\n      tag_12\n      jumpi\n      dup1\n      0xd0e30db0\n      eq\n      tag_13\n      jumpi\n      dup1\n      0xdb006a75\n      eq\n      tag_14\n      jumpi\n      dup1\n      0xdd62ed3e\n      eq\n      tag_15\n      jumpi\n      jump(tag_1)\n    tag_17:\n      dup1\n      0x8da5cb5b\n      eq\n      tag_9\n      jumpi\n      dup1\n      0x95d89b41\n      eq\n      tag_10\n      jumpi\n      dup1\n      0x9dc29fac\n      eq\n      tag_11\n      jumpi\n      jump(tag_1)\n    tag_16:\n      dup1\n      0x23b872dd\n      gt\n      tag_18\n      jumpi\n      dup1\n      0x23b872dd\n      eq\n      tag_5\n      jumpi\n      dup1\n      0x313ce567\n      eq\n      tag_6\n      jumpi\n      dup1\n      0x40c10f19\n      eq\n      tag_7\n      jumpi\n      dup1\n      0x70a08231\n      eq\n      tag_8\n      jumpi\n      jump(tag_1)\n    tag_18:\n      dup1\n      0x06fdde03\n      eq\n      tag_2\n      jumpi\n      dup1\n      0x095ea7b3\n      eq\n      tag_3\n      jumpi\n      dup1\n      0x18160ddd\n      eq\n      tag_4\n      jumpi\n    tag_1:\n      0x00\n      dup1\n      revert\n        /* \"ERC20Contract.sol\":320:338  string public name */\n    tag_2:\n      callvalue\n      dup1\n      iszero\n      tag_19\n      jumpi\n      0x00\n      dup1\n      revert\n    tag_19:\n      pop\n      tag_20\n      tag_21\n      jump\t// in\n    tag_20:\n      mload(0x40)\n      tag_22\n      swap2\n      swap1\n      tag_23\n      jump\t// in\n    tag_22:\n      mload(0x40)\n      dup1\n      swap2\n      sub\n      swap1\n      return\n        /* \"ERC20Contract.sol\":2239:2442  function approve(address spender, uint256 value) external returns (bool) {... */\n    tag_3:\n      callvalue\n      dup1\n      iszero\n      tag_24\n      jumpi\n      0x00\n      dup1\n      revert\n    tag_24:\n      pop\n      tag_25\n      0x04\n      dup1\n      calldatasize\n      sub\n      dup2\n      add\n      swap1\n      tag_26\n      swap2\n      swap1\n      tag_27\n      jump\t// in\n    tag_26:\n      tag_28\n      jump\t// in\n    tag_25:\n      mload(0x40)\n      tag_29\n      swap2\n      swap1\n      tag_30\n      jump\t// in\n    tag_29:\n      mload(0x40)\n      dup1\n      swap2\n      sub\n      swap1\n      return\n        /* \"ERC20Contract.sol\":407:433  uint256 public totalSupply */\n    tag_4:\n      callvalue\n      dup1\n      iszero\n      tag_31\n      jumpi\n      0x00\n      dup1\n      revert\n    tag_31:\n      pop\n      tag_32\n      tag_33\n      jump\t// in\n    tag_32:\n      mload(0x40)\n      tag_34\n      swap2\n      swap1\n      tag_35\n      jump\t// in\n    tag_34:\n      mload(0x40)\n      dup1\n      swap2\n      sub\n      swap1\n      return\n        /* \"ERC20Contract.sol\":1565:1926  function transferFrom(address from, address to, uint256 value) external returns (bool) {... */\n    tag_5:\n      callvalue\n      dup1\n      iszero\n      tag_36\n      jumpi\n      0x00\n      dup1\n      revert\n    tag_36:\n      pop\n      tag_37\n      0x04\n      dup1\n      calldatasize\n      sub\n      dup2\n      add\n      swap1\n      tag_38\n      swap2\n      swap1\n      tag_39\n      jump\t// in\n    tag_38:\n      tag_40\n      jump\t// in\n    tag_37:\n      mload(0x40)\n      tag_41\n      swap2\n      swap1\n      tag_30\n      jump\t// in\n    tag_41:\n      mload(0x40)\n      dup1\n      swap2\n      sub\n      swap1\n      return\n        /* \"ERC20Contract.sol\":370:401  uint8 immutable public decimals */\n    tag_6:\n      callvalue\n      dup1\n      iszero\n      tag_42\n      jumpi\n      0x00\n      dup1\n      revert\n    tag_42:\n      pop\n      tag_43\n      tag_44\n      jump\t// in\n    tag_43:\n      mload(0x40)\n      tag_45\n      swap2\n      swap1\n      tag_46\n      jump\t// in\n    tag_45:\n      mload(0x40)\n      dup1\n      swap2\n      sub\n      swap1\n      return\n        /* \"ERC20Contract.sol\":1107:1200  function mint(address to, uint256 value) external onlyOwner {... */\n    tag_7:\n      callvalue\n      dup1\n      iszero\n      tag_47\n      jumpi\n      0x00\n      dup1\n      revert\n    tag_47:\n      pop\n      tag_48\n      0x04\n      dup1\n      calldatasize\n      sub\n      dup2\n      add\n      swap1\n      tag_49\n      swap2\n      swap1\n      tag_27\n      jump\t// in\n    tag_49:\n      tag_50\n      jump\t// in\n    tag_48:\n      stop\n        /* \"ERC20Contract.sol\":467:512  mapping (address => uint256) public balanceOf */\n    tag_8:\n      callvalue\n      dup1\n      iszero\n      tag_51\n      jumpi\n      0x00\n      dup1\n      revert\n    tag_51:\n      pop\n      tag_52\n      0x04\n      dup1\n      calldatasize\n      sub\n      dup2\n      add\n      swap1\n      tag_53\n      swap2\n      swap1\n      tag_54\n      jump\t// in\n    tag_53:\n      tag_55\n      jump\t// in\n    tag_52:\n      mload(0x40)\n      tag_56\n      swap2\n      swap1\n      tag_35\n      jump\t// in\n    tag_56:\n      mload(0x40)\n      dup1\n      swap2\n      sub\n      swap1\n      return\n        /* \"ERC20Contract.sol\":440:460  address public owner */\n    tag_9:\n      callvalue\n      dup1\n      iszero\n      tag_57\n      jumpi\n      0x00\n      dup1\n      revert\n    tag_57:\n      pop\n      tag_58\n      tag_59\n      jump\t// in\n    tag_58:\n      mload(0x40)\n      tag_60\n      swap2\n      swap1\n      tag_61\n      jump\t// in\n    tag_60:\n      mload(0x40)\n      dup1\n      swap2\n      sub\n      swap1\n      return\n        /* \"ERC20Contract.sol\":344:364  string public symbol */\n    tag_10:\n      callvalue\n      dup1\n      iszero\n      tag_62\n      jumpi\n      0x00\n      dup1\n      revert\n    tag_62:\n      pop\n      tag_63\n      tag_64\n      jump\t// in\n    tag_63:\n      mload(0x40)\n      tag_65\n      swap2\n      swap1\n      tag_23\n      jump\t// in\n    tag_65:\n      mload(0x40)\n      dup1\n      swap2\n      sub\n      swap1\n      return\n        /* \"ERC20Contract.sol\":1462:1559  function burn(address from, uint256 value) external onlyOwner {... */\n    tag_11:\n      callvalue\n      dup1\n      iszero\n      tag_66\n      jumpi\n      0x00\n      dup1\n      revert\n    tag_66:\n      pop\n      tag_67\n      0x04\n      dup1\n      calldatasize\n      sub\n      dup2\n      add\n      swap1\n      tag_68\n      swap2\n      swap1\n      tag_27\n      jump\t// in\n    tag_68:\n      tag_69\n      jump\t// in\n    tag_67:\n      stop\n        /* \"ERC20Contract.sol\":795:929  function transfer(address to, uint256 value) external returns (bool) {... */\n    tag_12:\n      callvalue\n      dup1\n      iszero\n      tag_70\n      jumpi\n      0x00\n      dup1\n      revert\n    tag_70:\n      pop\n      tag_71\n      0x04\n      dup1\n      calldatasize\n      sub\n      dup2\n      add\n      swap1\n      tag_72\n      swap2\n      swap1\n      tag_27\n      jump\t// in\n    tag_72:\n      tag_73\n      jump\t// in\n    tag_71:\n      mload(0x40)\n      tag_74\n      swap2\n      swap1\n      tag_30\n      jump\t// in\n    tag_74:\n      mload(0x40)\n      dup1\n      swap2\n      sub\n      swap1\n      return\n        /* \"ERC20Contract.sol\":2518:2661  function deposit() external payable {... */\n    tag_13:\n      tag_75\n      tag_76\n      jump\t// in\n    tag_75:\n      stop\n        /* \"ERC20Contract.sol\":2723:3280  function redeem(uint256 amount) external {... */\n    tag_14:\n      callvalue\n      dup1\n      iszero\n      tag_77\n      jumpi\n      0x00\n      dup1\n      revert\n    tag_77:\n      pop\n      tag_78\n      0x04\n      dup1\n      calldatasize\n      sub\n      dup2\n      add\n      swap1\n      tag_79\n      swap2\n      swap1\n      tag_80\n      jump\t// in\n    tag_79:\n      tag_81\n      jump\t// in\n    tag_78:\n      stop\n        /* \"ERC20Contract.sol\":518:583  mapping (address => mapping(address => uint256)) public allowance */\n    tag_15:\n      callvalue\n      dup1\n      iszero\n      tag_82\n      jumpi\n      0x00\n      dup1\n      revert\n    tag_82:\n      pop\n      tag_83\n      0x04\n      dup1\n      calldatasize\n      sub\n      dup2\n      add\n      swap1\n      tag_84\n      swap2\n      swap1\n      tag_85\n      jump\t// in\n    tag_84:\n      tag_86\n      jump\t// in\n    tag_83:\n      mload(0x40)\n      tag_87\n      swap2\n      swap1\n      tag_35\n      jump\t// in\n    tag_87:\n      mload(0x40)\n      dup1\n      swap2\n      sub\n      swap1\n      return\n        /* \"ERC20Contract.sol\":320:338  string public name */\n    tag_21:\n      0x00\n      dup1\n      sload\n      tag_88\n      swap1\n      tag_89\n      jump\t// in\n    tag_88:\n      dup1\n      0x1f\n      add\n      0x20\n      dup1\n      swap2\n      div\n      mul\n      0x20\n      add\n      mload(0x40)\n      swap1\n      dup2\n      add\n      0x40\n      mstore\n      dup1\n      swap3\n      swap2\n      swap1\n      dup2\n      dup2\n      mstore\n      0x20\n      add\n      dup3\n      dup1\n      sload\n      tag_90\n      swap1\n      tag_89\n      jump\t// in\n    tag_90:\n      dup1\n      iszero\n      tag_91\n      jumpi\n      dup1\n      0x1f\n      lt\n      tag_92\n      jumpi\n      0x0100\n      dup1\n      dup4\n      sload\n      div\n      mul\n      dup4\n      mstore\n      swap2\n      0x20\n      add\n      swap2\n      jump(tag_91)\n    tag_92:\n      dup3\n      add\n      swap2\n      swap1\n      0x00\n      mstore\n      keccak256(0x00, 0x20)\n      swap1\n    tag_93:\n      dup2\n      sload\n      dup2\n      mstore\n      swap1\n      0x01\n      add\n      swap1\n      0x20\n      add\n      dup1\n      dup4\n      gt\n      tag_93\n      jumpi\n      dup3\n      swap1\n      sub\n      0x1f\n      and\n      dup3\n      add\n      swap2\n    tag_91:\n      pop\n      pop\n      pop\n      pop\n      pop\n      dup2\n      jump\t// out\n        /* \"ERC20Contract.sol\":2239:2442  function approve(address spender, uint256 value) external returns (bool) {... */\n    tag_28:\n        /* \"ERC20Contract.sol\":2306:2310  bool */\n      0x00\n        /* \"ERC20Contract.sol\":2356:2361  value */\n      dup2\n        /* \"ERC20Contract.sol\":2322:2331  allowance */\n      0x05\n        /* \"ERC20Contract.sol\":2322:2343  allowance[msg.sender] */\n      0x00\n        /* \"ERC20Contract.sol\":2332:2342  msg.sender */\n      caller\n        /* \"ERC20Contract.sol\":2322:2343  allowance[msg.sender] */\n      0xffffffffffffffffffffffffffffffffffffffff\n      and\n      0xffffffffffffffffffffffffffffffffffffffff\n      and\n      dup2\n      mstore\n      0x20\n      add\n      swap1\n      dup2\n      mstore\n      0x20\n      add\n      0x00\n      keccak256\n        /* \"ERC20Contract.sol\":2322:2352  allowance[msg.sender][spender] */\n      0x00\n        /* \"ERC20Contract.sol\":2344:2351  spender */\n      dup6\n        /* \"ERC20Contract.sol\":2322:2352  allowance[msg.sender][spender] */\n      0xffffffffffffffffffffffffffffffffffffffff\n      and\n      0xffffffffffffffffffffffffffffffffffffffff\n      and\n      dup2\n      mstore\n      0x20\n      add\n      swap1\n      dup2\n      mstore\n      0x20\n      add\n      0x00\n      keccak256\n      0x00\n        /* \"ERC20Contract.sol\":2322:2361  allowance[msg.sender][spender] += value */\n      dup3\n      dup3\n      sload\n      tag_95\n      swap2\n      swap1\n      tag_96\n      jump\t// in\n    tag_95:\n      swap3\n      pop\n      pop\n      dup2\n      swap1\n      sstore\n      pop\n        /* \"ERC20Contract.sol\":2398:2405  spender */\n      dup3\n        /* \"ERC20Contract.sol\":2377:2413  Approval(msg.sender, spender, value) */\n      0xffffffffffffffffffffffffffffffffffffffff\n      and\n        /* \"ERC20Contract.sol\":2386:2396  msg.sender */\n      caller\n        /* \"ERC20Contract.sol\":2377:2413  Approval(msg.sender, spender, value) */\n      0xffffffffffffffffffffffffffffffffffffffff\n      and\n      0x8c5be1e5ebec7d5bd14f71427d1e84f3dd0314c0f7b2291e5b200ac8c7c3b925\n        /* \"ERC20Contract.sol\":2407:2412  value */\n      dup5\n        /* \"ERC20Contract.sol\":2377:2413  Approval(msg.sender, spender, value) */\n      mload(0x40)\n      tag_97\n      swap2\n      swap1\n      tag_35\n      jump\t// in\n    tag_97:\n      mload(0x40)\n      dup1\n      swap2\n      sub\n      swap1\n      log3\n        /* \"ERC20Contract.sol\":2431:2435  true */\n      0x01\n        /* \"ERC20Contract.sol\":2424:2435  return true */\n      swap1\n      pop\n        /* \"ERC20Contract.sol\":2239:2442  function approve(address spender, uint256 value) external returns (bool) {... */\n      swap3\n      swap2\n      pop\n      pop\n      jump\t// out\n        /* \"ERC20Contract.sol\":407:433  uint256 public totalSupply */\n    tag_33:\n      sload(0x02)\n      dup2\n      jump\t// out\n        /* \"ERC20Contract.sol\":1565:1926  function transferFrom(address from, address to, uint256 value) external returns (bool) {... */\n    tag_40:\n        /* \"ERC20Contract.sol\":1646:1650  bool */\n      0x00\n        /* \"ERC20Contract.sol\":1701:1706  value */\n      dup2\n        /* \"ERC20Contract.sol\":1670:1679  allowance */\n      0x05\n        /* \"ERC20Contract.sol\":1670:1685  allowance[from] */\n      0x00\n        /* \"ERC20Contract.sol\":1680:1684  from */\n      dup7\n        /* \"ERC20Contract.sol\":1670:1685  allowance[from] */\n      0xffffffffffffffffffffffffffffffffffffffff\n      and\n      0xffffffffffffffffffffffffffffffffffffffff\n      and\n      dup2\n      mstore\n      0x20\n      add\n      swap1\n      dup2\n      mstore\n      0x20\n      add\n      0x00\n      keccak256\n        /* \"ERC20Contract.sol\":1670:1697  allowance[from][msg.sender] */\n      0x00\n        /* \"ERC20Contract.sol\":1686:1696  msg.sender */\n      caller\n        /* \"ERC20Contract.sol\":1670:1697  allowance[from][msg.sender] */\n      0xffffffffffffffffffffffffffffffffffffffff\n      and\n      0xffffffffffffffffffffffffffffffffffffffff\n      and\n      dup2\n      mstore\n      0x20\n      add\n      swap1\n      dup2\n      mstore\n      0x20\n      add\n      0x00\n      keccak256\n      sload\n        /* \"ERC20Contract.sol\":1670:1706  allowance[from][msg.sender] >= value */\n      lt\n      iszero\n        /* \"ERC20Contract.sol\":1662:1740  require(allowance[from][msg.sender] >= value, \"ERC20: Insufficient Allowance\") */\n      tag_99\n      jumpi\n      mload(0x40)\n      0x08c379a000000000000000000000000000000000000000000000000000000000\n      dup2\n      mstore\n      0x04\n      add\n      tag_100\n      swap1\n      tag_101\n      jump\t// in\n    tag_100:\n      mload(0x40)\n      dup1\n      swap2\n      sub\n      swap1\n      revert\n    tag_99:\n        /* \"ERC20Contract.sol\":1791:1796  value */\n      dup2\n        /* \"ERC20Contract.sol\":1760:1769  allowance */\n      0x05\n        /* \"ERC20Contract.sol\":1760:1775  allowance[from] */\n      0x00\n        /* \"ERC20Contract.sol\":1770:1774  from */\n      dup7\n        /* \"ERC20Contract.sol\":1760:1775  allowance[from] */\n      0xffffffffffffffffffffffffffffffffffffffff\n      and\n      0xffffffffffffffffffffffffffffffffffffffff\n      and\n      dup2\n      mstore\n      0x20\n      add\n      swap1\n      dup2\n      mstore\n      0x20\n      add\n      0x00\n      keccak256\n        /* \"ERC20Contract.sol\":1760:1787  allowance[from][msg.sender] */\n      0x00\n        /* \"ERC20Contract.sol\":1776:1786  msg.sender */\n      caller\n        /* \"ERC20Contract.sol\":1760:1787  allowance[from][msg.sender] */\n      0xffffffffffffffffffffffffffffffffffffffff\n      and\n      0xffffffffffffffffffffffffffffffffffffffff\n      and\n      dup2\n      mstore\n      0x20\n      add\n      swap1\n      dup2\n      mstore\n      0x20\n      add\n      0x00\n      keccak256\n      0x00\n        /* \"ERC20Contract.sol\":1760:1796  allowance[from][msg.sender] -= value */\n      dup3\n      dup3\n      sload\n      tag_102\n      swap2\n      swap1\n      tag_103\n      jump\t// in\n    tag_102:\n      swap3\n      pop\n      pop\n      dup2\n      swap1\n      sstore\n      pop\n        /* \"ERC20Contract.sol\":1835:1845  msg.sender */\n      caller\n        /* \"ERC20Contract.sol\":1820:1875  Approval(from, msg.sender, allowance[from][msg.sender]) */\n      0xffffffffffffffffffffffffffffffffffffffff\n      and\n        /* \"ERC20Contract.sol\":1829:1833  from */\n      dup5\n        /* \"ERC20Contract.sol\":1820:1875  Approval(from, msg.sender, allowance[from][msg.sender]) */\n      0xffffffffffffffffffffffffffffffffffffffff\n      and\n      0x8c5be1e5ebec7d5bd14f71427d1e84f3dd0314c0f7b2291e5b200ac8c7c3b925\n        /* \"ERC20Contract.sol\":1847:1856  allowance */\n      0x05\n        /* \"ERC20Contract.sol\":1847:1862  allowance[from] */\n      0x00\n        /* \"ERC20Contract.sol\":1857:1861  from */\n      dup9\n        /* \"ERC20Contract.sol\":1847:1862  allowance[from] */\n      0xffffffffffffffffffffffffffffffffffffffff\n      and\n      0xffffffffffffffffffffffffffffffffffffffff\n      and\n      dup2\n      mstore\n      0x20\n      add\n      swap1\n      dup2\n      mstore\n      0x20\n      add\n      0x00\n      keccak256\n        /* \"ERC20Contract.sol\":1847:1874  allowance[from][msg.sender] */\n      0x00\n        /* \"ERC20Contract.sol\":1863:1873  msg.sender */\n      caller\n        /* \"ERC20Contract.sol\":1847:1874  allowance[from][msg.sender] */\n      0xffffffffffffffffffffffffffffffffffffffff\n      and\n      0xffffffffffffffffffffffffffffffffffffffff\n      and\n      dup2\n      mstore\n      0x20\n      add\n      swap1\n      dup2\n      mstore\n      0x20\n      add\n      0x00\n      keccak256\n      sload\n        /* \"ERC20Contract.sol\":1820:1875  Approval(from, msg.sender, allowance[from][msg.sender]) */\n      mload(0x40)\n      tag_104\n      swap2\n      swap1\n      tag_35\n      jump\t// in\n    tag_104:\n      mload(0x40)\n      dup1\n      swap2\n      sub\n      swap1\n      log3\n        /* \"ERC20Contract.sol\":1893:1919  _transfer(from, to, value) */\n      tag_105\n        /* \"ERC20Contract.sol\":1903:1907  from */\n      dup5\n        /* \"ERC20Contract.sol\":1909:1911  to */\n      dup5\n        /* \"ERC20Contract.sol\":1913:1918  value */\n      dup5\n        /* \"ERC20Contract.sol\":1893:1902  _transfer */\n      tag_106\n        /* \"ERC20Contract.sol\":1893:1919  _transfer(from, to, value) */\n      jump\t// in\n    tag_105:\n        /* \"ERC20Contract.sol\":1886:1919  return _transfer(from, to, value) */\n      swap1\n      pop\n        /* \"ERC20Contract.sol\":1565:1926  function transferFrom(address from, address to, uint256 value) external returns (bool) {... */\n      swap4\n      swap3\n      pop\n      pop\n      pop\n      jump\t// out\n        /* \"ERC20Contract.sol\":370:401  uint8 immutable public decimals */\n    tag_44:\n      immutable(\"0x77c32b454bb61eb9df9e3848d0ded3e59753acda90ae58befe564733aec82e4c\")\n      dup2\n      jump\t// out\n        /* \"ERC20Contract.sol\":1107:1200  function mint(address to, uint256 value) external onlyOwner {... */\n    tag_50:\n        /* \"ERC20Contract.sol\":128:133  owner */\n      0x03\n      0x00\n      swap1\n      sload\n      swap1\n      0x0100\n      exp\n      swap1\n      div\n      0xffffffffffffffffffffffffffffffffffffffff\n      and\n        /* \"ERC20Contract.sol\":114:133  msg.sender == owner */\n      0xffffffffffffffffffffffffffffffffffffffff\n      and\n        /* \"ERC20Contract.sol\":114:124  msg.sender */\n      caller\n        /* \"ERC20Contract.sol\":114:133  msg.sender == owner */\n      0xffffffffffffffffffffffffffffffffffffffff\n      and\n      eq\n        /* \"ERC20Contract.sol\":106:134  require(msg.sender == owner) */\n      tag_108\n      jumpi\n      0x00\n      dup1\n      revert\n    tag_108:\n        /* \"ERC20Contract.sol\":1177:1193  _mint(to, value) */\n      tag_110\n        /* \"ERC20Contract.sol\":1183:1185  to */\n      dup3\n        /* \"ERC20Contract.sol\":1187:1192  value */\n      dup3\n        /* \"ERC20Contract.sol\":1177:1182  _mint */\n      tag_111\n        /* \"ERC20Contract.sol\":1177:1193  _mint(to, value) */\n      jump\t// in\n    tag_110:\n        /* \"ERC20Contract.sol\":1107:1200  function mint(address to, uint256 value) external onlyOwner {... */\n      pop\n      pop\n      jump\t// out\n        /* \"ERC20Contract.sol\":467:512  mapping (address => uint256) public balanceOf */\n    tag_55:\n      mstore(0x20, 0x04)\n      dup1\n      0x00\n      mstore\n      keccak256(0x00, 0x40)\n      0x00\n      swap2\n      pop\n      swap1\n      pop\n      sload\n      dup2\n      jump\t// out\n        /* \"ERC20Contract.sol\":440:460  address public owner */\n    tag_59:\n      0x03\n      0x00\n      swap1\n      sload\n      swap1\n      0x0100\n      exp\n      swap1\n      div\n      0xffffffffffffffffffffffffffffffffffffffff\n      and\n      dup2\n      jump\t// out\n        /* \"ERC20Contract.sol\":344:364  string public symbol */\n    tag_64:\n      0x01\n      dup1\n      sload\n      tag_112\n      swap1\n      tag_89\n      jump\t// in\n    tag_112:\n      dup1\n      0x1f\n      add\n      0x20\n      dup1\n      swap2\n      div\n      mul\n      0x20\n      add\n      mload(0x40)\n      swap1\n      dup2\n      add\n      0x40\n      mstore\n      dup1\n      swap3\n      swap2\n      swap1\n      dup2\n      dup2\n      mstore\n      0x20\n      add\n      dup3\n      dup1\n      sload\n      tag_113\n      swap1\n      tag_89\n      jump\t// in\n    tag_113:\n      dup1\n      iszero\n      tag_114\n      jumpi\n      dup1\n      0x1f\n      lt\n      tag_115\n      jumpi\n      0x0100\n      dup1\n      dup4\n      sload\n      div\n      mul\n      dup4\n      mstore\n      swap2\n      0x20\n      add\n      swap2\n      jump(tag_114)\n    tag_115:\n      dup3\n      add\n      swap2\n      swap1\n      0x00\n      mstore\n      keccak256(0x00, 0x20)\n      swap1\n    tag_116:\n      dup2\n      sload\n      dup2\n      mstore\n      swap1\n      0x01\n      add\n      swap1\n      0x20\n      add\n      dup1\n      dup4\n      gt\n      tag_116\n      jumpi\n      dup3\n      swap1\n      sub\n      0x1f\n      and\n      dup3\n      add\n      swap2\n    tag_114:\n      pop\n      pop\n      pop\n      pop\n      pop\n      dup2\n      jump\t// out\n        /* \"ERC20Contract.sol\":1462:1559  function burn(address from, uint256 value) external onlyOwner {... */\n    tag_69:\n        /* \"ERC20Contract.sol\":128:133  owner */\n      0x03\n      0x00\n      swap1\n      sload\n      swap1\n      0x0100\n      exp\n      swap1\n      div\n      0xffffffffffffffffffffffffffffffffffffffff\n      and\n        /* \"ERC20Contract.sol\":114:133  msg.sender == owner */\n      0xffffffffffffffffffffffffffffffffffffffff\n      and\n        /* \"ERC20Contract.sol\":114:124  msg.sender */\n      caller\n        /* \"ERC20Contract.sol\":114:133  msg.sender == owner */\n      0xffffffffffffffffffffffffffffffffffffffff\n      and\n      eq\n        /* \"ERC20Contract.sol\":106:134  require(msg.sender == owner) */\n      tag_118\n      jumpi\n      0x00\n      dup1\n      revert\n    tag_118:\n        /* \"ERC20Contract.sol\":1534:1552  _burn(from, value) */\n      tag_120\n        /* \"ERC20Contract.sol\":1540:1544  from */\n      dup3\n        /* \"ERC20Contract.sol\":1546:1551  value */\n      dup3\n        /* \"ERC20Contract.sol\":1534:1539  _burn */\n      tag_121\n        /* \"ERC20Contract.sol\":1534:1552  _burn(from, value) */\n      jump\t// in\n    tag_120:\n        /* \"ERC20Contract.sol\":1462:1559  function burn(address from, uint256 value) external onlyOwner {... */\n      pop\n      pop\n      jump\t// out\n        /* \"ERC20Contract.sol\":795:929  function transfer(address to, uint256 value) external returns (bool) {... */\n    tag_73:\n        /* \"ERC20Contract.sol\":858:862  bool */\n      0x00\n        /* \"ERC20Contract.sol\":890:922  _transfer(msg.sender, to, value) */\n      tag_123\n        /* \"ERC20Contract.sol\":900:910  msg.sender */\n      caller\n        /* \"ERC20Contract.sol\":912:914  to */\n      dup5\n        /* \"ERC20Contract.sol\":916:921  value */\n      dup5\n        /* \"ERC20Contract.sol\":890:899  _transfer */\n      tag_106\n        /* \"ERC20Contract.sol\":890:922  _transfer(msg.sender, to, value) */\n      jump\t// in\n    tag_123:\n        /* \"ERC20Contract.sol\":883:922  return _transfer(msg.sender, to, value) */\n      swap1\n      pop\n        /* \"ERC20Contract.sol\":795:929  function transfer(address to, uint256 value) external returns (bool) {... */\n      swap3\n      swap2\n      pop\n      pop\n      jump\t// out\n        /* \"ERC20Contract.sol\":2518:2661  function deposit() external payable {... */\n    tag_76:\n        /* \"ERC20Contract.sol\":2584:2585  0 */\n      0x00\n        /* \"ERC20Contract.sol\":2572:2581  msg.value */\n      callvalue\n        /* \"ERC20Contract.sol\":2572:2585  msg.value > 0 */\n      gt\n        /* \"ERC20Contract.sol\":2564:2616  require(msg.value > 0, \"Must send Ether to deposit\") */\n      tag_125\n      jumpi\n      mload(0x40)\n      0x08c379a000000000000000000000000000000000000000000000000000000000\n      dup2\n      mstore\n      0x04\n      add\n      tag_126\n      swap1\n      tag_127\n      jump\t// in\n    tag_126:\n      mload(0x40)\n      dup1\n      swap2\n      sub\n      swap1\n      revert\n    tag_125:\n        /* \"ERC20Contract.sol\":2626:2654  _mint(msg.sender, msg.value) */\n      tag_128\n        /* \"ERC20Contract.sol\":2632:2642  msg.sender */\n      caller\n        /* \"ERC20Contract.sol\":2644:2653  msg.value */\n      callvalue\n        /* \"ERC20Contract.sol\":2626:2631  _mint */\n      tag_111\n        /* \"ERC20Contract.sol\":2626:2654  _mint(msg.sender, msg.value) */\n      jump\t// in\n    tag_128:\n        /* \"ERC20Contract.sol\":2518:2661  function deposit() external payable {... */\n      jump\t// out\n        /* \"ERC20Contract.sol\":2723:3280  function redeem(uint256 amount) external {... */\n    tag_81:\n        /* \"ERC20Contract.sol\":2822:2828  amount */\n      dup1\n        /* \"ERC20Contract.sol\":2782:2791  allowance */\n      0x05\n        /* \"ERC20Contract.sol\":2782:2803  allowance[msg.sender] */\n      0x00\n        /* \"ERC20Contract.sol\":2792:2802  msg.sender */\n      caller\n        /* \"ERC20Contract.sol\":2782:2803  allowance[msg.sender] */\n      0xffffffffffffffffffffffffffffffffffffffff\n      and\n      0xffffffffffffffffffffffffffffffffffffffff\n      and\n      dup2\n      mstore\n      0x20\n      add\n      swap1\n      dup2\n      mstore\n      0x20\n      add\n      0x00\n      keccak256\n        /* \"ERC20Contract.sol\":2782:2818  allowance[msg.sender][address(this)] */\n      0x00\n        /* \"ERC20Contract.sol\":2812:2816  this */\n      address\n        /* \"ERC20Contract.sol\":2782:2818  allowance[msg.sender][address(this)] */\n      0xffffffffffffffffffffffffffffffffffffffff\n      and\n      0xffffffffffffffffffffffffffffffffffffffff\n      and\n      dup2\n      mstore\n      0x20\n      add\n      swap1\n      dup2\n      mstore\n      0x20\n      add\n      0x00\n      keccak256\n      sload\n        /* \"ERC20Contract.sol\":2782:2828  allowance[msg.sender][address(this)] >= amount */\n      lt\n      iszero\n        /* \"ERC20Contract.sol\":2774:2870  require(allowance[msg.sender][address(this)] >= amount, \"Contract not approved to spend tokens\") */\n      tag_130\n      jumpi\n      mload(0x40)\n      0x08c379a000000000000000000000000000000000000000000000000000000000\n      dup2\n      mstore\n      0x04\n      add\n      tag_131\n      swap1\n      tag_132\n      jump\t// in\n    tag_131:\n      mload(0x40)\n      dup1\n      swap2\n      sub\n      swap1\n      revert\n    tag_130:\n        /* \"ERC20Contract.sol\":2913:2919  amount */\n      dup1\n        /* \"ERC20Contract.sol\":2888:2897  balanceOf */\n      0x04\n        /* \"ERC20Contract.sol\":2888:2909  balanceOf[msg.sender] */\n      0x00\n        /* \"ERC20Contract.sol\":2898:2908  msg.sender */\n      caller\n        /* \"ERC20Contract.sol\":2888:2909  balanceOf[msg.sender] */\n      0xffffffffffffffffffffffffffffffffffffffff\n      and\n      0xffffffffffffffffffffffffffffffffffffffff\n      and\n      dup2\n      mstore\n      0x20\n      add\n      swap1\n      dup2\n      mstore\n      0x20\n      add\n      0x00\n      keccak256\n      sload\n        /* \"ERC20Contract.sol\":2888:2919  balanceOf[msg.sender] >= amount */\n      lt\n      iszero\n        /* \"ERC20Contract.sol\":2880:2941  require(balanceOf[msg.sender] >= amount, \"Not enough tokens\") */\n      tag_133\n      jumpi\n      mload(0x40)\n      0x08c379a000000000000000000000000000000000000000000000000000000000\n      dup2\n      mstore\n      0x04\n      add\n      tag_134\n      swap1\n      tag_135\n      jump\t// in\n    tag_134:\n      mload(0x40)\n      dup1\n      swap2\n      sub\n      swap1\n      revert\n    tag_133:\n        /* \"ERC20Contract.sol\":3035:3041  amount */\n      dup1\n        /* \"ERC20Contract.sol\":2995:3004  allowance */\n      0x05\n        /* \"ERC20Contract.sol\":2995:3016  allowance[msg.sender] */\n      0x00\n        /* \"ERC20Contract.sol\":3005:3015  msg.sender */\n      caller\n        /* \"ERC20Contract.sol\":2995:3016  allowance[msg.sender] */\n      0xffffffffffffffffffffffffffffffffffffffff\n      and\n      0xffffffffffffffffffffffffffffffffffffffff\n      and\n      dup2\n      mstore\n      0x20\n      add\n      swap1\n      dup2\n      mstore\n      0x20\n      add\n      0x00\n      keccak256\n        /* \"ERC20Contract.sol\":2995:3031  allowance[msg.sender][address(this)] */\n      0x00\n        /* \"ERC20Contract.sol\":3025:3029  this */\n      address\n        /* \"ERC20Contract.sol\":2995:3031  allowance[msg.sender][address(this)] */\n      0xffffffffffffffffffffffffffffffffffffffff\n      and\n      0xffffffffffffffffffffffffffffffffffffffff\n      and\n      dup2\n      mstore\n      0x20\n      add\n      swap1\n      dup2\n      mstore\n      0x20\n      add\n      0x00\n      keccak256\n      0x00\n        /* \"ERC20Contract.sol\":2995:3041  allowance[msg.sender][address(this)] -= amount */\n      dup3\n      dup3\n      sload\n      tag_136\n      swap2\n      swap1\n      tag_103\n      jump\t// in\n    tag_136:\n      swap3\n      pop\n      pop\n      dup2\n      swap1\n      sstore\n      pop\n        /* \"ERC20Contract.sol\":3051:3095  _transfer(msg.sender, address(this), amount) */\n      tag_137\n        /* \"ERC20Contract.sol\":3061:3071  msg.sender */\n      caller\n        /* \"ERC20Contract.sol\":3081:3085  this */\n      address\n        /* \"ERC20Contract.sol\":3088:3094  amount */\n      dup4\n        /* \"ERC20Contract.sol\":3051:3060  _transfer */\n      tag_106\n        /* \"ERC20Contract.sol\":3051:3095  _transfer(msg.sender, address(this), amount) */\n      jump\t// in\n    tag_137:\n      pop\n        /* \"ERC20Contract.sol\":3161:3189  _burn(address(this), amount) */\n      tag_138\n        /* \"ERC20Contract.sol\":3175:3179  this */\n      address\n        /* \"ERC20Contract.sol\":3182:3188  amount */\n      dup3\n        /* \"ERC20Contract.sol\":3161:3166  _burn */\n      tag_121\n        /* \"ERC20Contract.sol\":3161:3189  _burn(address(this), amount) */\n      jump\t// in\n    tag_138:\n        /* \"ERC20Contract.sol\":3245:3255  msg.sender */\n      caller\n        /* \"ERC20Contract.sol\":3237:3265  payable(msg.sender).transfer */\n      0xffffffffffffffffffffffffffffffffffffffff\n      and\n        /* \"ERC20Contract.sol\":3237:3273  payable(msg.sender).transfer(amount) */\n      0x08fc\n        /* \"ERC20Contract.sol\":3266:3272  amount */\n      dup3\n        /* \"ERC20Contract.sol\":3237:3273  payable(msg.sender).transfer(amount) */\n      swap1\n      dup2\n      iszero\n      mul\n      swap1\n      mload(0x40)\n      0x00\n      mload(0x40)\n      dup1\n      dup4\n      sub\n      dup2\n      dup6\n      dup9\n      dup9\n      call\n      swap4\n      pop\n      pop\n      pop\n      pop\n      iszero\n      dup1\n      iszero\n      tag_140\n      jumpi\n      returndatasize\n      0x00\n      dup1\n      returndatacopy\n      revert(0x00, returndatasize)\n    tag_140:\n      pop\n        /* \"ERC20Contract.sol\":2723:3280  function redeem(uint256 amount) external {... */\n      pop\n      jump\t// out\n        /* \"ERC20Contract.sol\":518:583  mapping (address => mapping(address => uint256)) public allowance */\n    tag_86:\n      mstore(0x20, 0x05)\n      dup2\n      0x00\n      mstore\n      mstore(0x20, keccak256(0x00, 0x40))\n      dup1\n      0x00\n      mstore\n      keccak256(0x00, 0x40)\n      0x00\n      swap2\n      pop\n      swap2\n      pop\n      pop\n      sload\n      dup2\n      jump\t// out\n        /* \"ERC20Contract.sol\":1932:2233  function _transfer(address from, address to, uint256 value) private returns (bool) {... */\n    tag_106:\n        /* \"ERC20Contract.sol\":2009:2013  bool */\n      0x00\n        /* \"ERC20Contract.sol\":2052:2057  value */\n      dup2\n        /* \"ERC20Contract.sol\":2033:2042  balanceOf */\n      0x04\n        /* \"ERC20Contract.sol\":2033:2048  balanceOf[from] */\n      0x00\n        /* \"ERC20Contract.sol\":2043:2047  from */\n      dup7\n        /* \"ERC20Contract.sol\":2033:2048  balanceOf[from] */\n      0xffffffffffffffffffffffffffffffffffffffff\n      and\n      0xffffffffffffffffffffffffffffffffffffffff\n      and\n      dup2\n      mstore\n      0x20\n      add\n      swap1\n      dup2\n      mstore\n      0x20\n      add\n      0x00\n      keccak256\n      sload\n        /* \"ERC20Contract.sol\":2033:2057  balanceOf[from] >= value */\n      lt\n      iszero\n        /* \"ERC20Contract.sol\":2025:2096  require(balanceOf[from] >= value, \"ERC20: Insufficient sender balance\") */\n      tag_142\n      jumpi\n      mload(0x40)\n      0x08c379a000000000000000000000000000000000000000000000000000000000\n      dup2\n      mstore\n      0x04\n      add\n      tag_143\n      swap1\n      tag_144\n      jump\t// in\n    tag_143:\n      mload(0x40)\n      dup1\n      swap2\n      sub\n      swap1\n      revert\n    tag_142:\n        /* \"ERC20Contract.sol\":2126:2131  value */\n      dup2\n        /* \"ERC20Contract.sol\":2107:2116  balanceOf */\n      0x04\n        /* \"ERC20Contract.sol\":2107:2122  balanceOf[from] */\n      0x00\n        /* \"ERC20Contract.sol\":2117:2121  from */\n      dup7\n        /* \"ERC20Contract.sol\":2107:2122  balanceOf[from] */\n      0xffffffffffffffffffffffffffffffffffffffff\n      and\n      0xffffffffffffffffffffffffffffffffffffffff\n      and\n      dup2\n      mstore\n      0x20\n      add\n      swap1\n      dup2\n      mstore\n      0x20\n      add\n      0x00\n      keccak256\n      0x00\n        /* \"ERC20Contract.sol\":2107:2131  balanceOf[from] -= value */\n      dup3\n      dup3\n      sload\n      tag_145\n      swap2\n      swap1\n      tag_103\n      jump\t// in\n    tag_145:\n      swap3\n      pop\n      pop\n      dup2\n      swap1\n      sstore\n      pop\n        /* \"ERC20Contract.sol\":2158:2163  value */\n      dup2\n        /* \"ERC20Contract.sol\":2141:2150  balanceOf */\n      0x04\n        /* \"ERC20Contract.sol\":2141:2154  balanceOf[to] */\n      0x00\n        /* \"ERC20Contract.sol\":2151:2153  to */\n      dup6\n        /* \"ERC20Contract.sol\":2141:2154  balanceOf[to] */\n      0xffffffffffffffffffffffffffffffffffffffff\n      and\n      0xffffffffffffffffffffffffffffffffffffffff\n      and\n      dup2\n      mstore\n      0x20\n      add\n      swap1\n      dup2\n      mstore\n      0x20\n      add\n      0x00\n      keccak256\n      0x00\n        /* \"ERC20Contract.sol\":2141:2163  balanceOf[to] += value */\n      dup3\n      dup3\n      sload\n      tag_146\n      swap2\n      swap1\n      tag_96\n      jump\t// in\n    tag_146:\n      swap3\n      pop\n      pop\n      dup2\n      swap1\n      sstore\n      pop\n        /* \"ERC20Contract.sol\":2194:2196  to */\n      dup3\n        /* \"ERC20Contract.sol\":2179:2204  Transfer(from, to, value) */\n      0xffffffffffffffffffffffffffffffffffffffff\n      and\n        /* \"ERC20Contract.sol\":2188:2192  from */\n      dup5\n        /* \"ERC20Contract.sol\":2179:2204  Transfer(from, to, value) */\n      0xffffffffffffffffffffffffffffffffffffffff\n      and\n      0xddf252ad1be2c89b69c2b068fc378daa952ba7f163c4a11628f55a4df523b3ef\n        /* \"ERC20Contract.sol\":2198:2203  value */\n      dup5\n        /* \"ERC20Contract.sol\":2179:2204  Transfer(from, to, value) */\n      mload(0x40)\n      tag_147\n      swap2\n      swap1\n      tag_35\n      jump\t// in\n    tag_147:\n      mload(0x40)\n      dup1\n      swap2\n      sub\n      swap1\n      log3\n        /* \"ERC20Contract.sol\":2222:2226  true */\n      0x01\n        /* \"ERC20Contract.sol\":2215:2226  return true */\n      swap1\n      pop\n        /* \"ERC20Contract.sol\":1932:2233  function _transfer(address from, address to, uint256 value) private returns (bool) {... */\n      swap4\n      swap3\n      pop\n      pop\n      pop\n      jump\t// out\n        /* \"ERC20Contract.sol\":935:1101  function _mint(address to, uint256 value) private {... */\n    tag_111:\n        /* \"ERC20Contract.sol\":1012:1017  value */\n      dup1\n        /* \"ERC20Contract.sol\":995:1004  balanceOf */\n      0x04\n        /* \"ERC20Contract.sol\":995:1008  balanceOf[to] */\n      0x00\n        /* \"ERC20Contract.sol\":1005:1007  to */\n      dup5\n        /* \"ERC20Contract.sol\":995:1008  balanceOf[to] */\n      0xffffffffffffffffffffffffffffffffffffffff\n      and\n      0xffffffffffffffffffffffffffffffffffffffff\n      and\n      dup2\n      mstore\n      0x20\n      add\n      swap1\n      dup2\n      mstore\n      0x20\n      add\n      0x00\n      keccak256\n      0x00\n        /* \"ERC20Contract.sol\":995:1017  balanceOf[to] += value */\n      dup3\n      dup3\n      sload\n      tag_149\n      swap2\n      swap1\n      tag_96\n      jump\t// in\n    tag_149:\n      swap3\n      pop\n      pop\n      dup2\n      swap1\n      sstore\n      pop\n        /* \"ERC20Contract.sol\":1042:1047  value */\n      dup1\n        /* \"ERC20Contract.sol\":1027:1038  totalSupply */\n      0x02\n      0x00\n        /* \"ERC20Contract.sol\":1027:1047  totalSupply += value */\n      dup3\n      dup3\n      sload\n      tag_150\n      swap2\n      swap1\n      tag_96\n      jump\t// in\n    tag_150:\n      swap3\n      pop\n      pop\n      dup2\n      swap1\n      sstore\n      pop\n        /* \"ERC20Contract.sol\":1084:1086  to */\n      dup2\n        /* \"ERC20Contract.sol\":1063:1094  Transfer(address(0), to, value) */\n      0xffffffffffffffffffffffffffffffffffffffff\n      and\n        /* \"ERC20Contract.sol\":1080:1081  0 */\n      0x00\n        /* \"ERC20Contract.sol\":1063:1094  Transfer(address(0), to, value) */\n      0xffffffffffffffffffffffffffffffffffffffff\n      and\n      0xddf252ad1be2c89b69c2b068fc378daa952ba7f163c4a11628f55a4df523b3ef\n        /* \"ERC20Contract.sol\":1088:1093  value */\n      dup4\n        /* \"ERC20Contract.sol\":1063:1094  Transfer(address(0), to, value) */\n      mload(0x40)\n      tag_151\n      swap2\n      swap1\n      tag_35\n      jump\t// in\n    tag_151:\n      mload(0x40)\n      dup1\n      swap2\n      sub\n      swap1\n      log3\n        /* \"ERC20Contract.sol\":935:1101  function _mint(address to, uint256 value) private {... */\n      pop\n      pop\n      jump\t// out\n        /* \"ERC20Contract.sol\":1206:1456  function _burn(address from, uint256 value) private {... */\n    tag_121:\n        /* \"ERC20Contract.sol\":1294:1299  value */\n      dup1\n        /* \"ERC20Contract.sol\":1276:1285  balanceOf */\n      0x04\n        /* \"ERC20Contract.sol\":1276:1291  balanceOf[from] */\n      0x00\n        /* \"ERC20Contract.sol\":1286:1290  from */\n      dup5\n        /* \"ERC20Contract.sol\":1276:1291  balanceOf[from] */\n      0xffffffffffffffffffffffffffffffffffffffff\n      and\n      0xffffffffffffffffffffffffffffffffffffffff\n      and\n      dup2\n      mstore\n      0x20\n      add\n      swap1\n      dup2\n      mstore\n      0x20\n      add\n      0x00\n      keccak256\n      sload\n        /* \"ERC20Contract.sol\":1276:1299  balanceOf[from]>= value */\n      lt\n      iszero\n        /* \"ERC20Contract.sol\":1268:1335  require(balanceOf[from]>= value,\"ERC20: Insufficient Burn Balance\") */\n      tag_153\n      jumpi\n      mload(0x40)\n      0x08c379a000000000000000000000000000000000000000000000000000000000\n      dup2\n      mstore\n      0x04\n      add\n      tag_154\n      swap1\n      tag_155\n      jump\t// in\n    tag_154:\n      mload(0x40)\n      dup1\n      swap2\n      sub\n      swap1\n      revert\n    tag_153:\n        /* \"ERC20Contract.sol\":1364:1369  value */\n      dup1\n        /* \"ERC20Contract.sol\":1345:1354  balanceOf */\n      0x04\n        /* \"ERC20Contract.sol\":1345:1360  balanceOf[from] */\n      0x00\n        /* \"ERC20Contract.sol\":1355:1359  from */\n      dup5\n        /* \"ERC20Contract.sol\":1345:1360  balanceOf[from] */\n      0xffffffffffffffffffffffffffffffffffffffff\n      and\n      0xffffffffffffffffffffffffffffffffffffffff\n      and\n      dup2\n      mstore\n      0x20\n      add\n      swap1\n      dup2\n      mstore\n      0x20\n      add\n      0x00\n      keccak256\n      0x00\n        /* \"ERC20Contract.sol\":1345:1369  balanceOf[from] -= value */\n      dup3\n      dup3\n      sload\n      tag_156\n      swap2\n      swap1\n      tag_103\n      jump\t// in\n    tag_156:\n      swap3\n      pop\n      pop\n      dup2\n      swap1\n      sstore\n      pop\n        /* \"ERC20Contract.sol\":1394:1399  value */\n      dup1\n        /* \"ERC20Contract.sol\":1379:1390  totalSupply */\n      0x02\n      0x00\n        /* \"ERC20Contract.sol\":1379:1399  totalSupply -= value */\n      dup3\n      dup3\n      sload\n      tag_157\n      swap2\n      swap1\n      tag_103\n      jump\t// in\n    tag_157:\n      swap3\n      pop\n      pop\n      dup2\n      swap1\n      sstore\n      pop\n        /* \"ERC20Contract.sol\":1438:1439  0 */\n      0x00\n        /* \"ERC20Contract.sol\":1415:1448  Transfer(from, address(0), value) */\n      0xffffffffffffffffffffffffffffffffffffffff\n      and\n        /* \"ERC20Contract.sol\":1424:1428  from */\n      dup3\n        /* \"ERC20Contract.sol\":1415:1448  Transfer(from, address(0), value) */\n      0xffffffffffffffffffffffffffffffffffffffff\n      and\n      0xddf252ad1be2c89b69c2b068fc378daa952ba7f163c4a11628f55a4df523b3ef\n        /* \"ERC20Contract.sol\":1442:1447  value */\n      dup4\n        /* \"ERC20Contract.sol\":1415:1448  Transfer(from, address(0), value) */\n      mload(0x40)\n      tag_158\n      swap2\n      swap1\n      tag_35\n      jump\t// in\n    tag_158:\n      mload(0x40)\n      dup1\n      swap2\n      sub\n      swap1\n      log3\n        /* \"ERC20Contract.sol\":1206:1456  function _burn(address from, uint256 value) private {... */\n      pop\n      pop\n      jump\t// out\n        /* \"#utility.yul\":7:106   */\n    tag_159:\n        /* \"#utility.yul\":59:65   */\n      0x00\n        /* \"#utility.yul\":93:98   */\n      dup2\n        /* \"#utility.yul\":87:99   */\n      mload\n        /* \"#utility.yul\":77:99   */\n      swap1\n      pop\n        /* \"#utility.yul\":7:106   */\n      swap2\n      swap1\n      pop\n      jump\t// out\n        /* \"#utility.yul\":112:281   */\n    tag_160:\n        /* \"#utility.yul\":196:207   */\n      0x00\n        /* \"#utility.yul\":230:236   */\n      dup3\n        /* \"#utility.yul\":225:228   */\n      dup3\n        /* \"#utility.yul\":218:237   */\n      mstore\n        /* \"#utility.yul\":270:274   */\n      0x20\n        /* \"#utility.yul\":265:268   */\n      dup3\n        /* \"#utility.yul\":261:275   */\n      add\n        /* \"#utility.yul\":246:275   */\n      swap1\n      pop\n        /* \"#utility.yul\":112:281   */\n      swap3\n      swap2\n      pop\n      pop\n      jump\t// out\n        /* \"#utility.yul\":287:426   */\n    tag_161:\n        /* \"#utility.yul\":376:382   */\n      dup3\n        /* \"#utility.yul\":371:374   */\n      dup2\n        /* \"#utility.yul\":366:369   */\n      dup4\n        /* \"#utility.yul\":360:383   */\n      mcopy\n        /* \"#utility.yul\":417:418   */\n      0x00\n        /* \"#utility.yul\":408:414   */\n      dup4\n        /* \"#utility.yul\":403:406   */\n      dup4\n        /* \"#utility.yul\":399:415   */\n      add\n        /* \"#utility.yul\":392:419   */\n      mstore\n        /* \"#utility.yul\":287:426   */\n      pop\n      pop\n      pop\n      jump\t// out\n        /* \"#utility.yul\":432:534   */\n    tag_162:\n        /* \"#utility.yul\":473:479   */\n      0x00\n        /* \"#utility.yul\":524:526   */\n      0x1f\n        /* \"#utility.yul\":520:527   */\n      not\n        /* \"#utility.yul\":515:517   */\n      0x1f\n        /* \"#utility.yul\":508:513   */\n      dup4\n        /* \"#utility.yul\":504:518   */\n      add\n        /* \"#utility.yul\":500:528   */\n      and\n        /* \"#utility.yul\":490:528   */\n      swap1\n      pop\n        /* \"#utility.yul\":432:534   */\n      swap2\n      swap1\n      pop\n      jump\t// out\n        /* \"#utility.yul\":540:917   */\n    tag_163:\n        /* \"#utility.yul\":628:631   */\n      0x00\n        /* \"#utility.yul\":656:695   */\n      tag_200\n        /* \"#utility.yul\":689:694   */\n      dup3\n        /* \"#utility.yul\":656:695   */\n      tag_159\n      jump\t// in\n    tag_200:\n        /* \"#utility.yul\":711:782   */\n      tag_201\n        /* \"#utility.yul\":775:781   */\n      dup2\n        /* \"#utility.yul\":770:773   */\n      dup6\n        /* \"#utility.yul\":711:782   */\n      tag_160\n      jump\t// in\n    tag_201:\n        /* \"#utility.yul\":704:782   */\n      swap4\n      pop\n        /* \"#utility.yul\":791:856   */\n      tag_202\n        /* \"#utility.yul\":849:855   */\n      dup2\n        /* \"#utility.yul\":844:847   */\n      dup6\n        /* \"#utility.yul\":837:841   */\n      0x20\n        /* \"#utility.yul\":830:835   */\n      dup7\n        /* \"#utility.yul\":826:842   */\n      add\n        /* \"#utility.yul\":791:856   */\n      tag_161\n      jump\t// in\n    tag_202:\n        /* \"#utility.yul\":881:910   */\n      tag_203\n        /* \"#utility.yul\":903:909   */\n      dup2\n        /* \"#utility.yul\":881:910   */\n      tag_162\n      jump\t// in\n    tag_203:\n        /* \"#utility.yul\":876:879   */\n      dup5\n        /* \"#utility.yul\":872:911   */\n      add\n        /* \"#utility.yul\":865:911   */\n      swap2\n      pop\n        /* \"#utility.yul\":632:917   */\n      pop\n        /* \"#utility.yul\":540:917   */\n      swap3\n      swap2\n      pop\n      pop\n      jump\t// out\n        /* \"#utility.yul\":923:1236   */\n    tag_23:\n        /* \"#utility.yul\":1036:1040   */\n      0x00\n        /* \"#utility.yul\":1074:1076   */\n      0x20\n        /* \"#utility.yul\":1063:1072   */\n      dup3\n        /* \"#utility.yul\":1059:1077   */\n      add\n        /* \"#utility.yul\":1051:1077   */\n      swap1\n      pop\n        /* \"#utility.yul\":1123:1132   */\n      dup2\n        /* \"#utility.yul\":1117:1121   */\n      dup2\n        /* \"#utility.yul\":1113:1133   */\n      sub\n        /* \"#utility.yul\":1109:1110   */\n      0x00\n        /* \"#utility.yul\":1098:1107   */\n      dup4\n        /* \"#utility.yul\":1094:1111   */\n      add\n        /* \"#utility.yul\":1087:1134   */\n      mstore\n        /* \"#utility.yul\":1151:1229   */\n      tag_205\n        /* \"#utility.yul\":1224:1228   */\n      dup2\n        /* \"#utility.yul\":1215:1221   */\n      dup5\n        /* \"#utility.yul\":1151:1229   */\n      tag_163\n      jump\t// in\n    tag_205:\n        /* \"#utility.yul\":1143:1229   */\n      swap1\n      pop\n        /* \"#utility.yul\":923:1236   */\n      swap3\n      swap2\n      pop\n      pop\n      jump\t// out\n        /* \"#utility.yul\":1323:1440   */\n    tag_165:\n        /* \"#utility.yul\":1432:1433   */\n      0x00\n        /* \"#utility.yul\":1429:1430   */\n      dup1\n        /* \"#utility.yul\":1422:1434   */\n      revert\n        /* \"#utility.yul\":1569:1695   */\n    tag_167:\n        /* \"#utility.yul\":1606:1613   */\n      0x00\n        /* \"#utility.yul\":1646:1688   */\n      0xffffffffffffffffffffffffffffffffffffffff\n        /* \"#utility.yul\":1639:1644   */\n      dup3\n        /* \"#utility.yul\":1635:1689   */\n      and\n        /* \"#utility.yul\":1624:1689   */\n      swap1\n      pop\n        /* \"#utility.yul\":1569:1695   */\n      swap2\n      swap1\n      pop\n      jump\t// out\n        /* \"#utility.yul\":1701:1797   */\n    tag_168:\n        /* \"#utility.yul\":1738:1745   */\n      0x00\n        /* \"#utility.yul\":1767:1791   */\n      tag_211\n        /* \"#utility.yul\":1785:1790   */\n      dup3\n        /* \"#utility.yul\":1767:1791   */\n      tag_167\n      jump\t// in\n    tag_211:\n        /* \"#utility.yul\":1756:1791   */\n      swap1\n      pop\n        /* \"#utility.yul\":1701:1797   */\n      swap2\n      swap1\n      pop\n      jump\t// out\n        /* \"#utility.yul\":1803:1925   */\n    tag_169:\n        /* \"#utility.yul\":1876:1900   */\n      tag_213\n        /* \"#utility.yul\":1894:1899   */\n      dup2\n        /* \"#utility.yul\":1876:1900   */\n      tag_168\n      jump\t// in\n    tag_213:\n        /* \"#utility.yul\":1869:1874   */\n      dup2\n        /* \"#utility.yul\":1866:1901   */\n      eq\n        /* \"#utility.yul\":1856:1919   */\n      tag_214\n      jumpi\n        /* \"#utility.yul\":1915:1916   */\n      0x00\n        /* \"#utility.yul\":1912:1913   */\n      dup1\n        /* \"#utility.yul\":1905:1917   */\n      revert\n        /* \"#utility.yul\":1856:1919   */\n    tag_214:\n        /* \"#utility.yul\":1803:1925   */\n      pop\n      jump\t// out\n        /* \"#utility.yul\":1931:2070   */\n    tag_170:\n        /* \"#utility.yul\":1977:1982   */\n      0x00\n        /* \"#utility.yul\":2015:2021   */\n      dup2\n        /* \"#utility.yul\":2002:2022   */\n      calldataload\n        /* \"#utility.yul\":1993:2022   */\n      swap1\n      pop\n        /* \"#utility.yul\":2031:2064   */\n      tag_216\n        /* \"#utility.yul\":2058:2063   */\n      dup2\n        /* \"#utility.yul\":2031:2064   */\n      tag_169\n      jump\t// in\n    tag_216:\n        /* \"#utility.yul\":1931:2070   */\n      swap3\n      swap2\n      pop\n      pop\n      jump\t// out\n        /* \"#utility.yul\":2076:2153   */\n    tag_171:\n        /* \"#utility.yul\":2113:2120   */\n      0x00\n        /* \"#utility.yul\":2142:2147   */\n      dup2\n        /* \"#utility.yul\":2131:2147   */\n      swap1\n      pop\n        /* \"#utility.yul\":2076:2153   */\n      swap2\n      swap1\n      pop\n      jump\t// out\n        /* \"#utility.yul\":2159:2281   */\n    tag_172:\n        /* \"#utility.yul\":2232:2256   */\n      tag_219\n        /* \"#utility.yul\":2250:2255   */\n      dup2\n        /* \"#utility.yul\":2232:2256   */\n      tag_171\n      jump\t// in\n    tag_219:\n        /* \"#utility.yul\":2225:2230   */\n      dup2\n        /* \"#utility.yul\":2222:2257   */\n      eq\n        /* \"#utility.yul\":2212:2275   */\n      tag_220\n      jumpi\n        /* \"#utility.yul\":2271:2272   */\n      0x00\n        /* \"#utility.yul\":2268:2269   */\n      dup1\n        /* \"#utility.yul\":2261:2273   */\n      revert\n        /* \"#utility.yul\":2212:2275   */\n    tag_220:\n        /* \"#utility.yul\":2159:2281   */\n      pop\n      jump\t// out\n        /* \"#utility.yul\":2287:2426   */\n    tag_173:\n        /* \"#utility.yul\":2333:2338   */\n      0x00\n        /* \"#utility.yul\":2371:2377   */\n      dup2\n        /* \"#utility.yul\":2358:2378   */\n      calldataload\n        /* \"#utility.yul\":2349:2378   */\n      swap1\n      pop\n        /* \"#utility.yul\":2387:2420   */\n      tag_222\n        /* \"#utility.yul\":2414:2419   */\n      dup2\n        /* \"#utility.yul\":2387:2420   */\n      tag_172\n      jump\t// in\n    tag_222:\n        /* \"#utility.yul\":2287:2426   */\n      swap3\n      swap2\n      pop\n      pop\n      jump\t// out\n        /* \"#utility.yul\":2432:2906   */\n    tag_27:\n        /* \"#utility.yul\":2500:2506   */\n      0x00\n        /* \"#utility.yul\":2508:2514   */\n      dup1\n        /* \"#utility.yul\":2557:2559   */\n      0x40\n        /* \"#utility.yul\":2545:2554   */\n      dup4\n        /* \"#utility.yul\":2536:2543   */\n      dup6\n        /* \"#utility.yul\":2532:2555   */\n      sub\n        /* \"#utility.yul\":2528:2560   */\n      slt\n        /* \"#utility.yul\":2525:2644   */\n      iszero\n      tag_224\n      jumpi\n        /* \"#utility.yul\":2563:2642   */\n      tag_225\n      tag_165\n      jump\t// in\n    tag_225:\n        /* \"#utility.yul\":2525:2644   */\n    tag_224:\n        /* \"#utility.yul\":2683:2684   */\n      0x00\n        /* \"#utility.yul\":2708:2761   */\n      tag_226\n        /* \"#utility.yul\":2753:2760   */\n      dup6\n        /* \"#utility.yul\":2744:2750   */\n      dup3\n        /* \"#utility.yul\":2733:2742   */\n      dup7\n        /* \"#utility.yul\":2729:2751   */\n      add\n        /* \"#utility.yul\":2708:2761   */\n      tag_170\n      jump\t// in\n    tag_226:\n        /* \"#utility.yul\":2698:2761   */\n      swap3\n      pop\n        /* \"#utility.yul\":2654:2771   */\n      pop\n        /* \"#utility.yul\":2810:2812   */\n      0x20\n        /* \"#utility.yul\":2836:2889   */\n      tag_227\n        /* \"#utility.yul\":2881:2888   */\n      dup6\n        /* \"#utility.yul\":2872:2878   */\n      dup3\n        /* \"#utility.yul\":2861:2870   */\n      dup7\n        /* \"#utility.yul\":2857:2879   */\n      add\n        /* \"#utility.yul\":2836:2889   */\n      tag_173\n      jump\t// in\n    tag_227:\n        /* \"#utility.yul\":2826:2889   */\n      swap2\n      pop\n        /* \"#utility.yul\":2781:2899   */\n      pop\n        /* \"#utility.yul\":2432:2906   */\n      swap3\n      pop\n      swap3\n      swap1\n      pop\n      jump\t// out\n        /* \"#utility.yul\":2912:3002   */\n    tag_174:\n        /* \"#utility.yul\":2946:2953   */\n      0x00\n        /* \"#utility.yul\":2989:2994   */\n      dup2\n        /* \"#utility.yul\":2982:2995   */\n      iszero\n        /* \"#utility.yul\":2975:2996   */\n      iszero\n        /* \"#utility.yul\":2964:2996   */\n      swap1\n      pop\n        /* \"#utility.yul\":2912:3002   */\n      swap2\n      swap1\n      pop\n      jump\t// out\n        /* \"#utility.yul\":3008:3117   */\n    tag_175:\n        /* \"#utility.yul\":3089:3110   */\n      tag_230\n        /* \"#utility.yul\":3104:3109   */\n      dup2\n        /* \"#utility.yul\":3089:3110   */\n      tag_174\n      jump\t// in\n    tag_230:\n        /* \"#utility.yul\":3084:3087   */\n      dup3\n        /* \"#utility.yul\":3077:3111   */\n      mstore\n        /* \"#utility.yul\":3008:3117   */\n      pop\n      pop\n      jump\t// out\n        /* \"#utility.yul\":3123:3333   */\n    tag_30:\n        /* \"#utility.yul\":3210:3214   */\n      0x00\n        /* \"#utility.yul\":3248:3250   */\n      0x20\n        /* \"#utility.yul\":3237:3246   */\n      dup3\n        /* \"#utility.yul\":3233:3251   */\n      add\n        /* \"#utility.yul\":3225:3251   */\n      swap1\n      pop\n        /* \"#utility.yul\":3261:3326   */\n      tag_232\n        /* \"#utility.yul\":3323:3324   */\n      0x00\n        /* \"#utility.yul\":3312:3321   */\n      dup4\n        /* \"#utility.yul\":3308:3325   */\n      add\n        /* \"#utility.yul\":3299:3305   */\n      dup5\n        /* \"#utility.yul\":3261:3326   */\n      tag_175\n      jump\t// in\n    tag_232:\n        /* \"#utility.yul\":3123:3333   */\n      swap3\n      swap2\n      pop\n      pop\n      jump\t// out\n        /* \"#utility.yul\":3339:3457   */\n    tag_176:\n        /* \"#utility.yul\":3426:3450   */\n      tag_234\n        /* \"#utility.yul\":3444:3449   */\n      dup2\n        /* \"#utility.yul\":3426:3450   */\n      tag_171\n      jump\t// in\n    tag_234:\n        /* \"#utility.yul\":3421:3424   */\n      dup3\n        /* \"#utility.yul\":3414:3451   */\n      mstore\n        /* \"#utility.yul\":3339:3457   */\n      pop\n      pop\n      jump\t// out\n        /* \"#utility.yul\":3463:3685   */\n    tag_35:\n        /* \"#utility.yul\":3556:3560   */\n      0x00\n        /* \"#utility.yul\":3594:3596   */\n      0x20\n        /* \"#utility.yul\":3583:3592   */\n      dup3\n        /* \"#utility.yul\":3579:3597   */\n      add\n        /* \"#utility.yul\":3571:3597   */\n      swap1\n      pop\n        /* \"#utility.yul\":3607:3678   */\n      tag_236\n        /* \"#utility.yul\":3675:3676   */\n      0x00\n        /* \"#utility.yul\":3664:3673   */\n      dup4\n        /* \"#utility.yul\":3660:3677   */\n      add\n        /* \"#utility.yul\":3651:3657   */\n      dup5\n        /* \"#utility.yul\":3607:3678   */\n      tag_176\n      jump\t// in\n    tag_236:\n        /* \"#utility.yul\":3463:3685   */\n      swap3\n      swap2\n      pop\n      pop\n      jump\t// out\n        /* \"#utility.yul\":3691:4310   */\n    tag_39:\n        /* \"#utility.yul\":3768:3774   */\n      0x00\n        /* \"#utility.yul\":3776:3782   */\n      dup1\n        /* \"#utility.yul\":3784:3790   */\n      0x00\n        /* \"#utility.yul\":3833:3835   */\n      0x60\n        /* \"#utility.yul\":3821:3830   */\n      dup5\n        /* \"#utility.yul\":3812:3819   */\n      dup7\n        /* \"#utility.yul\":3808:3831   */\n      sub\n        /* \"#utility.yul\":3804:3836   */\n      slt\n        /* \"#utility.yul\":3801:3920   */\n      iszero\n      tag_238\n      jumpi\n        /* \"#utility.yul\":3839:3918   */\n      tag_239\n      tag_165\n      jump\t// in\n    tag_239:\n        /* \"#utility.yul\":3801:3920   */\n    tag_238:\n        /* \"#utility.yul\":3959:3960   */\n      0x00\n        /* \"#utility.yul\":3984:4037   */\n      tag_240\n        /* \"#utility.yul\":4029:4036   */\n      dup7\n        /* \"#utility.yul\":4020:4026   */\n      dup3\n        /* \"#utility.yul\":4009:4018   */\n      dup8\n        /* \"#utility.yul\":4005:4027   */\n      add\n        /* \"#utility.yul\":3984:4037   */\n      tag_170\n      jump\t// in\n    tag_240:\n        /* \"#utility.yul\":3974:4037   */\n      swap4\n      pop\n        /* \"#utility.yul\":3930:4047   */\n      pop\n        /* \"#utility.yul\":4086:4088   */\n      0x20\n        /* \"#utility.yul\":4112:4165   */\n      tag_241\n        /* \"#utility.yul\":4157:4164   */\n      dup7\n        /* \"#utility.yul\":4148:4154   */\n      dup3\n        /* \"#utility.yul\":4137:4146   */\n      dup8\n        /* \"#utility.yul\":4133:4155   */\n      add\n        /* \"#utility.yul\":4112:4165   */\n      tag_170\n      jump\t// in\n    tag_241:\n        /* \"#utility.yul\":4102:4165   */\n      swap3\n      pop\n        /* \"#utility.yul\":4057:4175   */\n      pop\n        /* \"#utility.yul\":4214:4216   */\n      0x40\n        /* \"#utility.yul\":4240:4293   */\n      tag_242\n        /* \"#utility.yul\":4285:4292   */\n      dup7\n        /* \"#utility.yul\":4276:4282   */\n      dup3\n        /* \"#utility.yul\":4265:4274   */\n      dup8\n        /* \"#utility.yul\":4261:4283   */\n      add\n        /* \"#utility.yul\":4240:4293   */\n      tag_173\n      jump\t// in\n    tag_242:\n        /* \"#utility.yul\":4230:4293   */\n      swap2\n      pop\n        /* \"#utility.yul\":4185:4303   */\n      pop\n        /* \"#utility.yul\":3691:4310   */\n      swap3\n      pop\n      swap3\n      pop\n      swap3\n      jump\t// out\n        /* \"#utility.yul\":4316:4402   */\n    tag_177:\n        /* \"#utility.yul\":4351:4358   */\n      0x00\n        /* \"#utility.yul\":4391:4395   */\n      0xff\n        /* \"#utility.yul\":4384:4389   */\n      dup3\n        /* \"#utility.yul\":4380:4396   */\n      and\n        /* \"#utility.yul\":4369:4396   */\n      swap1\n      pop\n        /* \"#utility.yul\":4316:4402   */\n      swap2\n      swap1\n      pop\n      jump\t// out\n        /* \"#utility.yul\":4408:4520   */\n    tag_178:\n        /* \"#utility.yul\":4491:4513   */\n      tag_245\n        /* \"#utility.yul\":4507:4512   */\n      dup2\n        /* \"#utility.yul\":4491:4513   */\n      tag_177\n      jump\t// in\n    tag_245:\n        /* \"#utility.yul\":4486:4489   */\n      dup3\n        /* \"#utility.yul\":4479:4514   */\n      mstore\n        /* \"#utility.yul\":4408:4520   */\n      pop\n      pop\n      jump\t// out\n        /* \"#utility.yul\":4526:4740   */\n    tag_46:\n        /* \"#utility.yul\":4615:4619   */\n      0x00\n        /* \"#utility.yul\":4653:4655   */\n      0x20\n        /* \"#utility.yul\":4642:4651   */\n      dup3\n        /* \"#utility.yul\":4638:4656   */\n      add\n        /* \"#utility.yul\":4630:4656   */\n      swap1\n      pop\n        /* \"#utility.yul\":4666:4733   */\n      tag_247\n        /* \"#utility.yul\":4730:4731   */\n      0x00\n        /* \"#utility.yul\":4719:4728   */\n      dup4\n        /* \"#utility.yul\":4715:4732   */\n      add\n        /* \"#utility.yul\":4706:4712   */\n      dup5\n        /* \"#utility.yul\":4666:4733   */\n      tag_178\n      jump\t// in\n    tag_247:\n        /* \"#utility.yul\":4526:4740   */\n      swap3\n      swap2\n      pop\n      pop\n      jump\t// out\n        /* \"#utility.yul\":4746:5075   */\n    tag_54:\n        /* \"#utility.yul\":4805:4811   */\n      0x00\n        /* \"#utility.yul\":4854:4856   */\n      0x20\n        /* \"#utility.yul\":4842:4851   */\n      dup3\n        /* \"#utility.yul\":4833:4840   */\n      dup5\n        /* \"#utility.yul\":4829:4852   */\n      sub\n        /* \"#utility.yul\":4825:4857   */\n      slt\n        /* \"#utility.yul\":4822:4941   */\n      iszero\n      tag_249\n      jumpi\n        /* \"#utility.yul\":4860:4939   */\n      tag_250\n      tag_165\n      jump\t// in\n    tag_250:\n        /* \"#utility.yul\":4822:4941   */\n    tag_249:\n        /* \"#utility.yul\":4980:4981   */\n      0x00\n        /* \"#utility.yul\":5005:5058   */\n      tag_251\n        /* \"#utility.yul\":5050:5057   */\n      dup5\n        /* \"#utility.yul\":5041:5047   */\n      dup3\n        /* \"#utility.yul\":5030:5039   */\n      dup6\n        /* \"#utility.yul\":5026:5048   */\n      add\n        /* \"#utility.yul\":5005:5058   */\n      tag_170\n      jump\t// in\n    tag_251:\n        /* \"#utility.yul\":4995:5058   */\n      swap2\n      pop\n        /* \"#utility.yul\":4951:5068   */\n      pop\n        /* \"#utility.yul\":4746:5075   */\n      swap3\n      swap2\n      pop\n      pop\n      jump\t// out\n        /* \"#utility.yul\":5081:5199   */\n    tag_179:\n        /* \"#utility.yul\":5168:5192   */\n      tag_253\n        /* \"#utility.yul\":5186:5191   */\n      dup2\n        /* \"#utility.yul\":5168:5192   */\n      tag_168\n      jump\t// in\n    tag_253:\n        /* \"#utility.yul\":5163:5166   */\n      dup3\n        /* \"#utility.yul\":5156:5193   */\n      mstore\n        /* \"#utility.yul\":5081:5199   */\n      pop\n      pop\n      jump\t// out\n        /* \"#utility.yul\":5205:5427   */\n    tag_61:\n        /* \"#utility.yul\":5298:5302   */\n      0x00\n        /* \"#utility.yul\":5336:5338   */\n      0x20\n        /* \"#utility.yul\":5325:5334   */\n      dup3\n        /* \"#utility.yul\":5321:5339   */\n      add\n        /* \"#utility.yul\":5313:5339   */\n      swap1\n      pop\n        /* \"#utility.yul\":5349:5420   */\n      tag_255\n        /* \"#utility.yul\":5417:5418   */\n      0x00\n        /* \"#utility.yul\":5406:5415   */\n      dup4\n        /* \"#utility.yul\":5402:5419   */\n      add\n        /* \"#utility.yul\":5393:5399   */\n      dup5\n        /* \"#utility.yul\":5349:5420   */\n      tag_179\n      jump\t// in\n    tag_255:\n        /* \"#utility.yul\":5205:5427   */\n      swap3\n      swap2\n      pop\n      pop\n      jump\t// out\n        /* \"#utility.yul\":5433:5762   */\n    tag_80:\n        /* \"#utility.yul\":5492:5498   */\n      0x00\n        /* \"#utility.yul\":5541:5543   */\n      0x20\n        /* \"#utility.yul\":5529:5538   */\n      dup3\n        /* \"#utility.yul\":5520:5527   */\n      dup5\n        /* \"#utility.yul\":5516:5539   */\n      sub\n        /* \"#utility.yul\":5512:5544   */\n      slt\n        /* \"#utility.yul\":5509:5628   */\n      iszero\n      tag_257\n      jumpi\n        /* \"#utility.yul\":5547:5626   */\n      tag_258\n      tag_165\n      jump\t// in\n    tag_258:\n        /* \"#utility.yul\":5509:5628   */\n    tag_257:\n        /* \"#utility.yul\":5667:5668   */\n      0x00\n        /* \"#utility.yul\":5692:5745   */\n      tag_259\n        /* \"#utility.yul\":5737:5744   */\n      dup5\n        /* \"#utility.yul\":5728:5734   */\n      dup3\n        /* \"#utility.yul\":5717:5726   */\n      dup6\n        /* \"#utility.yul\":5713:5735   */\n      add\n        /* \"#utility.yul\":5692:5745   */\n      tag_173\n      jump\t// in\n    tag_259:\n        /* \"#utility.yul\":5682:5745   */\n      swap2\n      pop\n        /* \"#utility.yul\":5638:5755   */\n      pop\n        /* \"#utility.yul\":5433:5762   */\n      swap3\n      swap2\n      pop\n      pop\n      jump\t// out\n        /* \"#utility.yul\":5768:6242   */\n    tag_85:\n        /* \"#utility.yul\":5836:5842   */\n      0x00\n        /* \"#utility.yul\":5844:5850   */\n      dup1\n        /* \"#utility.yul\":5893:5895   */\n      0x40\n        /* \"#utility.yul\":5881:5890   */\n      dup4\n        /* \"#utility.yul\":5872:5879   */\n      dup6\n        /* \"#utility.yul\":5868:5891   */\n      sub\n        /* \"#utility.yul\":5864:5896   */\n      slt\n        /* \"#utility.yul\":5861:5980   */\n      iszero\n      tag_261\n      jumpi\n        /* \"#utility.yul\":5899:5978   */\n      tag_262\n      tag_165\n      jump\t// in\n    tag_262:\n        /* \"#utility.yul\":5861:5980   */\n    tag_261:\n        /* \"#utility.yul\":6019:6020   */\n      0x00\n        /* \"#utility.yul\":6044:6097   */\n      tag_263\n        /* \"#utility.yul\":6089:6096   */\n      dup6\n        /* \"#utility.yul\":6080:6086   */\n      dup3\n        /* \"#utility.yul\":6069:6078   */\n      dup7\n        /* \"#utility.yul\":6065:6087   */\n      add\n        /* \"#utility.yul\":6044:6097   */\n      tag_170\n      jump\t// in\n    tag_263:\n        /* \"#utility.yul\":6034:6097   */\n      swap3\n      pop\n        /* \"#utility.yul\":5990:6107   */\n      pop\n        /* \"#utility.yul\":6146:6148   */\n      0x20\n        /* \"#utility.yul\":6172:6225   */\n      tag_264\n        /* \"#utility.yul\":6217:6224   */\n      dup6\n        /* \"#utility.yul\":6208:6214   */\n      dup3\n        /* \"#utility.yul\":6197:6206   */\n      dup7\n        /* \"#utility.yul\":6193:6215   */\n      add\n        /* \"#utility.yul\":6172:6225   */\n      tag_170\n      jump\t// in\n    tag_264:\n        /* \"#utility.yul\":6162:6225   */\n      swap2\n      pop\n        /* \"#utility.yul\":6117:6235   */\n      pop\n        /* \"#utility.yul\":5768:6242   */\n      swap3\n      pop\n      swap3\n      swap1\n      pop\n      jump\t// out\n        /* \"#utility.yul\":6248:6428   */\n    tag_180:\n        /* \"#utility.yul\":6296:6373   */\n      0x4e487b7100000000000000000000000000000000000000000000000000000000\n        /* \"#utility.yul\":6293:6294   */\n      0x00\n        /* \"#utility.yul\":6286:6374   */\n      mstore\n        /* \"#utility.yul\":6393:6397   */\n      0x22\n        /* \"#utility.yul\":6390:6391   */\n      0x04\n        /* \"#utility.yul\":6383:6398   */\n      mstore\n        /* \"#utility.yul\":6417:6421   */\n      0x24\n        /* \"#utility.yul\":6414:6415   */\n      0x00\n        /* \"#utility.yul\":6407:6422   */\n      revert\n        /* \"#utility.yul\":6434:6754   */\n    tag_89:\n        /* \"#utility.yul\":6478:6484   */\n      0x00\n        /* \"#utility.yul\":6515:6516   */\n      0x02\n        /* \"#utility.yul\":6509:6513   */\n      dup3\n        /* \"#utility.yul\":6505:6517   */\n      div\n        /* \"#utility.yul\":6495:6517   */\n      swap1\n      pop\n        /* \"#utility.yul\":6562:6563   */\n      0x01\n        /* \"#utility.yul\":6556:6560   */\n      dup3\n        /* \"#utility.yul\":6552:6564   */\n      and\n        /* \"#utility.yul\":6583:6601   */\n      dup1\n        /* \"#utility.yul\":6573:6654   */\n      tag_267\n      jumpi\n        /* \"#utility.yul\":6639:6643   */\n      0x7f\n        /* \"#utility.yul\":6631:6637   */\n      dup3\n        /* \"#utility.yul\":6627:6644   */\n      and\n        /* \"#utility.yul\":6617:6644   */\n      swap2\n      pop\n        /* \"#utility.yul\":6573:6654   */\n    tag_267:\n        /* \"#utility.yul\":6701:6703   */\n      0x20\n        /* \"#utility.yul\":6693:6699   */\n      dup3\n        /* \"#utility.yul\":6690:6704   */\n      lt\n        /* \"#utility.yul\":6670:6688   */\n      dup2\n        /* \"#utility.yul\":6667:6705   */\n      sub\n        /* \"#utility.yul\":6664:6748   */\n      tag_268\n      jumpi\n        /* \"#utility.yul\":6720:6738   */\n      tag_269\n      tag_180\n      jump\t// in\n    tag_269:\n        /* \"#utility.yul\":6664:6748   */\n    tag_268:\n        /* \"#utility.yul\":6485:6754   */\n      pop\n        /* \"#utility.yul\":6434:6754   */\n      swap2\n      swap1\n      pop\n      jump\t// out\n        /* \"#utility.yul\":6760:6940   */\n    tag_181:\n        /* \"#utility.yul\":6808:6885   */\n      0x4e487b7100000000000000000000000000000000000000000000000000000000\n        /* \"#utility.yul\":6805:6806   */\n      0x00\n        /* \"#utility.yul\":6798:6886   */\n      mstore\n        /* \"#utility.yul\":6905:6909   */\n      0x11\n        /* \"#utility.yul\":6902:6903   */\n      0x04\n        /* \"#utility.yul\":6895:6910   */\n      mstore\n        /* \"#utility.yul\":6929:6933   */\n      0x24\n        /* \"#utility.yul\":6926:6927   */\n      0x00\n        /* \"#utility.yul\":6919:6934   */\n      revert\n        /* \"#utility.yul\":6946:7137   */\n    tag_96:\n        /* \"#utility.yul\":6986:6989   */\n      0x00\n        /* \"#utility.yul\":7005:7025   */\n      tag_272\n        /* \"#utility.yul\":7023:7024   */\n      dup3\n        /* \"#utility.yul\":7005:7025   */\n      tag_171\n      jump\t// in\n    tag_272:\n        /* \"#utility.yul\":7000:7025   */\n      swap2\n      pop\n        /* \"#utility.yul\":7039:7059   */\n      tag_273\n        /* \"#utility.yul\":7057:7058   */\n      dup4\n        /* \"#utility.yul\":7039:7059   */\n      tag_171\n      jump\t// in\n    tag_273:\n        /* \"#utility.yul\":7034:7059   */\n      swap3\n      pop\n        /* \"#utility.yul\":7082:7083   */\n      dup3\n        /* \"#utility.yul\":7079:7080   */\n      dup3\n        /* \"#utility.yul\":7075:7084   */\n      add\n        /* \"#utility.yul\":7068:7084   */\n      swap1\n      pop\n        /* \"#utility.yul\":7103:7106   */\n      dup1\n        /* \"#utility.yul\":7100:7101   */\n      dup3\n        /* \"#utility.yul\":7097:7107   */\n      gt\n        /* \"#utility.yul\":7094:7130   */\n      iszero\n      tag_274\n      jumpi\n        /* \"#utility.yul\":7110:7128   */\n      tag_275\n      tag_181\n      jump\t// in\n    tag_275:\n        /* \"#utility.yul\":7094:7130   */\n    tag_274:\n        /* \"#utility.yul\":6946:7137   */\n      swap3\n      swap2\n      pop\n      pop\n      jump\t// out\n        /* \"#utility.yul\":7143:7322   */\n    tag_182:\n        /* \"#utility.yul\":7283:7314   */\n      0x45524332303a20496e73756666696369656e7420416c6c6f77616e6365000000\n        /* \"#utility.yul\":7279:7280   */\n      0x00\n        /* \"#utility.yul\":7271:7277   */\n      dup3\n        /* \"#utility.yul\":7267:7281   */\n      add\n        /* \"#utility.yul\":7260:7315   */\n      mstore\n        /* \"#utility.yul\":7143:7322   */\n      pop\n      jump\t// out\n        /* \"#utility.yul\":7328:7694   */\n    tag_183:\n        /* \"#utility.yul\":7470:7473   */\n      0x00\n        /* \"#utility.yul\":7491:7558   */\n      tag_278\n        /* \"#utility.yul\":7555:7557   */\n      0x1d\n        /* \"#utility.yul\":7550:7553   */\n      dup4\n        /* \"#utility.yul\":7491:7558   */\n      tag_160\n      jump\t// in\n    tag_278:\n        /* \"#utility.yul\":7484:7558   */\n      swap2\n      pop\n        /* \"#utility.yul\":7567:7660   */\n      tag_279\n        /* \"#utility.yul\":7656:7659   */\n      dup3\n        /* \"#utility.yul\":7567:7660   */\n      tag_182\n      jump\t// in\n    tag_279:\n        /* \"#utility.yul\":7685:7687   */\n      0x20\n        /* \"#utility.yul\":7680:7683   */\n      dup3\n        /* \"#utility.yul\":7676:7688   */\n      add\n        /* \"#utility.yul\":7669:7688   */\n      swap1\n      pop\n        /* \"#utility.yul\":7328:7694   */\n      swap2\n      swap1\n      pop\n      jump\t// out\n        /* \"#utility.yul\":7700:8119   */\n    tag_101:\n        /* \"#utility.yul\":7866:7870   */\n      0x00\n        /* \"#utility.yul\":7904:7906   */\n      0x20\n        /* \"#utility.yul\":7893:7902   */\n      dup3\n        /* \"#utility.yul\":7889:7907   */\n      add\n        /* \"#utility.yul\":7881:7907   */\n      swap1\n      pop\n        /* \"#utility.yul\":7953:7962   */\n      dup2\n        /* \"#utility.yul\":7947:7951   */\n      dup2\n        /* \"#utility.yul\":7943:7963   */\n      sub\n        /* \"#utility.yul\":7939:7940   */\n      0x00\n        /* \"#utility.yul\":7928:7937   */\n      dup4\n        /* \"#utility.yul\":7924:7941   */\n      add\n        /* \"#utility.yul\":7917:7964   */\n      mstore\n        /* \"#utility.yul\":7981:8112   */\n      tag_281\n        /* \"#utility.yul\":8107:8111   */\n      dup2\n        /* \"#utility.yul\":7981:8112   */\n      tag_183\n      jump\t// in\n    tag_281:\n        /* \"#utility.yul\":7973:8112   */\n      swap1\n      pop\n        /* \"#utility.yul\":7700:8119   */\n      swap2\n      swap1\n      pop\n      jump\t// out\n        /* \"#utility.yul\":8125:8319   */\n    tag_103:\n        /* \"#utility.yul\":8165:8169   */\n      0x00\n        /* \"#utility.yul\":8185:8205   */\n      tag_283\n        /* \"#utility.yul\":8203:8204   */\n      dup3\n        /* \"#utility.yul\":8185:8205   */\n      tag_171\n      jump\t// in\n    tag_283:\n        /* \"#utility.yul\":8180:8205   */\n      swap2\n      pop\n        /* \"#utility.yul\":8219:8239   */\n      tag_284\n        /* \"#utility.yul\":8237:8238   */\n      dup4\n        /* \"#utility.yul\":8219:8239   */\n      tag_171\n      jump\t// in\n    tag_284:\n        /* \"#utility.yul\":8214:8239   */\n      swap3\n      pop\n        /* \"#utility.yul\":8263:8264   */\n      dup3\n        /* \"#utility.yul\":8260:8261   */\n      dup3\n        /* \"#utility.yul\":8256:8265   */\n      sub\n        /* \"#utility.yul\":8248:8265   */\n      swap1\n      pop\n        /* \"#utility.yul\":8287:8288   */\n      dup2\n        /* \"#utility.yul\":8281:8285   */\n      dup2\n        /* \"#utility.yul\":8278:8289   */\n      gt\n        /* \"#utility.yul\":8275:8312   */\n      iszero\n      tag_285\n      jumpi\n        /* \"#utility.yul\":8292:8310   */\n      tag_286\n      tag_181\n      jump\t// in\n    tag_286:\n        /* \"#utility.yul\":8275:8312   */\n    tag_285:\n        /* \"#utility.yul\":8125:8319   */\n      swap3\n      swap2\n      pop\n      pop\n      jump\t// out\n        /* \"#utility.yul\":8325:8501   */\n    tag_184:\n        /* \"#utility.yul\":8465:8493   */\n      0x4d7573742073656e6420457468657220746f206465706f736974000000000000\n        /* \"#utility.yul\":8461:8462   */\n      0x00\n        /* \"#utility.yul\":8453:8459   */\n      dup3\n        /* \"#utility.yul\":8449:8463   */\n      add\n        /* \"#utility.yul\":8442:8494   */\n      mstore\n        /* \"#utility.yul\":8325:8501   */\n      pop\n      jump\t// out\n        /* \"#utility.yul\":8507:8873   */\n    tag_185:\n        /* \"#utility.yul\":8649:8652   */\n      0x00\n        /* \"#utility.yul\":8670:8737   */\n      tag_289\n        /* \"#utility.yul\":8734:8736   */\n      0x1a\n        /* \"#utility.yul\":8729:8732   */\n      dup4\n        /* \"#utility.yul\":8670:8737   */\n      tag_160\n      jump\t// in\n    tag_289:\n        /* \"#utility.yul\":8663:8737   */\n      swap2\n      pop\n        /* \"#utility.yul\":8746:8839   */\n      tag_290\n        /* \"#utility.yul\":8835:8838   */\n      dup3\n        /* \"#utility.yul\":8746:8839   */\n      tag_184\n      jump\t// in\n    tag_290:\n        /* \"#utility.yul\":8864:8866   */\n      0x20\n        /* \"#utility.yul\":8859:8862   */\n      dup3\n        /* \"#utility.yul\":8855:8867   */\n      add\n        /* \"#utility.yul\":8848:8867   */\n      swap1\n      pop\n        /* \"#utility.yul\":8507:8873   */\n      swap2\n      swap1\n      pop\n      jump\t// out\n        /* \"#utility.yul\":8879:9298   */\n    tag_127:\n        /* \"#utility.yul\":9045:9049   */\n      0x00\n        /* \"#utility.yul\":9083:9085   */\n      0x20\n        /* \"#utility.yul\":9072:9081   */\n      dup3\n        /* \"#utility.yul\":9068:9086   */\n      add\n        /* \"#utility.yul\":9060:9086   */\n      swap1\n      pop\n        /* \"#utility.yul\":9132:9141   */\n      dup2\n        /* \"#utility.yul\":9126:9130   */\n      dup2\n        /* \"#utility.yul\":9122:9142   */\n      sub\n        /* \"#utility.yul\":9118:9119   */\n      0x00\n        /* \"#utility.yul\":9107:9116   */\n      dup4\n        /* \"#utility.yul\":9103:9120   */\n      add\n        /* \"#utility.yul\":9096:9143   */\n      mstore\n        /* \"#utility.yul\":9160:9291   */\n      tag_292\n        /* \"#utility.yul\":9286:9290   */\n      dup2\n        /* \"#utility.yul\":9160:9291   */\n      tag_185\n      jump\t// in\n    tag_292:\n        /* \"#utility.yul\":9152:9291   */\n      swap1\n      pop\n        /* \"#utility.yul\":8879:9298   */\n      swap2\n      swap1\n      pop\n      jump\t// out\n        /* \"#utility.yul\":9304:9528   */\n    tag_186:\n        /* \"#utility.yul\":9444:9478   */\n      0x436f6e7472616374206e6f7420617070726f76656420746f207370656e642074\n        /* \"#utility.yul\":9440:9441   */\n      0x00\n        /* \"#utility.yul\":9432:9438   */\n      dup3\n        /* \"#utility.yul\":9428:9442   */\n      add\n        /* \"#utility.yul\":9421:9479   */\n      mstore\n        /* \"#utility.yul\":9513:9520   */\n      0x6f6b656e73000000000000000000000000000000000000000000000000000000\n        /* \"#utility.yul\":9508:9510   */\n      0x20\n        /* \"#utility.yul\":9500:9506   */\n      dup3\n        /* \"#utility.yul\":9496:9511   */\n      add\n        /* \"#utility.yul\":9489:9521   */\n      mstore\n        /* \"#utility.yul\":9304:9528   */\n      pop\n      jump\t// out\n        /* \"#utility.yul\":9534:9900   */\n    tag_187:\n        /* \"#utility.yul\":9676:9679   */\n      0x00\n        /* \"#utility.yul\":9697:9764   */\n      tag_295\n        /* \"#utility.yul\":9761:9763   */\n      0x25\n        /* \"#utility.yul\":9756:9759   */\n      dup4\n        /* \"#utility.yul\":9697:9764   */\n      tag_160\n      jump\t// in\n    tag_295:\n        /* \"#utility.yul\":9690:9764   */\n      swap2\n      pop\n        /* \"#utility.yul\":9773:9866   */\n      tag_296\n        /* \"#utility.yul\":9862:9865   */\n      dup3\n        /* \"#utility.yul\":9773:9866   */\n      tag_186\n      jump\t// in\n    tag_296:\n        /* \"#utility.yul\":9891:9893   */\n      0x40\n        /* \"#utility.yul\":9886:9889   */\n      dup3\n        /* \"#utility.yul\":9882:9894   */\n      add\n        /* \"#utility.yul\":9875:9894   */\n      swap1\n      pop\n        /* \"#utility.yul\":9534:9900   */\n      swap2\n      swap1\n      pop\n      jump\t// out\n        /* \"#utility.yul\":9906:10325   */\n    tag_132:\n        /* \"#utility.yul\":10072:10076   */\n      0x00\n        /* \"#utility.yul\":10110:10112   */\n      0x20\n        /* \"#utility.yul\":10099:10108   */\n      dup3\n        /* \"#utility.yul\":10095:10113   */\n      add\n        /* \"#utility.yul\":10087:10113   */\n      swap1\n      pop\n        /* \"#utility.yul\":10159:10168   */\n      dup2\n        /* \"#utility.yul\":10153:10157   */\n      dup2\n        /* \"#utility.yul\":10149:10169   */\n      sub\n        /* \"#utility.yul\":10145:10146   */\n      0x00\n        /* \"#utility.yul\":10134:10143   */\n      dup4\n        /* \"#utility.yul\":10130:10147   */\n      add\n        /* \"#utility.yul\":10123:10170   */\n      mstore\n        /* \"#utility.yul\":10187:10318   */\n      tag_298\n        /* \"#utility.yul\":10313:10317   */\n      dup2\n        /* \"#utility.yul\":10187:10318   */\n      tag_187\n      jump\t// in\n    tag_298:\n        /* \"#utility.yul\":10179:10318   */\n      swap1\n      pop\n        /* \"#utility.yul\":9906:10325   */\n      swap2\n      swap1\n      pop\n      jump\t// out\n        /* \"#utility.yul\":10331:10498   */\n    tag_188:\n        /* \"#utility.yul\":10471:10490   */\n      0x4e6f7420656e6f75676820746f6b656e73000000000000000000000000000000\n        /* \"#utility.yul\":10467:10468   */\n      0x00\n        /* \"#utility.yul\":10459:10465   */\n      dup3\n        /* \"#utility.yul\":10455:10469   */\n      add\n        /* \"#utility.yul\":10448:10491   */\n      mstore\n        /* \"#utility.yul\":10331:10498   */\n      pop\n      jump\t// out\n        /* \"#utility.yul\":10504:10870   */\n    tag_189:\n        /* \"#utility.yul\":10646:10649   */\n      0x00\n        /* \"#utility.yul\":10667:10734   */\n      tag_301\n        /* \"#utility.yul\":10731:10733   */\n      0x11\n        /* \"#utility.yul\":10726:10729   */\n      dup4\n        /* \"#utility.yul\":10667:10734   */\n      tag_160\n      jump\t// in\n    tag_301:\n        /* \"#utility.yul\":10660:10734   */\n      swap2\n      pop\n        /* \"#utility.yul\":10743:10836   */\n      tag_302\n        /* \"#utility.yul\":10832:10835   */\n      dup3\n        /* \"#utility.yul\":10743:10836   */\n      tag_188\n      jump\t// in\n    tag_302:\n        /* \"#utility.yul\":10861:10863   */\n      0x20\n        /* \"#utility.yul\":10856:10859   */\n      dup3\n        /* \"#utility.yul\":10852:10864   */\n      add\n        /* \"#utility.yul\":10845:10864   */\n      swap1\n      pop\n        /* \"#utility.yul\":10504:10870   */\n      swap2\n      swap1\n      pop\n      jump\t// out\n        /* \"#utility.yul\":10876:11295   */\n    tag_135:\n        /* \"#utility.yul\":11042:11046   */\n      0x00\n        /* \"#utility.yul\":11080:11082   */\n      0x20\n        /* \"#utility.yul\":11069:11078   */\n      dup3\n        /* \"#utility.yul\":11065:11083   */\n      add\n        /* \"#utility.yul\":11057:11083   */\n      swap1\n      pop\n        /* \"#utility.yul\":11129:11138   */\n      dup2\n        /* \"#utility.yul\":11123:11127   */\n      dup2\n        /* \"#utility.yul\":11119:11139   */\n      sub\n        /* \"#utility.yul\":11115:11116   */\n      0x00\n        /* \"#utility.yul\":11104:11113   */\n      dup4\n        /* \"#utility.yul\":11100:11117   */\n      add\n        /* \"#utility.yul\":11093:11140   */\n      mstore\n        /* \"#utility.yul\":11157:11288   */\n      tag_304\n        /* \"#utility.yul\":11283:11287   */\n      dup2\n        /* \"#utility.yul\":11157:11288   */\n      tag_189\n      jump\t// in\n    tag_304:\n        /* \"#utility.yul\":11149:11288   */\n      swap1\n      pop\n        /* \"#utility.yul\":10876:11295   */\n      swap2\n      swap1\n      pop\n      jump\t// out\n        /* \"#utility.yul\":11301:11522   */\n    tag_190:\n        /* \"#utility.yul\":11441:11475   */\n      0x45524332303a20496e73756666696369656e742073656e6465722062616c616e\n        /* \"#utility.yul\":11437:11438   */\n      0x00\n        /* \"#utility.yul\":11429:11435   */\n      dup3\n        /* \"#utility.yul\":11425:11439   */\n      add\n        /* \"#utility.yul\":11418:11476   */\n      mstore\n        /* \"#utility.yul\":11510:11514   */\n      0x6365000000000000000000000000000000000000000000000000000000000000\n        /* \"#utility.yul\":11505:11507   */\n      0x20\n        /* \"#utility.yul\":11497:11503   */\n      dup3\n        /* \"#utility.yul\":11493:11508   */\n      add\n        /* \"#utility.yul\":11486:11515   */\n      mstore\n        /* \"#utility.yul\":11301:11522   */\n      pop\n      jump\t// out\n        /* \"#utility.yul\":11528:11894   */\n    tag_191:\n        /* \"#utility.yul\":11670:11673   */\n      0x00\n        /* \"#utility.yul\":11691:11758   */\n      tag_307\n        /* \"#utility.yul\":11755:11757   */\n      0x22\n        /* \"#utility.yul\":11750:11753   */\n      dup4\n        /* \"#utility.yul\":11691:11758   */\n      tag_160\n      jump\t// in\n    tag_307:\n        /* \"#utility.yul\":11684:11758   */\n      swap2\n      pop\n        /* \"#utility.yul\":11767:11860   */\n      tag_308\n        /* \"#utility.yul\":11856:11859   */\n      dup3\n        /* \"#utility.yul\":11767:11860   */\n      tag_190\n      jump\t// in\n    tag_308:\n        /* \"#utility.yul\":11885:11887   */\n      0x40\n        /* \"#utility.yul\":11880:11883   */\n      dup3\n        /* \"#utility.yul\":11876:11888   */\n      add\n        /* \"#utility.yul\":11869:11888   */\n      swap1\n      pop\n        /* \"#utility.yul\":11528:11894   */\n      swap2\n      swap1\n      pop\n      jump\t// out\n        /* \"#utility.yul\":11900:12319   */\n    tag_144:\n        /* \"#utility.yul\":12066:12070   */\n      0x00\n        /* \"#utility.yul\":12104:12106   */\n      0x20\n        /* \"#utility.yul\":12093:12102   */\n      dup3\n        /* \"#utility.yul\":12089:12107   */\n      add\n        /* \"#utility.yul\":12081:12107   */\n      swap1\n      pop\n        /* \"#utility.yul\":12153:12162   */\n      dup2\n        /* \"#utility.yul\":12147:12151   */\n      dup2\n        /* \"#utility.yul\":12143:12163   */\n      sub\n        /* \"#utility.yul\":12139:12140   */\n      0x00\n        /* \"#utility.yul\":12128:12137   */\n      dup4\n        /* \"#utility.yul\":12124:12141   */\n      add\n        /* \"#utility.yul\":12117:12164   */\n      mstore\n        /* \"#utility.yul\":12181:12312   */\n      tag_310\n        /* \"#utility.yul\":12307:12311   */\n      dup2\n        /* \"#utility.yul\":12181:12312   */\n      tag_191\n      jump\t// in\n    tag_310:\n        /* \"#utility.yul\":12173:12312   */\n      swap1\n      pop\n        /* \"#utility.yul\":11900:12319   */\n      swap2\n      swap1\n      pop\n      jump\t// out\n        /* \"#utility.yul\":12325:12507   */\n    tag_192:\n        /* \"#utility.yul\":12465:12499   */\n      0x45524332303a20496e73756666696369656e74204275726e2042616c616e6365\n        /* \"#utility.yul\":12461:12462   */\n      0x00\n        /* \"#utility.yul\":12453:12459   */\n      dup3\n        /* \"#utility.yul\":12449:12463   */\n      add\n        /* \"#utility.yul\":12442:12500   */\n      mstore\n        /* \"#utility.yul\":12325:12507   */\n      pop\n      jump\t// out\n        /* \"#utility.yul\":12513:12879   */\n    tag_193:\n        /* \"#utility.yul\":12655:12658   */\n      0x00\n        /* \"#utility.yul\":12676:12743   */\n      tag_313\n        /* \"#utility.yul\":12740:12742   */\n      0x20\n        /* \"#utility.yul\":12735:12738   */\n      dup4\n        /* \"#utility.yul\":12676:12743   */\n      tag_160\n      jump\t// in\n    tag_313:\n        /* \"#utility.yul\":12669:12743   */\n      swap2\n      pop\n        /* \"#utility.yul\":12752:12845   */\n      tag_314\n        /* \"#utility.yul\":12841:12844   */\n      dup3\n        /* \"#utility.yul\":12752:12845   */\n      tag_192\n      jump\t// in\n    tag_314:\n        /* \"#utility.yul\":12870:12872   */\n      0x20\n        /* \"#utility.yul\":12865:12868   */\n      dup3\n        /* \"#utility.yul\":12861:12873   */\n      add\n        /* \"#utility.yul\":12854:12873   */\n      swap1\n      pop\n        /* \"#utility.yul\":12513:12879   */\n      swap2\n      swap1\n      pop\n      jump\t// out\n        /* \"#utility.yul\":12885:13304   */\n    tag_155:\n        /* \"#utility.yul\":13051:13055   */\n      0x00\n        /* \"#utility.yul\":13089:13091   */\n      0x20\n        /* \"#utility.yul\":13078:13087   */\n      dup3\n        /* \"#utility.yul\":13074:13092   */\n      add\n        /* \"#utility.yul\":13066:13092   */\n      swap1\n      pop\n        /* \"#utility.yul\":13138:13147   */\n      dup2\n        /* \"#utility.yul\":13132:13136   */\n      dup2\n        /* \"#utility.yul\":13128:13148   */\n      sub\n        /* \"#utility.yul\":13124:13125   */\n      0x00\n        /* \"#utility.yul\":13113:13122   */\n      dup4\n        /* \"#utility.yul\":13109:13126   */\n      add\n        /* \"#utility.yul\":13102:13149   */\n      mstore\n        /* \"#utility.yul\":13166:13297   */\n      tag_316\n        /* \"#utility.yul\":13292:13296   */\n      dup2\n        /* \"#utility.yul\":13166:13297   */\n      tag_193\n      jump\t// in\n    tag_316:\n        /* \"#utility.yul\":13158:13297   */\n      swap1\n      pop\n        /* \"#utility.yul\":12885:13304   */\n      swap2\n      swap1\n      pop\n      jump\t// out\n\n    auxdata: 0xa2646970667358221220045d4f4fedfe85046bff4b4a10c48cb4a0452d3127fc0b0355a2cbe7ca2b336564736f6c634300081a0033\n}\n",
				"bytecode": {
					"linkReferences": {},
					"object": "60a060405234801561000f575f80fd5b50604051611c37380380611c3783398181016040528101906100319190610284565b825f908161003f919061052d565b50816001908161004f919061052d565b508060ff1660808160ff16815250508360035f6101000a81548173ffffffffffffffffffffffffffffffffffffffff021916908373ffffffffffffffffffffffffffffffffffffffff160217905550505050506105fc565b5f604051905090565b5f80fd5b5f80fd5b5f73ffffffffffffffffffffffffffffffffffffffff82169050919050565b5f6100e1826100b8565b9050919050565b6100f1816100d7565b81146100fb575f80fd5b50565b5f8151905061010c816100e8565b92915050565b5f80fd5b5f80fd5b5f601f19601f8301169050919050565b7f4e487b71000000000000000000000000000000000000000000000000000000005f52604160045260245ffd5b6101608261011a565b810181811067ffffffffffffffff8211171561017f5761017e61012a565b5b80604052505050565b5f6101916100a7565b905061019d8282610157565b919050565b5f67ffffffffffffffff8211156101bc576101bb61012a565b5b6101c58261011a565b9050602081019050919050565b8281835e5f83830152505050565b5f6101f26101ed846101a2565b610188565b90508281526020810184848401111561020e5761020d610116565b5b6102198482856101d2565b509392505050565b5f82601f83011261023557610234610112565b5b81516102458482602086016101e0565b91505092915050565b5f60ff82169050919050565b6102638161024e565b811461026d575f80fd5b50565b5f8151905061027e8161025a565b92915050565b5f805f806080858703121561029c5761029b6100b0565b5b5f6102a9878288016100fe565b945050602085015167ffffffffffffffff8111156102ca576102c96100b4565b5b6102d687828801610221565b935050604085015167ffffffffffffffff8111156102f7576102f66100b4565b5b61030387828801610221565b925050606061031487828801610270565b91505092959194509250565b5f81519050919050565b7f4e487b71000000000000000000000000000000000000000000000000000000005f52602260045260245ffd5b5f600282049050600182168061036e57607f821691505b6020821081036103815761038061032a565b5b50919050565b5f819050815f5260205f209050919050565b5f6020601f8301049050919050565b5f82821b905092915050565b5f600883026103e37fffffffffffffffffffffffffffffffffffffffffffffffffffffffffffffffff826103a8565b6103ed86836103a8565b95508019841693508086168417925050509392505050565b5f819050919050565b5f819050919050565b5f61043161042c61042784610405565b61040e565b610405565b9050919050565b5f819050919050565b61044a83610417565b61045e61045682610438565b8484546103b4565b825550505050565b5f90565b610472610466565b61047d818484610441565b505050565b5b818110156104a0576104955f8261046a565b600181019050610483565b5050565b601f8211156104e5576104b681610387565b6104bf84610399565b810160208510156104ce578190505b6104e26104da85610399565b830182610482565b50505b505050565b5f82821c905092915050565b5f6105055f19846008026104ea565b1980831691505092915050565b5f61051d83836104f6565b9150826002028217905092915050565b61053682610320565b67ffffffffffffffff81111561054f5761054e61012a565b5b6105598254610357565b6105648282856104a4565b5f60209050601f831160018114610595575f8415610583578287015190505b61058d8582610512565b8655506105f4565b601f1984166105a386610387565b5f5b828110156105ca578489015182556001820191506020850194506020810190506105a5565b868310156105e757848901516105e3601f8916826104f6565b8355505b6001600288020188555050505b505050505050565b6080516116236106145f395f61072c01526116235ff3fe6080604052600436106100dc575f3560e01c80638da5cb5b1161007e578063a9059cbb11610058578063a9059cbb146102b6578063d0e30db0146102f2578063db006a75146102fc578063dd62ed3e14610324576100dc565b80638da5cb5b1461023a57806395d89b41146102645780639dc29fac1461028e576100dc565b806323b872dd116100ba57806323b872dd14610170578063313ce567146101ac57806340c10f19146101d657806370a08231146101fe576100dc565b806306fdde03146100e0578063095ea7b31461010a57806318160ddd14610146575b5f80fd5b3480156100eb575f80fd5b506100f4610360565b6040516101019190610fb7565b60405180910390f35b348015610115575f80fd5b50610130600480360381019061012b9190611068565b6103eb565b60405161013d91906110c0565b60405180910390f35b348015610151575f80fd5b5061015a6104e9565b60405161016791906110e8565b60405180910390f35b34801561017b575f80fd5b5061019660048036038101906101919190611101565b6104ef565b6040516101a391906110c0565b60405180910390f35b3480156101b7575f80fd5b506101c061072a565b6040516101cd919061116c565b60405180910390f35b3480156101e1575f80fd5b506101fc60048036038101906101f79190611068565b61074e565b005b348015610209575f80fd5b50610224600480360381019061021f9190611185565b6107b4565b60405161023191906110e8565b60405180910390f35b348015610245575f80fd5b5061024e6107c9565b60405161025b91906111bf565b60405180910390f35b34801561026f575f80fd5b506102786107ee565b6040516102859190610fb7565b60405180910390f35b348015610299575f80fd5b506102b460048036038101906102af9190611068565b61087a565b005b3480156102c1575f80fd5b506102dc60048036038101906102d79190611068565b6108e0565b6040516102e991906110c0565b60405180910390f35b6102fa6108f4565b005b348015610307575f80fd5b50610322600480360381019061031d91906111d8565b610942565b005b34801561032f575f80fd5b5061034a60048036038101906103459190611203565b610b68565b60405161035791906110e8565b60405180910390f35b5f805461036c9061126e565b80601f01602080910402602001604051908101604052809291908181526020018280546103989061126e565b80156103e35780601f106103ba576101008083540402835291602001916103e3565b820191905f5260205f20905b8154815290600101906020018083116103c657829003601f168201915b505050505081565b5f8160055f3373ffffffffffffffffffffffffffffffffffffffff1673ffffffffffffffffffffffffffffffffffffffff1681526020019081526020015f205f8573ffffffffffffffffffffffffffffffffffffffff1673ffffffffffffffffffffffffffffffffffffffff1681526020019081526020015f205f82825461047391906112cb565b925050819055508273ffffffffffffffffffffffffffffffffffffffff163373ffffffffffffffffffffffffffffffffffffffff167f8c5be1e5ebec7d5bd14f71427d1e84f3dd0314c0f7b2291e5b200ac8c7c3b925846040516104d791906110e8565b60405180910390a36001905092915050565b60025481565b5f8160055f8673ffffffffffffffffffffffffffffffffffffffff1673ffffffffffffffffffffffffffffffffffffffff1681526020019081526020015f205f3373ffffffffffffffffffffffffffffffffffffffff1673ffffffffffffffffffffffffffffffffffffffff1681526020019081526020015f205410156105ab576040517f08c379a00000000000000000000000000000000000000000000000000000000081526004016105a290611348565b60405180910390fd5b8160055f8673ffffffffffffffffffffffffffffffffffffffff1673ffffffffffffffffffffffffffffffffffffffff1681526020019081526020015f205f3373ffffffffffffffffffffffffffffffffffffffff1673ffffffffffffffffffffffffffffffffffffffff1681526020019081526020015f205f8282546106329190611366565b925050819055503373ffffffffffffffffffffffffffffffffffffffff168473ffffffffffffffffffffffffffffffffffffffff167f8c5be1e5ebec7d5bd14f71427d1e84f3dd0314c0f7b2291e5b200ac8c7c3b92560055f8873ffffffffffffffffffffffffffffffffffffffff1673ffffffffffffffffffffffffffffffffffffffff1681526020019081526020015f205f3373ffffffffffffffffffffffffffffffffffffffff1673ffffffffffffffffffffffffffffffffffffffff1681526020019081526020015f205460405161070e91906110e8565b60405180910390a3610721848484610b88565b90509392505050565b7f000000000000000000000000000000000000000000000000000000000000000081565b60035f9054906101000a900473ffffffffffffffffffffffffffffffffffffffff1673ffffffffffffffffffffffffffffffffffffffff163373ffffffffffffffffffffffffffffffffffffffff16146107a6575f80fd5b6107b08282610d1f565b5050565b6004602052805f5260405f205f915090505481565b60035f9054906101000a900473ffffffffffffffffffffffffffffffffffffffff1681565b600180546107fb9061126e565b80601f01602080910402602001604051908101604052809291908181526020018280546108279061126e565b80156108725780601f1061084957610100808354040283529160200191610872565b820191905f5260205f20905b81548152906001019060200180831161085557829003601f168201915b505050505081565b60035f9054906101000a900473ffffffffffffffffffffffffffffffffffffffff1673ffffffffffffffffffffffffffffffffffffffff163373ffffffffffffffffffffffffffffffffffffffff16146108d2575f80fd5b6108dc8282610df3565b5050565b5f6108ec338484610b88565b905092915050565b5f3411610936576040517f08c379a000000000000000000000000000000000000000000000000000000000815260040161092d906113e3565b60405180910390fd5b6109403334610d1f565b565b8060055f3373ffffffffffffffffffffffffffffffffffffffff1673ffffffffffffffffffffffffffffffffffffffff1681526020019081526020015f205f3073ffffffffffffffffffffffffffffffffffffffff1673ffffffffffffffffffffffffffffffffffffffff1681526020019081526020015f205410156109fd576040517f08c379a00000000000000000000000000000000000000000000000000000000081526004016109f490611471565b60405180910390fd5b8060045f3373ffffffffffffffffffffffffffffffffffffffff1673ffffffffffffffffffffffffffffffffffffffff1681526020019081526020015f20541015610a7d576040517f08c379a0000000000000000000000000000000000000000000000000000000008152600401610a74906114d9565b60405180910390fd5b8060055f3373ffffffffffffffffffffffffffffffffffffffff1673ffffffffffffffffffffffffffffffffffffffff1681526020019081526020015f205f3073ffffffffffffffffffffffffffffffffffffffff1673ffffffffffffffffffffffffffffffffffffffff1681526020019081526020015f205f828254610b049190611366565b92505081905550610b16333083610b88565b50610b213082610df3565b3373ffffffffffffffffffffffffffffffffffffffff166108fc8290811502906040515f60405180830381858888f19350505050158015610b64573d5f803e3d5ffd5b5050565b6005602052815f5260405f20602052805f5260405f205f91509150505481565b5f8160045f8673ffffffffffffffffffffffffffffffffffffffff1673ffffffffffffffffffffffffffffffffffffffff1681526020019081526020015f20541015610c09576040517f08c379a0000000000000000000000000000000000000000000000000000000008152600401610c0090611567565b60405180910390fd5b8160045f8673ffffffffffffffffffffffffffffffffffffffff1673ffffffffffffffffffffffffffffffffffffffff1681526020019081526020015f205f828254610c559190611366565b925050819055508160045f8573ffffffffffffffffffffffffffffffffffffffff1673ffffffffffffffffffffffffffffffffffffffff1681526020019081526020015f205f828254610ca891906112cb565b925050819055508273ffffffffffffffffffffffffffffffffffffffff168473ffffffffffffffffffffffffffffffffffffffff167fddf252ad1be2c89b69c2b068fc378daa952ba7f163c4a11628f55a4df523b3ef84604051610d0c91906110e8565b60405180910390a3600190509392505050565b8060045f8473ffffffffffffffffffffffffffffffffffffffff1673ffffffffffffffffffffffffffffffffffffffff1681526020019081526020015f205f828254610d6b91906112cb565b925050819055508060025f828254610d8391906112cb565b925050819055508173ffffffffffffffffffffffffffffffffffffffff165f73ffffffffffffffffffffffffffffffffffffffff167fddf252ad1be2c89b69c2b068fc378daa952ba7f163c4a11628f55a4df523b3ef83604051610de791906110e8565b60405180910390a35050565b8060045f8473ffffffffffffffffffffffffffffffffffffffff1673ffffffffffffffffffffffffffffffffffffffff1681526020019081526020015f20541015610e73576040517f08c379a0000000000000000000000000000000000000000000000000000000008152600401610e6a906115cf565b60405180910390fd5b8060045f8473ffffffffffffffffffffffffffffffffffffffff1673ffffffffffffffffffffffffffffffffffffffff1681526020019081526020015f205f828254610ebf9190611366565b925050819055508060025f828254610ed79190611366565b925050819055505f73ffffffffffffffffffffffffffffffffffffffff168273ffffffffffffffffffffffffffffffffffffffff167fddf252ad1be2c89b69c2b068fc378daa952ba7f163c4a11628f55a4df523b3ef83604051610f3b91906110e8565b60405180910390a35050565b5f81519050919050565b5f82825260208201905092915050565b8281835e5f83830152505050565b5f601f19601f8301169050919050565b5f610f8982610f47565b610f938185610f51565b9350610fa3818560208601610f61565b610fac81610f6f565b840191505092915050565b5f6020820190508181035f830152610fcf8184610f7f565b905092915050565b5f80fd5b5f73ffffffffffffffffffffffffffffffffffffffff82169050919050565b5f61100482610fdb565b9050919050565b61101481610ffa565b811461101e575f80fd5b50565b5f8135905061102f8161100b565b92915050565b5f819050919050565b61104781611035565b8114611051575f80fd5b50565b5f813590506110628161103e565b92915050565b5f806040838503121561107e5761107d610fd7565b5b5f61108b85828601611021565b925050602061109c85828601611054565b9150509250929050565b5f8115159050919050565b6110ba816110a6565b82525050565b5f6020820190506110d35f8301846110b1565b92915050565b6110e281611035565b82525050565b5f6020820190506110fb5f8301846110d9565b92915050565b5f805f6060848603121561111857611117610fd7565b5b5f61112586828701611021565b935050602061113686828701611021565b925050604061114786828701611054565b9150509250925092565b5f60ff82169050919050565b61116681611151565b82525050565b5f60208201905061117f5f83018461115d565b92915050565b5f6020828403121561119a57611199610fd7565b5b5f6111a784828501611021565b91505092915050565b6111b981610ffa565b82525050565b5f6020820190506111d25f8301846111b0565b92915050565b5f602082840312156111ed576111ec610fd7565b5b5f6111fa84828501611054565b91505092915050565b5f806040838503121561121957611218610fd7565b5b5f61122685828601611021565b925050602061123785828601611021565b9150509250929050565b7f4e487b71000000000000000000000000000000000000000000000000000000005f52602260045260245ffd5b5f600282049050600182168061128557607f821691505b60208210810361129857611297611241565b5b50919050565b7f4e487b71000000000000000000000000000000000000000000000000000000005f52601160045260245ffd5b5f6112d582611035565b91506112e083611035565b92508282019050808211156112f8576112f761129e565b5b92915050565b7f45524332303a20496e73756666696369656e7420416c6c6f77616e63650000005f82015250565b5f611332601d83610f51565b915061133d826112fe565b602082019050919050565b5f6020820190508181035f83015261135f81611326565b9050919050565b5f61137082611035565b915061137b83611035565b92508282039050818111156113935761139261129e565b5b92915050565b7f4d7573742073656e6420457468657220746f206465706f7369740000000000005f82015250565b5f6113cd601a83610f51565b91506113d882611399565b602082019050919050565b5f6020820190508181035f8301526113fa816113c1565b9050919050565b7f436f6e7472616374206e6f7420617070726f76656420746f207370656e6420745f8201527f6f6b656e73000000000000000000000000000000000000000000000000000000602082015250565b5f61145b602583610f51565b915061146682611401565b604082019050919050565b5f6020820190508181035f8301526114888161144f565b9050919050565b7f4e6f7420656e6f75676820746f6b656e730000000000000000000000000000005f82015250565b5f6114c3601183610f51565b91506114ce8261148f565b602082019050919050565b5f6020820190508181035f8301526114f0816114b7565b9050919050565b7f45524332303a20496e73756666696369656e742073656e6465722062616c616e5f8201527f6365000000000000000000000000000000000000000000000000000000000000602082015250565b5f611551602283610f51565b915061155c826114f7565b604082019050919050565b5f6020820190508181035f83015261157e81611545565b9050919050565b7f45524332303a20496e73756666696369656e74204275726e2042616c616e63655f82015250565b5f6115b9602083610f51565b91506115c482611585565b602082019050919050565b5f6020820190508181035f8301526115e6816115ad565b905091905056fea2646970667358221220045d4f4fedfe85046bff4b4a10c48cb4a0452d3127fc0b0355a2cbe7ca2b336564736f6c634300081a0033",
					"opcodes": "PUSH1 0xA0 PUSH1 0x40 MSTORE CALLVALUE DUP1 ISZERO PUSH2 0xF JUMPI PUSH0 DUP1 REVERT JUMPDEST POP PUSH1 0x40 MLOAD PUSH2 0x1C37 CODESIZE SUB DUP1 PUSH2 0x1C37 DUP4 CODECOPY DUP2 DUP2 ADD PUSH1 0x40 MSTORE DUP2 ADD SWAP1 PUSH2 0x31 SWAP2 SWAP1 PUSH2 0x284 JUMP JUMPDEST DUP3 PUSH0 SWAP1 DUP2 PUSH2 0x3F SWAP2 SWAP1 PUSH2 0x52D JUMP JUMPDEST POP DUP2 PUSH1 0x1 SWAP1 DUP2 PUSH2 0x4F SWAP2 SWAP1 PUSH2 0x52D JUMP JUMPDEST POP DUP1 PUSH1 0xFF AND PUSH1 0x80 DUP2 PUSH1 0xFF AND DUP2 MSTORE POP POP DUP4 PUSH1 0x3 PUSH0 PUSH2 0x100 EXP DUP2 SLOAD DUP2 PUSH20 0xFFFFFFFFFFFFFFFFFFFFFFFFFFFFFFFFFFFFFFFF MUL NOT AND SWAP1 DUP4 PUSH20 0xFFFFFFFFFFFFFFFFFFFFFFFFFFFFFFFFFFFFFFFF AND MUL OR SWAP1 SSTORE POP POP POP POP POP PUSH2 0x5FC JUMP JUMPDEST PUSH0 PUSH1 0x40 MLOAD SWAP1 POP SWAP1 JUMP JUMPDEST PUSH0 DUP1 REVERT JUMPDEST PUSH0 DUP1 REVERT JUMPDEST PUSH0 PUSH20 0xFFFFFFFFFFFFFFFFFFFFFFFFFFFFFFFFFFFFFFFF DUP3 AND SWAP1 POP SWAP2 SWAP1 POP JUMP JUMPDEST PUSH0 PUSH2 0xE1 DUP3 PUSH2 0xB8 JUMP JUMPDEST SWAP1 POP SWAP2 SWAP1 POP JUMP JUMPDEST PUSH2 0xF1 DUP2 PUSH2 0xD7 JUMP JUMPDEST DUP2 EQ PUSH2 0xFB JUMPI PUSH0 DUP1 REVERT JUMPDEST POP JUMP JUMPDEST PUSH0 DUP2 MLOAD SWAP1 POP PUSH2 0x10C DUP2 PUSH2 0xE8 JUMP JUMPDEST SWAP3 SWAP2 POP POP JUMP JUMPDEST PUSH0 DUP1 REVERT JUMPDEST PUSH0 DUP1 REVERT JUMPDEST PUSH0 PUSH1 0x1F NOT PUSH1 0x1F DUP4 ADD AND SWAP1 POP SWAP2 SWAP1 POP JUMP JUMPDEST PUSH32 0x4E487B7100000000000000000000000000000000000000000000000000000000 PUSH0 MSTORE PUSH1 0x41 PUSH1 0x4 MSTORE PUSH1 0x24 PUSH0 REVERT JUMPDEST PUSH2 0x160 DUP3 PUSH2 0x11A JUMP JUMPDEST DUP2 ADD DUP2 DUP2 LT PUSH8 0xFFFFFFFFFFFFFFFF DUP3 GT OR ISZERO PUSH2 0x17F JUMPI PUSH2 0x17E PUSH2 0x12A JUMP JUMPDEST JUMPDEST DUP1 PUSH1 0x40 MSTORE POP POP POP JUMP JUMPDEST PUSH0 PUSH2 0x191 PUSH2 0xA7 JUMP JUMPDEST SWAP1 POP PUSH2 0x19D DUP3 DUP3 PUSH2 0x157 JUMP JUMPDEST SWAP2 SWAP1 POP JUMP JUMPDEST PUSH0 PUSH8 0xFFFFFFFFFFFFFFFF DUP3 GT ISZERO PUSH2 0x1BC JUMPI PUSH2 0x1BB PUSH2 0x12A JUMP JUMPDEST JUMPDEST PUSH2 0x1C5 DUP3 PUSH2 0x11A JUMP JUMPDEST SWAP1 POP PUSH1 0x20 DUP2 ADD SWAP1 POP SWAP2 SWAP1 POP JUMP JUMPDEST DUP3 DUP2 DUP4 MCOPY PUSH0 DUP4 DUP4 ADD MSTORE POP POP POP JUMP JUMPDEST PUSH0 PUSH2 0x1F2 PUSH2 0x1ED DUP5 PUSH2 0x1A2 JUMP JUMPDEST PUSH2 0x188 JUMP JUMPDEST SWAP1 POP DUP3 DUP2 MSTORE PUSH1 0x20 DUP2 ADD DUP5 DUP5 DUP5 ADD GT ISZERO PUSH2 0x20E JUMPI PUSH2 0x20D PUSH2 0x116 JUMP JUMPDEST JUMPDEST PUSH2 0x219 DUP5 DUP3 DUP6 PUSH2 0x1D2 JUMP JUMPDEST POP SWAP4 SWAP3 POP POP POP JUMP JUMPDEST PUSH0 DUP3 PUSH1 0x1F DUP4 ADD SLT PUSH2 0x235 JUMPI PUSH2 0x234 PUSH2 0x112 JUMP JUMPDEST JUMPDEST DUP2 MLOAD PUSH2 0x245 DUP5 DUP3 PUSH1 0x20 DUP7 ADD PUSH2 0x1E0 JUMP JUMPDEST SWAP2 POP POP SWAP3 SWAP2 POP POP JUMP JUMPDEST PUSH0 PUSH1 0xFF DUP3 AND SWAP1 POP SWAP2 SWAP1 POP JUMP JUMPDEST PUSH2 0x263 DUP2 PUSH2 0x24E JUMP JUMPDEST DUP2 EQ PUSH2 0x26D JUMPI PUSH0 DUP1 REVERT JUMPDEST POP JUMP JUMPDEST PUSH0 DUP2 MLOAD SWAP1 POP PUSH2 0x27E DUP2 PUSH2 0x25A JUMP JUMPDEST SWAP3 SWAP2 POP POP JUMP JUMPDEST PUSH0 DUP1 PUSH0 DUP1 PUSH1 0x80 DUP6 DUP8 SUB SLT ISZERO PUSH2 0x29C JUMPI PUSH2 0x29B PUSH2 0xB0 JUMP JUMPDEST JUMPDEST PUSH0 PUSH2 0x2A9 DUP8 DUP3 DUP9 ADD PUSH2 0xFE JUMP JUMPDEST SWAP5 POP POP PUSH1 0x20 DUP6 ADD MLOAD PUSH8 0xFFFFFFFFFFFFFFFF DUP2 GT ISZERO PUSH2 0x2CA JUMPI PUSH2 0x2C9 PUSH2 0xB4 JUMP JUMPDEST JUMPDEST PUSH2 0x2D6 DUP8 DUP3 DUP9 ADD PUSH2 0x221 JUMP JUMPDEST SWAP4 POP POP PUSH1 0x40 DUP6 ADD MLOAD PUSH8 0xFFFFFFFFFFFFFFFF DUP2 GT ISZERO PUSH2 0x2F7 JUMPI PUSH2 0x2F6 PUSH2 0xB4 JUMP JUMPDEST JUMPDEST PUSH2 0x303 DUP8 DUP3 DUP9 ADD PUSH2 0x221 JUMP JUMPDEST SWAP3 POP POP PUSH1 0x60 PUSH2 0x314 DUP8 DUP3 DUP9 ADD PUSH2 0x270 JUMP JUMPDEST SWAP2 POP POP SWAP3 SWAP6 SWAP2 SWAP5 POP SWAP3 POP JUMP JUMPDEST PUSH0 DUP2 MLOAD SWAP1 POP SWAP2 SWAP1 POP JUMP JUMPDEST PUSH32 0x4E487B7100000000000000000000000000000000000000000000000000000000 PUSH0 MSTORE PUSH1 0x22 PUSH1 0x4 MSTORE PUSH1 0x24 PUSH0 REVERT JUMPDEST PUSH0 PUSH1 0x2 DUP3 DIV SWAP1 POP PUSH1 0x1 DUP3 AND DUP1 PUSH2 0x36E JUMPI PUSH1 0x7F DUP3 AND SWAP2 POP JUMPDEST PUSH1 0x20 DUP3 LT DUP2 SUB PUSH2 0x381 JUMPI PUSH2 0x380 PUSH2 0x32A JUMP JUMPDEST JUMPDEST POP SWAP2 SWAP1 POP JUMP JUMPDEST PUSH0 DUP2 SWAP1 POP DUP2 PUSH0 MSTORE PUSH1 0x20 PUSH0 KECCAK256 SWAP1 POP SWAP2 SWAP1 POP JUMP JUMPDEST PUSH0 PUSH1 0x20 PUSH1 0x1F DUP4 ADD DIV SWAP1 POP SWAP2 SWAP1 POP JUMP JUMPDEST PUSH0 DUP3 DUP3 SHL SWAP1 POP SWAP3 SWAP2 POP POP JUMP JUMPDEST PUSH0 PUSH1 0x8 DUP4 MUL PUSH2 0x3E3 PUSH32 0xFFFFFFFFFFFFFFFFFFFFFFFFFFFFFFFFFFFFFFFFFFFFFFFFFFFFFFFFFFFFFFFF DUP3 PUSH2 0x3A8 JUMP JUMPDEST PUSH2 0x3ED DUP7 DUP4 PUSH2 0x3A8 JUMP JUMPDEST SWAP6 POP DUP1 NOT DUP5 AND SWAP4 POP DUP1 DUP7 AND DUP5 OR SWAP3 POP POP POP SWAP4 SWAP3 POP POP POP JUMP JUMPDEST PUSH0 DUP2 SWAP1 POP SWAP2 SWAP1 POP JUMP JUMPDEST PUSH0 DUP2 SWAP1 POP SWAP2 SWAP1 POP JUMP JUMPDEST PUSH0 PUSH2 0x431 PUSH2 0x42C PUSH2 0x427 DUP5 PUSH2 0x405 JUMP JUMPDEST PUSH2 0x40E JUMP JUMPDEST PUSH2 0x405 JUMP JUMPDEST SWAP1 POP SWAP2 SWAP1 POP JUMP JUMPDEST PUSH0 DUP2 SWAP1 POP SWAP2 SWAP1 POP JUMP JUMPDEST PUSH2 0x44A DUP4 PUSH2 0x417 JUMP JUMPDEST PUSH2 0x45E PUSH2 0x456 DUP3 PUSH2 0x438 JUMP JUMPDEST DUP5 DUP5 SLOAD PUSH2 0x3B4 JUMP JUMPDEST DUP3 SSTORE POP POP POP POP JUMP JUMPDEST PUSH0 SWAP1 JUMP JUMPDEST PUSH2 0x472 PUSH2 0x466 JUMP JUMPDEST PUSH2 0x47D DUP2 DUP5 DUP5 PUSH2 0x441 JUMP JUMPDEST POP POP POP JUMP JUMPDEST JUMPDEST DUP2 DUP2 LT ISZERO PUSH2 0x4A0 JUMPI PUSH2 0x495 PUSH0 DUP3 PUSH2 0x46A JUMP JUMPDEST PUSH1 0x1 DUP2 ADD SWAP1 POP PUSH2 0x483 JUMP JUMPDEST POP POP JUMP JUMPDEST PUSH1 0x1F DUP3 GT ISZERO PUSH2 0x4E5 JUMPI PUSH2 0x4B6 DUP2 PUSH2 0x387 JUMP JUMPDEST PUSH2 0x4BF DUP5 PUSH2 0x399 JUMP JUMPDEST DUP2 ADD PUSH1 0x20 DUP6 LT ISZERO PUSH2 0x4CE JUMPI DUP2 SWAP1 POP JUMPDEST PUSH2 0x4E2 PUSH2 0x4DA DUP6 PUSH2 0x399 JUMP JUMPDEST DUP4 ADD DUP3 PUSH2 0x482 JUMP JUMPDEST POP POP JUMPDEST POP POP POP JUMP JUMPDEST PUSH0 DUP3 DUP3 SHR SWAP1 POP SWAP3 SWAP2 POP POP JUMP JUMPDEST PUSH0 PUSH2 0x505 PUSH0 NOT DUP5 PUSH1 0x8 MUL PUSH2 0x4EA JUMP JUMPDEST NOT DUP1 DUP4 AND SWAP2 POP POP SWAP3 SWAP2 POP POP JUMP JUMPDEST PUSH0 PUSH2 0x51D DUP4 DUP4 PUSH2 0x4F6 JUMP JUMPDEST SWAP2 POP DUP3 PUSH1 0x2 MUL DUP3 OR SWAP1 POP SWAP3 SWAP2 POP POP JUMP JUMPDEST PUSH2 0x536 DUP3 PUSH2 0x320 JUMP JUMPDEST PUSH8 0xFFFFFFFFFFFFFFFF DUP2 GT ISZERO PUSH2 0x54F JUMPI PUSH2 0x54E PUSH2 0x12A JUMP JUMPDEST JUMPDEST PUSH2 0x559 DUP3 SLOAD PUSH2 0x357 JUMP JUMPDEST PUSH2 0x564 DUP3 DUP3 DUP6 PUSH2 0x4A4 JUMP JUMPDEST PUSH0 PUSH1 0x20 SWAP1 POP PUSH1 0x1F DUP4 GT PUSH1 0x1 DUP2 EQ PUSH2 0x595 JUMPI PUSH0 DUP5 ISZERO PUSH2 0x583 JUMPI DUP3 DUP8 ADD MLOAD SWAP1 POP JUMPDEST PUSH2 0x58D DUP6 DUP3 PUSH2 0x512 JUMP JUMPDEST DUP7 SSTORE POP PUSH2 0x5F4 JUMP JUMPDEST PUSH1 0x1F NOT DUP5 AND PUSH2 0x5A3 DUP7 PUSH2 0x387 JUMP JUMPDEST PUSH0 JUMPDEST DUP3 DUP2 LT ISZERO PUSH2 0x5CA JUMPI DUP5 DUP10 ADD MLOAD DUP3 SSTORE PUSH1 0x1 DUP3 ADD SWAP2 POP PUSH1 0x20 DUP6 ADD SWAP5 POP PUSH1 0x20 DUP2 ADD SWAP1 POP PUSH2 0x5A5 JUMP JUMPDEST DUP7 DUP4 LT ISZERO PUSH2 0x5E7 JUMPI DUP5 DUP10 ADD MLOAD PUSH2 0x5E3 PUSH1 0x1F DUP10 AND DUP3 PUSH2 0x4F6 JUMP JUMPDEST DUP4 SSTORE POP JUMPDEST PUSH1 0x1 PUSH1 0x2 DUP9 MUL ADD DUP9 SSTORE POP POP POP JUMPDEST POP POP POP POP POP POP JUMP JUMPDEST PUSH1 0x80 MLOAD PUSH2 0x1623 PUSH2 0x614 PUSH0 CODECOPY PUSH0 PUSH2 0x72C ADD MSTORE PUSH2 0x1623 PUSH0 RETURN INVALID PUSH1 0x80 PUSH1 0x40 MSTORE PUSH1 0x4 CALLDATASIZE LT PUSH2 0xDC JUMPI PUSH0 CALLDATALOAD PUSH1 0xE0 SHR DUP1 PUSH4 0x8DA5CB5B GT PUSH2 0x7E JUMPI DUP1 PUSH4 0xA9059CBB GT PUSH2 0x58 JUMPI DUP1 PUSH4 0xA9059CBB EQ PUSH2 0x2B6 JUMPI DUP1 PUSH4 0xD0E30DB0 EQ PUSH2 0x2F2 JUMPI DUP1 PUSH4 0xDB006A75 EQ PUSH2 0x2FC JUMPI DUP1 PUSH4 0xDD62ED3E EQ PUSH2 0x324 JUMPI PUSH2 0xDC JUMP JUMPDEST DUP1 PUSH4 0x8DA5CB5B EQ PUSH2 0x23A JUMPI DUP1 PUSH4 0x95D89B41 EQ PUSH2 0x264 JUMPI DUP1 PUSH4 0x9DC29FAC EQ PUSH2 0x28E JUMPI PUSH2 0xDC JUMP JUMPDEST DUP1 PUSH4 0x23B872DD GT PUSH2 0xBA JUMPI DUP1 PUSH4 0x23B872DD EQ PUSH2 0x170 JUMPI DUP1 PUSH4 0x313CE567 EQ PUSH2 0x1AC JUMPI DUP1 PUSH4 0x40C10F19 EQ PUSH2 0x1D6 JUMPI DUP1 PUSH4 0x70A08231 EQ PUSH2 0x1FE JUMPI PUSH2 0xDC JUMP JUMPDEST DUP1 PUSH4 0x6FDDE03 EQ PUSH2 0xE0 JUMPI DUP1 PUSH4 0x95EA7B3 EQ PUSH2 0x10A JUMPI DUP1 PUSH4 0x18160DDD EQ PUSH2 0x146 JUMPI JUMPDEST PUSH0 DUP1 REVERT JUMPDEST CALLVALUE DUP1 ISZERO PUSH2 0xEB JUMPI PUSH0 DUP1 REVERT JUMPDEST POP PUSH2 0xF4 PUSH2 0x360 JUMP JUMPDEST PUSH1 0x40 MLOAD PUSH2 0x101 SWAP2 SWAP1 PUSH2 0xFB7 JUMP JUMPDEST PUSH1 0x40 MLOAD DUP1 SWAP2 SUB SWAP1 RETURN JUMPDEST CALLVALUE DUP1 ISZERO PUSH2 0x115 JUMPI PUSH0 DUP1 REVERT JUMPDEST POP PUSH2 0x130 PUSH1 0x4 DUP1 CALLDATASIZE SUB DUP2 ADD SWAP1 PUSH2 0x12B SWAP2 SWAP1 PUSH2 0x1068 JUMP JUMPDEST PUSH2 0x3EB JUMP JUMPDEST PUSH1 0x40 MLOAD PUSH2 0x13D SWAP2 SWAP1 PUSH2 0x10C0 JUMP JUMPDEST PUSH1 0x40 MLOAD DUP1 SWAP2 SUB SWAP1 RETURN JUMPDEST CALLVALUE DUP1 ISZERO PUSH2 0x151 JUMPI PUSH0 DUP1 REVERT JUMPDEST POP PUSH2 0x15A PUSH2 0x4E9 JUMP JUMPDEST PUSH1 0x40 MLOAD PUSH2 0x167 SWAP2 SWAP1 PUSH2 0x10E8 JUMP JUMPDEST PUSH1 0x40 MLOAD DUP1 SWAP2 SUB SWAP1 RETURN JUMPDEST CALLVALUE DUP1 ISZERO PUSH2 0x17B JUMPI PUSH0 DUP1 REVERT JUMPDEST POP PUSH2 0x196 PUSH1 0x4 DUP1 CALLDATASIZE SUB DUP2 ADD SWAP1 PUSH2 0x191 SWAP2 SWAP1 PUSH2 0x1101 JUMP JUMPDEST PUSH2 0x4EF JUMP JUMPDEST PUSH1 0x40 MLOAD PUSH2 0x1A3 SWAP2 SWAP1 PUSH2 0x10C0 JUMP JUMPDEST PUSH1 0x40 MLOAD DUP1 SWAP2 SUB SWAP1 RETURN JUMPDEST CALLVALUE DUP1 ISZERO PUSH2 0x1B7 JUMPI PUSH0 DUP1 REVERT JUMPDEST POP PUSH2 0x1C0 PUSH2 0x72A JUMP JUMPDEST PUSH1 0x40 MLOAD PUSH2 0x1CD SWAP2 SWAP1 PUSH2 0x116C JUMP JUMPDEST PUSH1 0x40 MLOAD DUP1 SWAP2 SUB SWAP1 RETURN JUMPDEST CALLVALUE DUP1 ISZERO PUSH2 0x1E1 JUMPI PUSH0 DUP1 REVERT JUMPDEST POP PUSH2 0x1FC PUSH1 0x4 DUP1 CALLDATASIZE SUB DUP2 ADD SWAP1 PUSH2 0x1F7 SWAP2 SWAP1 PUSH2 0x1068 JUMP JUMPDEST PUSH2 0x74E JUMP JUMPDEST STOP JUMPDEST CALLVALUE DUP1 ISZERO PUSH2 0x209 JUMPI PUSH0 DUP1 REVERT JUMPDEST POP PUSH2 0x224 PUSH1 0x4 DUP1 CALLDATASIZE SUB DUP2 ADD SWAP1 PUSH2 0x21F SWAP2 SWAP1 PUSH2 0x1185 JUMP JUMPDEST PUSH2 0x7B4 JUMP JUMPDEST PUSH1 0x40 MLOAD PUSH2 0x231 SWAP2 SWAP1 PUSH2 0x10E8 JUMP JUMPDEST PUSH1 0x40 MLOAD DUP1 SWAP2 SUB SWAP1 RETURN JUMPDEST CALLVALUE DUP1 ISZERO PUSH2 0x245 JUMPI PUSH0 DUP1 REVERT JUMPDEST POP PUSH2 0x24E PUSH2 0x7C9 JUMP JUMPDEST PUSH1 0x40 MLOAD PUSH2 0x25B SWAP2 SWAP1 PUSH2 0x11BF JUMP JUMPDEST PUSH1 0x40 MLOAD DUP1 SWAP2 SUB SWAP1 RETURN JUMPDEST CALLVALUE DUP1 ISZERO PUSH2 0x26F JUMPI PUSH0 DUP1 REVERT JUMPDEST POP PUSH2 0x278 PUSH2 0x7EE JUMP JUMPDEST PUSH1 0x40 MLOAD PUSH2 0x285 SWAP2 SWAP1 PUSH2 0xFB7 JUMP JUMPDEST PUSH1 0x40 MLOAD DUP1 SWAP2 SUB SWAP1 RETURN JUMPDEST CALLVALUE DUP1 ISZERO PUSH2 0x299 JUMPI PUSH0 DUP1 REVERT JUMPDEST POP PUSH2 0x2B4 PUSH1 0x4 DUP1 CALLDATASIZE SUB DUP2 ADD SWAP1 PUSH2 0x2AF SWAP2 SWAP1 PUSH2 0x1068 JUMP JUMPDEST PUSH2 0x87A JUMP JUMPDEST STOP JUMPDEST CALLVALUE DUP1 ISZERO PUSH2 0x2C1 JUMPI PUSH0 DUP1 REVERT JUMPDEST POP PUSH2 0x2DC PUSH1 0x4 DUP1 CALLDATASIZE SUB DUP2 ADD SWAP1 PUSH2 0x2D7 SWAP2 SWAP1 PUSH2 0x1068 JUMP JUMPDEST PUSH2 0x8E0 JUMP JUMPDEST PUSH1 0x40 MLOAD PUSH2 0x2E9 SWAP2 SWAP1 PUSH2 0x10C0 JUMP JUMPDEST PUSH1 0x40 MLOAD DUP1 SWAP2 SUB SWAP1 RETURN JUMPDEST PUSH2 0x2FA PUSH2 0x8F4 JUMP JUMPDEST STOP JUMPDEST CALLVALUE DUP1 ISZERO PUSH2 0x307 JUMPI PUSH0 DUP1 REVERT JUMPDEST POP PUSH2 0x322 PUSH1 0x4 DUP1 CALLDATASIZE SUB DUP2 ADD SWAP1 PUSH2 0x31D SWAP2 SWAP1 PUSH2 0x11D8 JUMP JUMPDEST PUSH2 0x942 JUMP JUMPDEST STOP JUMPDEST CALLVALUE DUP1 ISZERO PUSH2 0x32F JUMPI PUSH0 DUP1 REVERT JUMPDEST POP PUSH2 0x34A PUSH1 0x4 DUP1 CALLDATASIZE SUB DUP2 ADD SWAP1 PUSH2 0x345 SWAP2 SWAP1 PUSH2 0x1203 JUMP JUMPDEST PUSH2 0xB68 JUMP JUMPDEST PUSH1 0x40 MLOAD PUSH2 0x357 SWAP2 SWAP1 PUSH2 0x10E8 JUMP JUMPDEST PUSH1 0x40 MLOAD DUP1 SWAP2 SUB SWAP1 RETURN JUMPDEST PUSH0 DUP1 SLOAD PUSH2 0x36C SWAP1 PUSH2 0x126E JUMP JUMPDEST DUP1 PUSH1 0x1F ADD PUSH1 0x20 DUP1 SWAP2 DIV MUL PUSH1 0x20 ADD PUSH1 0x40 MLOAD SWAP1 DUP2 ADD PUSH1 0x40 MSTORE DUP1 SWAP3 SWAP2 SWAP1 DUP2 DUP2 MSTORE PUSH1 0x20 ADD DUP3 DUP1 SLOAD PUSH2 0x398 SWAP1 PUSH2 0x126E JUMP JUMPDEST DUP1 ISZERO PUSH2 0x3E3 JUMPI DUP1 PUSH1 0x1F LT PUSH2 0x3BA JUMPI PUSH2 0x100 DUP1 DUP4 SLOAD DIV MUL DUP4 MSTORE SWAP2 PUSH1 0x20 ADD SWAP2 PUSH2 0x3E3 JUMP JUMPDEST DUP3 ADD SWAP2 SWAP1 PUSH0 MSTORE PUSH1 0x20 PUSH0 KECCAK256 SWAP1 JUMPDEST DUP2 SLOAD DUP2 MSTORE SWAP1 PUSH1 0x1 ADD SWAP1 PUSH1 0x20 ADD DUP1 DUP4 GT PUSH2 0x3C6 JUMPI DUP3 SWAP1 SUB PUSH1 0x1F AND DUP3 ADD SWAP2 JUMPDEST POP POP POP POP POP DUP2 JUMP JUMPDEST PUSH0 DUP2 PUSH1 0x5 PUSH0 CALLER PUSH20 0xFFFFFFFFFFFFFFFFFFFFFFFFFFFFFFFFFFFFFFFF AND PUSH20 0xFFFFFFFFFFFFFFFFFFFFFFFFFFFFFFFFFFFFFFFF AND DUP2 MSTORE PUSH1 0x20 ADD SWAP1 DUP2 MSTORE PUSH1 0x20 ADD PUSH0 KECCAK256 PUSH0 DUP6 PUSH20 0xFFFFFFFFFFFFFFFFFFFFFFFFFFFFFFFFFFFFFFFF AND PUSH20 0xFFFFFFFFFFFFFFFFFFFFFFFFFFFFFFFFFFFFFFFF AND DUP2 MSTORE PUSH1 0x20 ADD SWAP1 DUP2 MSTORE PUSH1 0x20 ADD PUSH0 KECCAK256 PUSH0 DUP3 DUP3 SLOAD PUSH2 0x473 SWAP2 SWAP1 PUSH2 0x12CB JUMP JUMPDEST SWAP3 POP POP DUP2 SWAP1 SSTORE POP DUP3 PUSH20 0xFFFFFFFFFFFFFFFFFFFFFFFFFFFFFFFFFFFFFFFF AND CALLER PUSH20 0xFFFFFFFFFFFFFFFFFFFFFFFFFFFFFFFFFFFFFFFF AND PUSH32 0x8C5BE1E5EBEC7D5BD14F71427D1E84F3DD0314C0F7B2291E5B200AC8C7C3B925 DUP5 PUSH1 0x40 MLOAD PUSH2 0x4D7 SWAP2 SWAP1 PUSH2 0x10E8 JUMP JUMPDEST PUSH1 0x40 MLOAD DUP1 SWAP2 SUB SWAP1 LOG3 PUSH1 0x1 SWAP1 POP SWAP3 SWAP2 POP POP JUMP JUMPDEST PUSH1 0x2 SLOAD DUP2 JUMP JUMPDEST PUSH0 DUP2 PUSH1 0x5 PUSH0 DUP7 PUSH20 0xFFFFFFFFFFFFFFFFFFFFFFFFFFFFFFFFFFFFFFFF AND PUSH20 0xFFFFFFFFFFFFFFFFFFFFFFFFFFFFFFFFFFFFFFFF AND DUP2 MSTORE PUSH1 0x20 ADD SWAP1 DUP2 MSTORE PUSH1 0x20 ADD PUSH0 KECCAK256 PUSH0 CALLER PUSH20 0xFFFFFFFFFFFFFFFFFFFFFFFFFFFFFFFFFFFFFFFF AND PUSH20 0xFFFFFFFFFFFFFFFFFFFFFFFFFFFFFFFFFFFFFFFF AND DUP2 MSTORE PUSH1 0x20 ADD SWAP1 DUP2 MSTORE PUSH1 0x20 ADD PUSH0 KECCAK256 SLOAD LT ISZERO PUSH2 0x5AB JUMPI PUSH1 0x40 MLOAD PUSH32 0x8C379A000000000000000000000000000000000000000000000000000000000 DUP2 MSTORE PUSH1 0x4 ADD PUSH2 0x5A2 SWAP1 PUSH2 0x1348 JUMP JUMPDEST PUSH1 0x40 MLOAD DUP1 SWAP2 SUB SWAP1 REVERT JUMPDEST DUP2 PUSH1 0x5 PUSH0 DUP7 PUSH20 0xFFFFFFFFFFFFFFFFFFFFFFFFFFFFFFFFFFFFFFFF AND PUSH20 0xFFFFFFFFFFFFFFFFFFFFFFFFFFFFFFFFFFFFFFFF AND DUP2 MSTORE PUSH1 0x20 ADD SWAP1 DUP2 MSTORE PUSH1 0x20 ADD PUSH0 KECCAK256 PUSH0 CALLER PUSH20 0xFFFFFFFFFFFFFFFFFFFFFFFFFFFFFFFFFFFFFFFF AND PUSH20 0xFFFFFFFFFFFFFFFFFFFFFFFFFFFFFFFFFFFFFFFF AND DUP2 MSTORE PUSH1 0x20 ADD SWAP1 DUP2 MSTORE PUSH1 0x20 ADD PUSH0 KECCAK256 PUSH0 DUP3 DUP3 SLOAD PUSH2 0x632 SWAP2 SWAP1 PUSH2 0x1366 JUMP JUMPDEST SWAP3 POP POP DUP2 SWAP1 SSTORE POP CALLER PUSH20 0xFFFFFFFFFFFFFFFFFFFFFFFFFFFFFFFFFFFFFFFF AND DUP5 PUSH20 0xFFFFFFFFFFFFFFFFFFFFFFFFFFFFFFFFFFFFFFFF AND PUSH32 0x8C5BE1E5EBEC7D5BD14F71427D1E84F3DD0314C0F7B2291E5B200AC8C7C3B925 PUSH1 0x5 PUSH0 DUP9 PUSH20 0xFFFFFFFFFFFFFFFFFFFFFFFFFFFFFFFFFFFFFFFF AND PUSH20 0xFFFFFFFFFFFFFFFFFFFFFFFFFFFFFFFFFFFFFFFF AND DUP2 MSTORE PUSH1 0x20 ADD SWAP1 DUP2 MSTORE PUSH1 0x20 ADD PUSH0 KECCAK256 PUSH0 CALLER PUSH20 0xFFFFFFFFFFFFFFFFFFFFFFFFFFFFFFFFFFFFFFFF AND PUSH20 0xFFFFFFFFFFFFFFFFFFFFFFFFFFFFFFFFFFFFFFFF AND DUP2 MSTORE PUSH1 0x20 ADD SWAP1 DUP2 MSTORE PUSH1 0x20 ADD PUSH0 KECCAK256 SLOAD PUSH1 0x40 MLOAD PUSH2 0x70E SWAP2 SWAP1 PUSH2 0x10E8 JUMP JUMPDEST PUSH1 0x40 MLOAD DUP1 SWAP2 SUB SWAP1 LOG3 PUSH2 0x721 DUP5 DUP5 DUP5 PUSH2 0xB88 JUMP JUMPDEST SWAP1 POP SWAP4 SWAP3 POP POP POP JUMP JUMPDEST PUSH32 0x0 DUP2 JUMP JUMPDEST PUSH1 0x3 PUSH0 SWAP1 SLOAD SWAP1 PUSH2 0x100 EXP SWAP1 DIV PUSH20 0xFFFFFFFFFFFFFFFFFFFFFFFFFFFFFFFFFFFFFFFF AND PUSH20 0xFFFFFFFFFFFFFFFFFFFFFFFFFFFFFFFFFFFFFFFF AND CALLER PUSH20 0xFFFFFFFFFFFFFFFFFFFFFFFFFFFFFFFFFFFFFFFF AND EQ PUSH2 0x7A6 JUMPI PUSH0 DUP1 REVERT JUMPDEST PUSH2 0x7B0 DUP3 DUP3 PUSH2 0xD1F JUMP JUMPDEST POP POP JUMP JUMPDEST PUSH1 0x4 PUSH1 0x20 MSTORE DUP1 PUSH0 MSTORE PUSH1 0x40 PUSH0 KECCAK256 PUSH0 SWAP2 POP SWAP1 POP SLOAD DUP2 JUMP JUMPDEST PUSH1 0x3 PUSH0 SWAP1 SLOAD SWAP1 PUSH2 0x100 EXP SWAP1 DIV PUSH20 0xFFFFFFFFFFFFFFFFFFFFFFFFFFFFFFFFFFFFFFFF AND DUP2 JUMP JUMPDEST PUSH1 0x1 DUP1 SLOAD PUSH2 0x7FB SWAP1 PUSH2 0x126E JUMP JUMPDEST DUP1 PUSH1 0x1F ADD PUSH1 0x20 DUP1 SWAP2 DIV MUL PUSH1 0x20 ADD PUSH1 0x40 MLOAD SWAP1 DUP2 ADD PUSH1 0x40 MSTORE DUP1 SWAP3 SWAP2 SWAP1 DUP2 DUP2 MSTORE PUSH1 0x20 ADD DUP3 DUP1 SLOAD PUSH2 0x827 SWAP1 PUSH2 0x126E JUMP JUMPDEST DUP1 ISZERO PUSH2 0x872 JUMPI DUP1 PUSH1 0x1F LT PUSH2 0x849 JUMPI PUSH2 0x100 DUP1 DUP4 SLOAD DIV MUL DUP4 MSTORE SWAP2 PUSH1 0x20 ADD SWAP2 PUSH2 0x872 JUMP JUMPDEST DUP3 ADD SWAP2 SWAP1 PUSH0 MSTORE PUSH1 0x20 PUSH0 KECCAK256 SWAP1 JUMPDEST DUP2 SLOAD DUP2 MSTORE SWAP1 PUSH1 0x1 ADD SWAP1 PUSH1 0x20 ADD DUP1 DUP4 GT PUSH2 0x855 JUMPI DUP3 SWAP1 SUB PUSH1 0x1F AND DUP3 ADD SWAP2 JUMPDEST POP POP POP POP POP DUP2 JUMP JUMPDEST PUSH1 0x3 PUSH0 SWAP1 SLOAD SWAP1 PUSH2 0x100 EXP SWAP1 DIV PUSH20 0xFFFFFFFFFFFFFFFFFFFFFFFFFFFFFFFFFFFFFFFF AND PUSH20 0xFFFFFFFFFFFFFFFFFFFFFFFFFFFFFFFFFFFFFFFF AND CALLER PUSH20 0xFFFFFFFFFFFFFFFFFFFFFFFFFFFFFFFFFFFFFFFF AND EQ PUSH2 0x8D2 JUMPI PUSH0 DUP1 REVERT JUMPDEST PUSH2 0x8DC DUP3 DUP3 PUSH2 0xDF3 JUMP JUMPDEST POP POP JUMP JUMPDEST PUSH0 PUSH2 0x8EC CALLER DUP5 DUP5 PUSH2 0xB88 JUMP JUMPDEST SWAP1 POP SWAP3 SWAP2 POP POP JUMP JUMPDEST PUSH0 CALLVALUE GT PUSH2 0x936 JUMPI PUSH1 0x40 MLOAD PUSH32 0x8C379A000000000000000000000000000000000000000000000000000000000 DUP2 MSTORE PUSH1 0x4 ADD PUSH2 0x92D SWAP1 PUSH2 0x13E3 JUMP JUMPDEST PUSH1 0x40 MLOAD DUP1 SWAP2 SUB SWAP1 REVERT JUMPDEST PUSH2 0x940 CALLER CALLVALUE PUSH2 0xD1F JUMP JUMPDEST JUMP JUMPDEST DUP1 PUSH1 0x5 PUSH0 CALLER PUSH20 0xFFFFFFFFFFFFFFFFFFFFFFFFFFFFFFFFFFFFFFFF AND PUSH20 0xFFFFFFFFFFFFFFFFFFFFFFFFFFFFFFFFFFFFFFFF AND DUP2 MSTORE PUSH1 0x20 ADD SWAP1 DUP2 MSTORE PUSH1 0x20 ADD PUSH0 KECCAK256 PUSH0 ADDRESS PUSH20 0xFFFFFFFFFFFFFFFFFFFFFFFFFFFFFFFFFFFFFFFF AND PUSH20 0xFFFFFFFFFFFFFFFFFFFFFFFFFFFFFFFFFFFFFFFF AND DUP2 MSTORE PUSH1 0x20 ADD SWAP1 DUP2 MSTORE PUSH1 0x20 ADD PUSH0 KECCAK256 SLOAD LT ISZERO PUSH2 0x9FD JUMPI PUSH1 0x40 MLOAD PUSH32 0x8C379A000000000000000000000000000000000000000000000000000000000 DUP2 MSTORE PUSH1 0x4 ADD PUSH2 0x9F4 SWAP1 PUSH2 0x1471 JUMP JUMPDEST PUSH1 0x40 MLOAD DUP1 SWAP2 SUB SWAP1 REVERT JUMPDEST DUP1 PUSH1 0x4 PUSH0 CALLER PUSH20 0xFFFFFFFFFFFFFFFFFFFFFFFFFFFFFFFFFFFFFFFF AND PUSH20 0xFFFFFFFFFFFFFFFFFFFFFFFFFFFFFFFFFFFFFFFF AND DUP2 MSTORE PUSH1 0x20 ADD SWAP1 DUP2 MSTORE PUSH1 0x20 ADD PUSH0 KECCAK256 SLOAD LT ISZERO PUSH2 0xA7D JUMPI PUSH1 0x40 MLOAD PUSH32 0x8C379A000000000000000000000000000000000000000000000000000000000 DUP2 MSTORE PUSH1 0x4 ADD PUSH2 0xA74 SWAP1 PUSH2 0x14D9 JUMP JUMPDEST PUSH1 0x40 MLOAD DUP1 SWAP2 SUB SWAP1 REVERT JUMPDEST DUP1 PUSH1 0x5 PUSH0 CALLER PUSH20 0xFFFFFFFFFFFFFFFFFFFFFFFFFFFFFFFFFFFFFFFF AND PUSH20 0xFFFFFFFFFFFFFFFFFFFFFFFFFFFFFFFFFFFFFFFF AND DUP2 MSTORE PUSH1 0x20 ADD SWAP1 DUP2 MSTORE PUSH1 0x20 ADD PUSH0 KECCAK256 PUSH0 ADDRESS PUSH20 0xFFFFFFFFFFFFFFFFFFFFFFFFFFFFFFFFFFFFFFFF AND PUSH20 0xFFFFFFFFFFFFFFFFFFFFFFFFFFFFFFFFFFFFFFFF AND DUP2 MSTORE PUSH1 0x20 ADD SWAP1 DUP2 MSTORE PUSH1 0x20 ADD PUSH0 KECCAK256 PUSH0 DUP3 DUP3 SLOAD PUSH2 0xB04 SWAP2 SWAP1 PUSH2 0x1366 JUMP JUMPDEST SWAP3 POP POP DUP2 SWAP1 SSTORE POP PUSH2 0xB16 CALLER ADDRESS DUP4 PUSH2 0xB88 JUMP JUMPDEST POP PUSH2 0xB21 ADDRESS DUP3 PUSH2 0xDF3 JUMP JUMPDEST CALLER PUSH20 0xFFFFFFFFFFFFFFFFFFFFFFFFFFFFFFFFFFFFFFFF AND PUSH2 0x8FC DUP3 SWAP1 DUP2 ISZERO MUL SWAP1 PUSH1 0x40 MLOAD PUSH0 PUSH1 0x40 MLOAD DUP1 DUP4 SUB DUP2 DUP6 DUP9 DUP9 CALL SWAP4 POP POP POP POP ISZERO DUP1 ISZERO PUSH2 0xB64 JUMPI RETURNDATASIZE PUSH0 DUP1 RETURNDATACOPY RETURNDATASIZE PUSH0 REVERT JUMPDEST POP POP JUMP JUMPDEST PUSH1 0x5 PUSH1 0x20 MSTORE DUP2 PUSH0 MSTORE PUSH1 0x40 PUSH0 KECCAK256 PUSH1 0x20 MSTORE DUP1 PUSH0 MSTORE PUSH1 0x40 PUSH0 KECCAK256 PUSH0 SWAP2 POP SWAP2 POP POP SLOAD DUP2 JUMP JUMPDEST PUSH0 DUP2 PUSH1 0x4 PUSH0 DUP7 PUSH20 0xFFFFFFFFFFFFFFFFFFFFFFFFFFFFFFFFFFFFFFFF AND PUSH20 0xFFFFFFFFFFFFFFFFFFFFFFFFFFFFFFFFFFFFFFFF AND DUP2 MSTORE PUSH1 0x20 ADD SWAP1 DUP2 MSTORE PUSH1 0x20 ADD PUSH0 KECCAK256 SLOAD LT ISZERO PUSH2 0xC09 JUMPI PUSH1 0x40 MLOAD PUSH32 0x8C379A000000000000000000000000000000000000000000000000000000000 DUP2 MSTORE PUSH1 0x4 ADD PUSH2 0xC00 SWAP1 PUSH2 0x1567 JUMP JUMPDEST PUSH1 0x40 MLOAD DUP1 SWAP2 SUB SWAP1 REVERT JUMPDEST DUP2 PUSH1 0x4 PUSH0 DUP7 PUSH20 0xFFFFFFFFFFFFFFFFFFFFFFFFFFFFFFFFFFFFFFFF AND PUSH20 0xFFFFFFFFFFFFFFFFFFFFFFFFFFFFFFFFFFFFFFFF AND DUP2 MSTORE PUSH1 0x20 ADD SWAP1 DUP2 MSTORE PUSH1 0x20 ADD PUSH0 KECCAK256 PUSH0 DUP3 DUP3 SLOAD PUSH2 0xC55 SWAP2 SWAP1 PUSH2 0x1366 JUMP JUMPDEST SWAP3 POP POP DUP2 SWAP1 SSTORE POP DUP2 PUSH1 0x4 PUSH0 DUP6 PUSH20 0xFFFFFFFFFFFFFFFFFFFFFFFFFFFFFFFFFFFFFFFF AND PUSH20 0xFFFFFFFFFFFFFFFFFFFFFFFFFFFFFFFFFFFFFFFF AND DUP2 MSTORE PUSH1 0x20 ADD SWAP1 DUP2 MSTORE PUSH1 0x20 ADD PUSH0 KECCAK256 PUSH0 DUP3 DUP3 SLOAD PUSH2 0xCA8 SWAP2 SWAP1 PUSH2 0x12CB JUMP JUMPDEST SWAP3 POP POP DUP2 SWAP1 SSTORE POP DUP3 PUSH20 0xFFFFFFFFFFFFFFFFFFFFFFFFFFFFFFFFFFFFFFFF AND DUP5 PUSH20 0xFFFFFFFFFFFFFFFFFFFFFFFFFFFFFFFFFFFFFFFF AND PUSH32 0xDDF252AD1BE2C89B69C2B068FC378DAA952BA7F163C4A11628F55A4DF523B3EF DUP5 PUSH1 0x40 MLOAD PUSH2 0xD0C SWAP2 SWAP1 PUSH2 0x10E8 JUMP JUMPDEST PUSH1 0x40 MLOAD DUP1 SWAP2 SUB SWAP1 LOG3 PUSH1 0x1 SWAP1 POP SWAP4 SWAP3 POP POP POP JUMP JUMPDEST DUP1 PUSH1 0x4 PUSH0 DUP5 PUSH20 0xFFFFFFFFFFFFFFFFFFFFFFFFFFFFFFFFFFFFFFFF AND PUSH20 0xFFFFFFFFFFFFFFFFFFFFFFFFFFFFFFFFFFFFFFFF AND DUP2 MSTORE PUSH1 0x20 ADD SWAP1 DUP2 MSTORE PUSH1 0x20 ADD PUSH0 KECCAK256 PUSH0 DUP3 DUP3 SLOAD PUSH2 0xD6B SWAP2 SWAP1 PUSH2 0x12CB JUMP JUMPDEST SWAP3 POP POP DUP2 SWAP1 SSTORE POP DUP1 PUSH1 0x2 PUSH0 DUP3 DUP3 SLOAD PUSH2 0xD83 SWAP2 SWAP1 PUSH2 0x12CB JUMP JUMPDEST SWAP3 POP POP DUP2 SWAP1 SSTORE POP DUP2 PUSH20 0xFFFFFFFFFFFFFFFFFFFFFFFFFFFFFFFFFFFFFFFF AND PUSH0 PUSH20 0xFFFFFFFFFFFFFFFFFFFFFFFFFFFFFFFFFFFFFFFF AND PUSH32 0xDDF252AD1BE2C89B69C2B068FC378DAA952BA7F163C4A11628F55A4DF523B3EF DUP4 PUSH1 0x40 MLOAD PUSH2 0xDE7 SWAP2 SWAP1 PUSH2 0x10E8 JUMP JUMPDEST PUSH1 0x40 MLOAD DUP1 SWAP2 SUB SWAP1 LOG3 POP POP JUMP JUMPDEST DUP1 PUSH1 0x4 PUSH0 DUP5 PUSH20 0xFFFFFFFFFFFFFFFFFFFFFFFFFFFFFFFFFFFFFFFF AND PUSH20 0xFFFFFFFFFFFFFFFFFFFFFFFFFFFFFFFFFFFFFFFF AND DUP2 MSTORE PUSH1 0x20 ADD SWAP1 DUP2 MSTORE PUSH1 0x20 ADD PUSH0 KECCAK256 SLOAD LT ISZERO PUSH2 0xE73 JUMPI PUSH1 0x40 MLOAD PUSH32 0x8C379A000000000000000000000000000000000000000000000000000000000 DUP2 MSTORE PUSH1 0x4 ADD PUSH2 0xE6A SWAP1 PUSH2 0x15CF JUMP JUMPDEST PUSH1 0x40 MLOAD DUP1 SWAP2 SUB SWAP1 REVERT JUMPDEST DUP1 PUSH1 0x4 PUSH0 DUP5 PUSH20 0xFFFFFFFFFFFFFFFFFFFFFFFFFFFFFFFFFFFFFFFF AND PUSH20 0xFFFFFFFFFFFFFFFFFFFFFFFFFFFFFFFFFFFFFFFF AND DUP2 MSTORE PUSH1 0x20 ADD SWAP1 DUP2 MSTORE PUSH1 0x20 ADD PUSH0 KECCAK256 PUSH0 DUP3 DUP3 SLOAD PUSH2 0xEBF SWAP2 SWAP1 PUSH2 0x1366 JUMP JUMPDEST SWAP3 POP POP DUP2 SWAP1 SSTORE POP DUP1 PUSH1 0x2 PUSH0 DUP3 DUP3 SLOAD PUSH2 0xED7 SWAP2 SWAP1 PUSH2 0x1366 JUMP JUMPDEST SWAP3 POP POP DUP2 SWAP1 SSTORE POP PUSH0 PUSH20 0xFFFFFFFFFFFFFFFFFFFFFFFFFFFFFFFFFFFFFFFF AND DUP3 PUSH20 0xFFFFFFFFFFFFFFFFFFFFFFFFFFFFFFFFFFFFFFFF AND PUSH32 0xDDF252AD1BE2C89B69C2B068FC378DAA952BA7F163C4A11628F55A4DF523B3EF DUP4 PUSH1 0x40 MLOAD PUSH2 0xF3B SWAP2 SWAP1 PUSH2 0x10E8 JUMP JUMPDEST PUSH1 0x40 MLOAD DUP1 SWAP2 SUB SWAP1 LOG3 POP POP JUMP JUMPDEST PUSH0 DUP2 MLOAD SWAP1 POP SWAP2 SWAP1 POP JUMP JUMPDEST PUSH0 DUP3 DUP3 MSTORE PUSH1 0x20 DUP3 ADD SWAP1 POP SWAP3 SWAP2 POP POP JUMP JUMPDEST DUP3 DUP2 DUP4 MCOPY PUSH0 DUP4 DUP4 ADD MSTORE POP POP POP JUMP JUMPDEST PUSH0 PUSH1 0x1F NOT PUSH1 0x1F DUP4 ADD AND SWAP1 POP SWAP2 SWAP1 POP JUMP JUMPDEST PUSH0 PUSH2 0xF89 DUP3 PUSH2 0xF47 JUMP JUMPDEST PUSH2 0xF93 DUP2 DUP6 PUSH2 0xF51 JUMP JUMPDEST SWAP4 POP PUSH2 0xFA3 DUP2 DUP6 PUSH1 0x20 DUP7 ADD PUSH2 0xF61 JUMP JUMPDEST PUSH2 0xFAC DUP2 PUSH2 0xF6F JUMP JUMPDEST DUP5 ADD SWAP2 POP POP SWAP3 SWAP2 POP POP JUMP JUMPDEST PUSH0 PUSH1 0x20 DUP3 ADD SWAP1 POP DUP2 DUP2 SUB PUSH0 DUP4 ADD MSTORE PUSH2 0xFCF DUP2 DUP5 PUSH2 0xF7F JUMP JUMPDEST SWAP1 POP SWAP3 SWAP2 POP POP JUMP JUMPDEST PUSH0 DUP1 REVERT JUMPDEST PUSH0 PUSH20 0xFFFFFFFFFFFFFFFFFFFFFFFFFFFFFFFFFFFFFFFF DUP3 AND SWAP1 POP SWAP2 SWAP1 POP JUMP JUMPDEST PUSH0 PUSH2 0x1004 DUP3 PUSH2 0xFDB JUMP JUMPDEST SWAP1 POP SWAP2 SWAP1 POP JUMP JUMPDEST PUSH2 0x1014 DUP2 PUSH2 0xFFA JUMP JUMPDEST DUP2 EQ PUSH2 0x101E JUMPI PUSH0 DUP1 REVERT JUMPDEST POP JUMP JUMPDEST PUSH0 DUP2 CALLDATALOAD SWAP1 POP PUSH2 0x102F DUP2 PUSH2 0x100B JUMP JUMPDEST SWAP3 SWAP2 POP POP JUMP JUMPDEST PUSH0 DUP2 SWAP1 POP SWAP2 SWAP1 POP JUMP JUMPDEST PUSH2 0x1047 DUP2 PUSH2 0x1035 JUMP JUMPDEST DUP2 EQ PUSH2 0x1051 JUMPI PUSH0 DUP1 REVERT JUMPDEST POP JUMP JUMPDEST PUSH0 DUP2 CALLDATALOAD SWAP1 POP PUSH2 0x1062 DUP2 PUSH2 0x103E JUMP JUMPDEST SWAP3 SWAP2 POP POP JUMP JUMPDEST PUSH0 DUP1 PUSH1 0x40 DUP4 DUP6 SUB SLT ISZERO PUSH2 0x107E JUMPI PUSH2 0x107D PUSH2 0xFD7 JUMP JUMPDEST JUMPDEST PUSH0 PUSH2 0x108B DUP6 DUP3 DUP7 ADD PUSH2 0x1021 JUMP JUMPDEST SWAP3 POP POP PUSH1 0x20 PUSH2 0x109C DUP6 DUP3 DUP7 ADD PUSH2 0x1054 JUMP JUMPDEST SWAP2 POP POP SWAP3 POP SWAP3 SWAP1 POP JUMP JUMPDEST PUSH0 DUP2 ISZERO ISZERO SWAP1 POP SWAP2 SWAP1 POP JUMP JUMPDEST PUSH2 0x10BA DUP2 PUSH2 0x10A6 JUMP JUMPDEST DUP3 MSTORE POP POP JUMP JUMPDEST PUSH0 PUSH1 0x20 DUP3 ADD SWAP1 POP PUSH2 0x10D3 PUSH0 DUP4 ADD DUP5 PUSH2 0x10B1 JUMP JUMPDEST SWAP3 SWAP2 POP POP JUMP JUMPDEST PUSH2 0x10E2 DUP2 PUSH2 0x1035 JUMP JUMPDEST DUP3 MSTORE POP POP JUMP JUMPDEST PUSH0 PUSH1 0x20 DUP3 ADD SWAP1 POP PUSH2 0x10FB PUSH0 DUP4 ADD DUP5 PUSH2 0x10D9 JUMP JUMPDEST SWAP3 SWAP2 POP POP JUMP JUMPDEST PUSH0 DUP1 PUSH0 PUSH1 0x60 DUP5 DUP7 SUB SLT ISZERO PUSH2 0x1118 JUMPI PUSH2 0x1117 PUSH2 0xFD7 JUMP JUMPDEST JUMPDEST PUSH0 PUSH2 0x1125 DUP7 DUP3 DUP8 ADD PUSH2 0x1021 JUMP JUMPDEST SWAP4 POP POP PUSH1 0x20 PUSH2 0x1136 DUP7 DUP3 DUP8 ADD PUSH2 0x1021 JUMP JUMPDEST SWAP3 POP POP PUSH1 0x40 PUSH2 0x1147 DUP7 DUP3 DUP8 ADD PUSH2 0x1054 JUMP JUMPDEST SWAP2 POP POP SWAP3 POP SWAP3 POP SWAP3 JUMP JUMPDEST PUSH0 PUSH1 0xFF DUP3 AND SWAP1 POP SWAP2 SWAP1 POP JUMP JUMPDEST PUSH2 0x1166 DUP2 PUSH2 0x1151 JUMP JUMPDEST DUP3 MSTORE POP POP JUMP JUMPDEST PUSH0 PUSH1 0x20 DUP3 ADD SWAP1 POP PUSH2 0x117F PUSH0 DUP4 ADD DUP5 PUSH2 0x115D JUMP JUMPDEST SWAP3 SWAP2 POP POP JUMP JUMPDEST PUSH0 PUSH1 0x20 DUP3 DUP5 SUB SLT ISZERO PUSH2 0x119A JUMPI PUSH2 0x1199 PUSH2 0xFD7 JUMP JUMPDEST JUMPDEST PUSH0 PUSH2 0x11A7 DUP5 DUP3 DUP6 ADD PUSH2 0x1021 JUMP JUMPDEST SWAP2 POP POP SWAP3 SWAP2 POP POP JUMP JUMPDEST PUSH2 0x11B9 DUP2 PUSH2 0xFFA JUMP JUMPDEST DUP3 MSTORE POP POP JUMP JUMPDEST PUSH0 PUSH1 0x20 DUP3 ADD SWAP1 POP PUSH2 0x11D2 PUSH0 DUP4 ADD DUP5 PUSH2 0x11B0 JUMP JUMPDEST SWAP3 SWAP2 POP POP JUMP JUMPDEST PUSH0 PUSH1 0x20 DUP3 DUP5 SUB SLT ISZERO PUSH2 0x11ED JUMPI PUSH2 0x11EC PUSH2 0xFD7 JUMP JUMPDEST JUMPDEST PUSH0 PUSH2 0x11FA DUP5 DUP3 DUP6 ADD PUSH2 0x1054 JUMP JUMPDEST SWAP2 POP POP SWAP3 SWAP2 POP POP JUMP JUMPDEST PUSH0 DUP1 PUSH1 0x40 DUP4 DUP6 SUB SLT ISZERO PUSH2 0x1219 JUMPI PUSH2 0x1218 PUSH2 0xFD7 JUMP JUMPDEST JUMPDEST PUSH0 PUSH2 0x1226 DUP6 DUP3 DUP7 ADD PUSH2 0x1021 JUMP JUMPDEST SWAP3 POP POP PUSH1 0x20 PUSH2 0x1237 DUP6 DUP3 DUP7 ADD PUSH2 0x1021 JUMP JUMPDEST SWAP2 POP POP SWAP3 POP SWAP3 SWAP1 POP JUMP JUMPDEST PUSH32 0x4E487B7100000000000000000000000000000000000000000000000000000000 PUSH0 MSTORE PUSH1 0x22 PUSH1 0x4 MSTORE PUSH1 0x24 PUSH0 REVERT JUMPDEST PUSH0 PUSH1 0x2 DUP3 DIV SWAP1 POP PUSH1 0x1 DUP3 AND DUP1 PUSH2 0x1285 JUMPI PUSH1 0x7F DUP3 AND SWAP2 POP JUMPDEST PUSH1 0x20 DUP3 LT DUP2 SUB PUSH2 0x1298 JUMPI PUSH2 0x1297 PUSH2 0x1241 JUMP JUMPDEST JUMPDEST POP SWAP2 SWAP1 POP JUMP JUMPDEST PUSH32 0x4E487B7100000000000000000000000000000000000000000000000000000000 PUSH0 MSTORE PUSH1 0x11 PUSH1 0x4 MSTORE PUSH1 0x24 PUSH0 REVERT JUMPDEST PUSH0 PUSH2 0x12D5 DUP3 PUSH2 0x1035 JUMP JUMPDEST SWAP2 POP PUSH2 0x12E0 DUP4 PUSH2 0x1035 JUMP JUMPDEST SWAP3 POP DUP3 DUP3 ADD SWAP1 POP DUP1 DUP3 GT ISZERO PUSH2 0x12F8 JUMPI PUSH2 0x12F7 PUSH2 0x129E JUMP JUMPDEST JUMPDEST SWAP3 SWAP2 POP POP JUMP JUMPDEST PUSH32 0x45524332303A20496E73756666696369656E7420416C6C6F77616E6365000000 PUSH0 DUP3 ADD MSTORE POP JUMP JUMPDEST PUSH0 PUSH2 0x1332 PUSH1 0x1D DUP4 PUSH2 0xF51 JUMP JUMPDEST SWAP2 POP PUSH2 0x133D DUP3 PUSH2 0x12FE JUMP JUMPDEST PUSH1 0x20 DUP3 ADD SWAP1 POP SWAP2 SWAP1 POP JUMP JUMPDEST PUSH0 PUSH1 0x20 DUP3 ADD SWAP1 POP DUP2 DUP2 SUB PUSH0 DUP4 ADD MSTORE PUSH2 0x135F DUP2 PUSH2 0x1326 JUMP JUMPDEST SWAP1 POP SWAP2 SWAP1 POP JUMP JUMPDEST PUSH0 PUSH2 0x1370 DUP3 PUSH2 0x1035 JUMP JUMPDEST SWAP2 POP PUSH2 0x137B DUP4 PUSH2 0x1035 JUMP JUMPDEST SWAP3 POP DUP3 DUP3 SUB SWAP1 POP DUP2 DUP2 GT ISZERO PUSH2 0x1393 JUMPI PUSH2 0x1392 PUSH2 0x129E JUMP JUMPDEST JUMPDEST SWAP3 SWAP2 POP POP JUMP JUMPDEST PUSH32 0x4D7573742073656E6420457468657220746F206465706F736974000000000000 PUSH0 DUP3 ADD MSTORE POP JUMP JUMPDEST PUSH0 PUSH2 0x13CD PUSH1 0x1A DUP4 PUSH2 0xF51 JUMP JUMPDEST SWAP2 POP PUSH2 0x13D8 DUP3 PUSH2 0x1399 JUMP JUMPDEST PUSH1 0x20 DUP3 ADD SWAP1 POP SWAP2 SWAP1 POP JUMP JUMPDEST PUSH0 PUSH1 0x20 DUP3 ADD SWAP1 POP DUP2 DUP2 SUB PUSH0 DUP4 ADD MSTORE PUSH2 0x13FA DUP2 PUSH2 0x13C1 JUMP JUMPDEST SWAP1 POP SWAP2 SWAP1 POP JUMP JUMPDEST PUSH32 0x436F6E7472616374206E6F7420617070726F76656420746F207370656E642074 PUSH0 DUP3 ADD MSTORE PUSH32 0x6F6B656E73000000000000000000000000000000000000000000000000000000 PUSH1 0x20 DUP3 ADD MSTORE POP JUMP JUMPDEST PUSH0 PUSH2 0x145B PUSH1 0x25 DUP4 PUSH2 0xF51 JUMP JUMPDEST SWAP2 POP PUSH2 0x1466 DUP3 PUSH2 0x1401 JUMP JUMPDEST PUSH1 0x40 DUP3 ADD SWAP1 POP SWAP2 SWAP1 POP JUMP JUMPDEST PUSH0 PUSH1 0x20 DUP3 ADD SWAP1 POP DUP2 DUP2 SUB PUSH0 DUP4 ADD MSTORE PUSH2 0x1488 DUP2 PUSH2 0x144F JUMP JUMPDEST SWAP1 POP SWAP2 SWAP1 POP JUMP JUMPDEST PUSH32 0x4E6F7420656E6F75676820746F6B656E73000000000000000000000000000000 PUSH0 DUP3 ADD MSTORE POP JUMP JUMPDEST PUSH0 PUSH2 0x14C3 PUSH1 0x11 DUP4 PUSH2 0xF51 JUMP JUMPDEST SWAP2 POP PUSH2 0x14CE DUP3 PUSH2 0x148F JUMP JUMPDEST PUSH1 0x20 DUP3 ADD SWAP1 POP SWAP2 SWAP1 POP JUMP JUMPDEST PUSH0 PUSH1 0x20 DUP3 ADD SWAP1 POP DUP2 DUP2 SUB PUSH0 DUP4 ADD MSTORE PUSH2 0x14F0 DUP2 PUSH2 0x14B7 JUMP JUMPDEST SWAP1 POP SWAP2 SWAP1 POP JUMP JUMPDEST PUSH32 0x45524332303A20496E73756666696369656E742073656E6465722062616C616E PUSH0 DUP3 ADD MSTORE PUSH32 0x6365000000000000000000000000000000000000000000000000000000000000 PUSH1 0x20 DUP3 ADD MSTORE POP JUMP JUMPDEST PUSH0 PUSH2 0x1551 PUSH1 0x22 DUP4 PUSH2 0xF51 JUMP JUMPDEST SWAP2 POP PUSH2 0x155C DUP3 PUSH2 0x14F7 JUMP JUMPDEST PUSH1 0x40 DUP3 ADD SWAP1 POP SWAP2 SWAP1 POP JUMP JUMPDEST PUSH0 PUSH1 0x20 DUP3 ADD SWAP1 POP DUP2 DUP2 SUB PUSH0 DUP4 ADD MSTORE PUSH2 0x157E DUP2 PUSH2 0x1545 JUMP JUMPDEST SWAP1 POP SWAP2 SWAP1 POP JUMP JUMPDEST PUSH32 0x45524332303A20496E73756666696369656E74204275726E2042616C616E6365 PUSH0 DUP3 ADD MSTORE POP JUMP JUMPDEST PUSH0 PUSH2 0x15B9 PUSH1 0x20 DUP4 PUSH2 0xF51 JUMP JUMPDEST SWAP2 POP PUSH2 0x15C4 DUP3 PUSH2 0x1585 JUMP JUMPDEST PUSH1 0x20 DUP3 ADD SWAP1 POP SWAP2 SWAP1 POP JUMP JUMPDEST PUSH0 PUSH1 0x20 DUP3 ADD SWAP1 POP DUP2 DUP2 SUB PUSH0 DUP4 ADD MSTORE PUSH2 0x15E6 DUP2 PUSH2 0x15AD JUMP JUMPDEST SWAP1 POP SWAP2 SWAP1 POP JUMP INVALID LOG2 PUSH5 0x6970667358 0x22 SLT KECCAK256 DIV TSTORE 0x4F 0x4F 0xED INVALID DUP6 DIV PUSH12 0xFF4B4A10C48CB4A0452D3127 0xFC SIGNEXTEND SUB SSTORE LOG2 0xCB 0xE7 0xCA 0x2B CALLER PUSH6 0x64736F6C6343 STOP ADDMOD BYTE STOP CALLER "
				},
				"gasEstimates": {
					"creation": {
						"codeDepositCost": "1133400",
						"executionCost": "infinite",
						"totalCost": "infinite"
					},
					"external": {
						"allowance(address,address)": "infinite",
						"approve(address,uint256)": "infinite",
						"balanceOf(address)": "2891",
						"burn(address,uint256)": "infinite",
						"decimals()": "infinite",
						"deposit()": "infinite",
						"mint(address,uint256)": "infinite",
						"name()": "infinite",
						"owner()": "2531",
						"redeem(uint256)": "infinite",
						"symbol()": "infinite",
						"totalSupply()": "2493",
						"transfer(address,uint256)": "infinite",
						"transferFrom(address,address,uint256)": "infinite"
					},
					"internal": {
						"_burn(address,uint256)": "infinite",
						"_mint(address,uint256)": "infinite",
						"_transfer(address,address,uint256)": "infinite"
					}
				},
				"methodIdentifiers": {
					"allowance(address,address)": "dd62ed3e",
					"approve(address,uint256)": "095ea7b3",
					"balanceOf(address)": "70a08231",
					"burn(address,uint256)": "9dc29fac",
					"decimals()": "313ce567",
					"deposit()": "d0e30db0",
					"mint(address,uint256)": "40c10f19",
					"name()": "06fdde03",
					"owner()": "8da5cb5b",
					"redeem(uint256)": "db006a75",
					"symbol()": "95d89b41",
					"totalSupply()": "18160ddd",
					"transfer(address,uint256)": "a9059cbb",
					"transferFrom(address,address,uint256)": "23b872dd"
				}
			},
			"storageLayout": {
				"storage": [
					{
						"astId": 30,
						"contract": "ERC20Contract.sol:ERC20",
						"label": "name",
						"offset": 0,
						"slot": "0",
						"type": "t_string_storage"
					},
					{
						"astId": 32,
						"contract": "ERC20Contract.sol:ERC20",
						"label": "symbol",
						"offset": 0,
						"slot": "1",
						"type": "t_string_storage"
					},
					{
						"astId": 36,
						"contract": "ERC20Contract.sol:ERC20",
						"label": "totalSupply",
						"offset": 0,
						"slot": "2",
						"type": "t_uint256"
					},
					{
						"astId": 38,
						"contract": "ERC20Contract.sol:ERC20",
						"label": "owner",
						"offset": 0,
						"slot": "3",
						"type": "t_address"
					},
					{
						"astId": 42,
						"contract": "ERC20Contract.sol:ERC20",
						"label": "balanceOf",
						"offset": 0,
						"slot": "4",
						"type": "t_mapping(t_address,t_uint256)"
					},
					{
						"astId": 48,
						"contract": "ERC20Contract.sol:ERC20",
						"label": "allowance",
						"offset": 0,
						"slot": "5",
						"type": "t_mapping(t_address,t_mapping(t_address,t_uint256))"
					}
				],
				"types": {
					"t_address": {
						"encoding": "inplace",
						"label": "address",
						"numberOfBytes": "20"
					},
					"t_mapping(t_address,t_mapping(t_address,t_uint256))": {
						"encoding": "mapping",
						"key": "t_address",
						"label": "mapping(address => mapping(address => uint256))",
						"numberOfBytes": "32",
						"value": "t_mapping(t_address,t_uint256)"
					},
					"t_mapping(t_address,t_uint256)": {
						"encoding": "mapping",
						"key": "t_address",
						"label": "mapping(address => uint256)",
						"numberOfBytes": "32",
						"value": "t_uint256"
					},
					"t_string_storage": {
						"encoding": "bytes",
						"label": "string",
						"numberOfBytes": "32"
					},
					"t_uint256": {
						"encoding": "inplace",
						"label": "uint256",
						"numberOfBytes": "32"
					}
				}
			},
			"userdoc": {
				"kind": "user",
				"methods": {},
				"version": 1
			}
		}
	}
}